{
  "address": "0xbBaC47d46A86f9173eF08441F206AfE08290115b",
  "abi": [
    {
      "inputs": [
        {
          "internalType": "address",
          "name": "underlying_",
          "type": "address"
        },
        {
          "internalType": "contract ComptrollerInterface",
          "name": "comptroller_",
          "type": "address"
        },
        {
          "internalType": "contract InterestRateModel",
          "name": "interestRateModel_",
          "type": "address"
        },
        {
          "internalType": "uint256",
          "name": "initialExchangeRateMantissa_",
          "type": "uint256"
        },
        {
          "internalType": "string",
          "name": "name_",
          "type": "string"
        },
        {
          "internalType": "string",
          "name": "symbol_",
          "type": "string"
        },
        {
          "internalType": "uint8",
          "name": "decimals_",
          "type": "uint8"
        },
        {
          "internalType": "address payable",
          "name": "admin_",
          "type": "address"
        }
      ],
      "payable": false,
      "stateMutability": "nonpayable",
      "type": "constructor"
    },
    {
      "anonymous": false,
      "inputs": [
        {
          "indexed": false,
          "internalType": "uint256",
          "name": "cashPrior",
          "type": "uint256"
        },
        {
          "indexed": false,
          "internalType": "uint256",
          "name": "interestAccumulated",
          "type": "uint256"
        },
        {
          "indexed": false,
          "internalType": "uint256",
          "name": "borrowIndex",
          "type": "uint256"
        },
        {
          "indexed": false,
          "internalType": "uint256",
          "name": "totalBorrows",
          "type": "uint256"
        }
      ],
      "name": "AccrueInterest",
      "type": "event"
    },
    {
      "anonymous": false,
      "inputs": [
        {
          "indexed": true,
          "internalType": "address",
          "name": "owner",
          "type": "address"
        },
        {
          "indexed": true,
          "internalType": "address",
          "name": "spender",
          "type": "address"
        },
        {
          "indexed": false,
          "internalType": "uint256",
          "name": "amount",
          "type": "uint256"
        }
      ],
      "name": "Approval",
      "type": "event"
    },
    {
      "anonymous": false,
      "inputs": [
        {
          "indexed": false,
          "internalType": "address",
          "name": "borrower",
          "type": "address"
        },
        {
          "indexed": false,
          "internalType": "uint256",
          "name": "borrowAmount",
          "type": "uint256"
        },
        {
          "indexed": false,
          "internalType": "uint256",
          "name": "accountBorrows",
          "type": "uint256"
        },
        {
          "indexed": false,
          "internalType": "uint256",
          "name": "totalBorrows",
          "type": "uint256"
        }
      ],
      "name": "Borrow",
      "type": "event"
    },
    {
      "anonymous": false,
      "inputs": [
        {
          "indexed": false,
          "internalType": "uint256",
          "name": "error",
          "type": "uint256"
        },
        {
          "indexed": false,
          "internalType": "uint256",
          "name": "info",
          "type": "uint256"
        },
        {
          "indexed": false,
          "internalType": "uint256",
          "name": "detail",
          "type": "uint256"
        }
      ],
      "name": "Failure",
      "type": "event"
    },
    {
      "anonymous": false,
      "inputs": [
        {
          "indexed": false,
          "internalType": "address",
          "name": "liquidator",
          "type": "address"
        },
        {
          "indexed": false,
          "internalType": "address",
          "name": "borrower",
          "type": "address"
        },
        {
          "indexed": false,
          "internalType": "uint256",
          "name": "repayAmount",
          "type": "uint256"
        },
        {
          "indexed": false,
          "internalType": "address",
          "name": "cTokenCollateral",
          "type": "address"
        },
        {
          "indexed": false,
          "internalType": "uint256",
          "name": "seizeTokens",
          "type": "uint256"
        }
      ],
      "name": "LiquidateBorrow",
      "type": "event"
    },
    {
      "anonymous": false,
      "inputs": [
        {
          "indexed": false,
          "internalType": "address",
          "name": "minter",
          "type": "address"
        },
        {
          "indexed": false,
          "internalType": "uint256",
          "name": "mintAmount",
          "type": "uint256"
        },
        {
          "indexed": false,
          "internalType": "uint256",
          "name": "mintTokens",
          "type": "uint256"
        }
      ],
      "name": "Mint",
      "type": "event"
    },
    {
      "anonymous": false,
      "inputs": [
        {
          "indexed": false,
          "internalType": "address",
          "name": "oldAdmin",
          "type": "address"
        },
        {
          "indexed": false,
          "internalType": "address",
          "name": "newAdmin",
          "type": "address"
        }
      ],
      "name": "NewAdmin",
      "type": "event"
    },
    {
      "anonymous": false,
      "inputs": [
        {
          "indexed": false,
          "internalType": "contract ComptrollerInterface",
          "name": "oldComptroller",
          "type": "address"
        },
        {
          "indexed": false,
          "internalType": "contract ComptrollerInterface",
          "name": "newComptroller",
          "type": "address"
        }
      ],
      "name": "NewComptroller",
      "type": "event"
    },
    {
      "anonymous": false,
      "inputs": [
        {
          "indexed": false,
          "internalType": "contract InterestRateModel",
          "name": "oldInterestRateModel",
          "type": "address"
        },
        {
          "indexed": false,
          "internalType": "contract InterestRateModel",
          "name": "newInterestRateModel",
          "type": "address"
        }
      ],
      "name": "NewMarketInterestRateModel",
      "type": "event"
    },
    {
      "anonymous": false,
      "inputs": [
        {
          "indexed": false,
          "internalType": "address",
          "name": "oldPendingAdmin",
          "type": "address"
        },
        {
          "indexed": false,
          "internalType": "address",
          "name": "newPendingAdmin",
          "type": "address"
        }
      ],
      "name": "NewPendingAdmin",
      "type": "event"
    },
    {
      "anonymous": false,
      "inputs": [
        {
          "indexed": false,
          "internalType": "uint256",
          "name": "oldReserveFactorMantissa",
          "type": "uint256"
        },
        {
          "indexed": false,
          "internalType": "uint256",
          "name": "newReserveFactorMantissa",
          "type": "uint256"
        }
      ],
      "name": "NewReserveFactor",
      "type": "event"
    },
    {
      "anonymous": false,
      "inputs": [
        {
          "indexed": false,
          "internalType": "address",
          "name": "redeemer",
          "type": "address"
        },
        {
          "indexed": false,
          "internalType": "uint256",
          "name": "redeemAmount",
          "type": "uint256"
        },
        {
          "indexed": false,
          "internalType": "uint256",
          "name": "redeemTokens",
          "type": "uint256"
        }
      ],
      "name": "Redeem",
      "type": "event"
    },
    {
      "anonymous": false,
      "inputs": [
        {
          "indexed": false,
          "internalType": "address",
          "name": "payer",
          "type": "address"
        },
        {
          "indexed": false,
          "internalType": "address",
          "name": "borrower",
          "type": "address"
        },
        {
          "indexed": false,
          "internalType": "uint256",
          "name": "repayAmount",
          "type": "uint256"
        },
        {
          "indexed": false,
          "internalType": "uint256",
          "name": "accountBorrows",
          "type": "uint256"
        },
        {
          "indexed": false,
          "internalType": "uint256",
          "name": "totalBorrows",
          "type": "uint256"
        }
      ],
      "name": "RepayBorrow",
      "type": "event"
    },
    {
      "anonymous": false,
      "inputs": [
        {
          "indexed": false,
          "internalType": "address",
          "name": "benefactor",
          "type": "address"
        },
        {
          "indexed": false,
          "internalType": "uint256",
          "name": "addAmount",
          "type": "uint256"
        },
        {
          "indexed": false,
          "internalType": "uint256",
          "name": "newTotalReserves",
          "type": "uint256"
        }
      ],
      "name": "ReservesAdded",
      "type": "event"
    },
    {
      "anonymous": false,
      "inputs": [
        {
          "indexed": false,
          "internalType": "address",
          "name": "admin",
          "type": "address"
        },
        {
          "indexed": false,
          "internalType": "uint256",
          "name": "reduceAmount",
          "type": "uint256"
        },
        {
          "indexed": false,
          "internalType": "uint256",
          "name": "newTotalReserves",
          "type": "uint256"
        }
      ],
      "name": "ReservesReduced",
      "type": "event"
    },
    {
      "anonymous": false,
      "inputs": [
        {
          "indexed": true,
          "internalType": "address",
          "name": "from",
          "type": "address"
        },
        {
          "indexed": true,
          "internalType": "address",
          "name": "to",
          "type": "address"
        },
        {
          "indexed": false,
          "internalType": "uint256",
          "name": "amount",
          "type": "uint256"
        }
      ],
      "name": "Transfer",
      "type": "event"
    },
    {
      "payable": true,
      "stateMutability": "payable",
      "type": "fallback"
    },
    {
      "constant": false,
      "inputs": [],
      "name": "_acceptAdmin",
      "outputs": [
        {
          "internalType": "uint256",
          "name": "",
          "type": "uint256"
        }
      ],
      "payable": false,
      "stateMutability": "nonpayable",
      "type": "function"
    },
    {
      "constant": false,
      "inputs": [
        {
          "internalType": "uint256",
          "name": "reduceAmount",
          "type": "uint256"
        }
      ],
      "name": "_reduceReserves",
      "outputs": [
        {
          "internalType": "uint256",
          "name": "",
          "type": "uint256"
        }
      ],
      "payable": false,
      "stateMutability": "nonpayable",
      "type": "function"
    },
    {
      "constant": false,
      "inputs": [
        {
          "internalType": "contract ComptrollerInterface",
          "name": "newComptroller",
          "type": "address"
        }
      ],
      "name": "_setComptroller",
      "outputs": [
        {
          "internalType": "uint256",
          "name": "",
          "type": "uint256"
        }
      ],
      "payable": false,
      "stateMutability": "nonpayable",
      "type": "function"
    },
    {
      "constant": false,
      "inputs": [
        {
          "internalType": "contract InterestRateModel",
          "name": "newInterestRateModel",
          "type": "address"
        }
      ],
      "name": "_setInterestRateModel",
      "outputs": [
        {
          "internalType": "uint256",
          "name": "",
          "type": "uint256"
        }
      ],
      "payable": false,
      "stateMutability": "nonpayable",
      "type": "function"
    },
    {
      "constant": false,
      "inputs": [
        {
          "internalType": "address payable",
          "name": "newPendingAdmin",
          "type": "address"
        }
      ],
      "name": "_setPendingAdmin",
      "outputs": [
        {
          "internalType": "uint256",
          "name": "",
          "type": "uint256"
        }
      ],
      "payable": false,
      "stateMutability": "nonpayable",
      "type": "function"
    },
    {
      "constant": false,
      "inputs": [
        {
          "internalType": "uint256",
          "name": "newReserveFactorMantissa",
          "type": "uint256"
        }
      ],
      "name": "_setReserveFactor",
      "outputs": [
        {
          "internalType": "uint256",
          "name": "",
          "type": "uint256"
        }
      ],
      "payable": false,
      "stateMutability": "nonpayable",
      "type": "function"
    },
    {
      "constant": true,
      "inputs": [],
      "name": "accrualBlockNumber",
      "outputs": [
        {
          "internalType": "uint256",
          "name": "",
          "type": "uint256"
        }
      ],
      "payable": false,
      "stateMutability": "view",
      "type": "function"
    },
    {
      "constant": false,
      "inputs": [],
      "name": "accrueInterest",
      "outputs": [
        {
          "internalType": "uint256",
          "name": "",
          "type": "uint256"
        }
      ],
      "payable": false,
      "stateMutability": "nonpayable",
      "type": "function"
    },
    {
      "constant": true,
      "inputs": [],
      "name": "admin",
      "outputs": [
        {
          "internalType": "address payable",
          "name": "",
          "type": "address"
        }
      ],
      "payable": false,
      "stateMutability": "view",
      "type": "function"
    },
    {
      "constant": true,
      "inputs": [
        {
          "internalType": "address",
          "name": "owner",
          "type": "address"
        },
        {
          "internalType": "address",
          "name": "spender",
          "type": "address"
        }
      ],
      "name": "allowance",
      "outputs": [
        {
          "internalType": "uint256",
          "name": "",
          "type": "uint256"
        }
      ],
      "payable": false,
      "stateMutability": "view",
      "type": "function"
    },
    {
      "constant": false,
      "inputs": [
        {
          "internalType": "address",
          "name": "spender",
          "type": "address"
        },
        {
          "internalType": "uint256",
          "name": "amount",
          "type": "uint256"
        }
      ],
      "name": "approve",
      "outputs": [
        {
          "internalType": "bool",
          "name": "",
          "type": "bool"
        }
      ],
      "payable": false,
      "stateMutability": "nonpayable",
      "type": "function"
    },
    {
      "constant": true,
      "inputs": [
        {
          "internalType": "address",
          "name": "owner",
          "type": "address"
        }
      ],
      "name": "balanceOf",
      "outputs": [
        {
          "internalType": "uint256",
          "name": "",
          "type": "uint256"
        }
      ],
      "payable": false,
      "stateMutability": "view",
      "type": "function"
    },
    {
      "constant": false,
      "inputs": [
        {
          "internalType": "address",
          "name": "owner",
          "type": "address"
        }
      ],
      "name": "balanceOfUnderlying",
      "outputs": [
        {
          "internalType": "uint256",
          "name": "",
          "type": "uint256"
        }
      ],
      "payable": false,
      "stateMutability": "nonpayable",
      "type": "function"
    },
    {
      "constant": false,
      "inputs": [
        {
          "internalType": "uint256",
          "name": "borrowAmount",
          "type": "uint256"
        }
      ],
      "name": "borrow",
      "outputs": [
        {
          "internalType": "uint256",
          "name": "",
          "type": "uint256"
        }
      ],
      "payable": false,
      "stateMutability": "nonpayable",
      "type": "function"
    },
    {
      "constant": false,
      "inputs": [
        {
          "internalType": "address",
          "name": "account",
          "type": "address"
        }
      ],
      "name": "borrowBalanceCurrent",
      "outputs": [
        {
          "internalType": "uint256",
          "name": "",
          "type": "uint256"
        }
      ],
      "payable": false,
      "stateMutability": "nonpayable",
      "type": "function"
    },
    {
      "constant": true,
      "inputs": [
        {
          "internalType": "address",
          "name": "account",
          "type": "address"
        }
      ],
      "name": "borrowBalanceStored",
      "outputs": [
        {
          "internalType": "uint256",
          "name": "",
          "type": "uint256"
        }
      ],
      "payable": false,
      "stateMutability": "view",
      "type": "function"
    },
    {
      "constant": true,
      "inputs": [],
      "name": "borrowIndex",
      "outputs": [
        {
          "internalType": "uint256",
          "name": "",
          "type": "uint256"
        }
      ],
      "payable": false,
      "stateMutability": "view",
      "type": "function"
    },
    {
      "constant": true,
      "inputs": [],
      "name": "borrowRatePerBlock",
      "outputs": [
        {
          "internalType": "uint256",
          "name": "",
          "type": "uint256"
        }
      ],
      "payable": false,
      "stateMutability": "view",
      "type": "function"
    },
    {
      "constant": true,
      "inputs": [],
      "name": "comptroller",
      "outputs": [
        {
          "internalType": "contract ComptrollerInterface",
          "name": "",
          "type": "address"
        }
      ],
      "payable": false,
      "stateMutability": "view",
      "type": "function"
    },
    {
      "constant": true,
      "inputs": [],
      "name": "decimals",
      "outputs": [
        {
          "internalType": "uint8",
          "name": "",
          "type": "uint8"
        }
      ],
      "payable": false,
      "stateMutability": "view",
      "type": "function"
    },
    {
      "constant": false,
      "inputs": [],
      "name": "exchangeRateCurrent",
      "outputs": [
        {
          "internalType": "uint256",
          "name": "",
          "type": "uint256"
        }
      ],
      "payable": false,
      "stateMutability": "nonpayable",
      "type": "function"
    },
    {
      "constant": true,
      "inputs": [],
      "name": "exchangeRateStored",
      "outputs": [
        {
          "internalType": "uint256",
          "name": "",
          "type": "uint256"
        }
      ],
      "payable": false,
      "stateMutability": "view",
      "type": "function"
    },
    {
      "constant": true,
      "inputs": [
        {
          "internalType": "address",
          "name": "account",
          "type": "address"
        }
      ],
      "name": "getAccountSnapshot",
      "outputs": [
        {
          "internalType": "uint256",
          "name": "",
          "type": "uint256"
        },
        {
          "internalType": "uint256",
          "name": "",
          "type": "uint256"
        },
        {
          "internalType": "uint256",
          "name": "",
          "type": "uint256"
        },
        {
          "internalType": "uint256",
          "name": "",
          "type": "uint256"
        }
      ],
      "payable": false,
      "stateMutability": "view",
      "type": "function"
    },
    {
      "constant": true,
      "inputs": [],
      "name": "getCash",
      "outputs": [
        {
          "internalType": "uint256",
          "name": "",
          "type": "uint256"
        }
      ],
      "payable": false,
      "stateMutability": "view",
      "type": "function"
    },
    {
      "constant": false,
      "inputs": [
        {
          "internalType": "contract ComptrollerInterface",
          "name": "comptroller_",
          "type": "address"
        },
        {
          "internalType": "contract InterestRateModel",
          "name": "interestRateModel_",
          "type": "address"
        },
        {
          "internalType": "uint256",
          "name": "initialExchangeRateMantissa_",
          "type": "uint256"
        },
        {
          "internalType": "string",
          "name": "name_",
          "type": "string"
        },
        {
          "internalType": "string",
          "name": "symbol_",
          "type": "string"
        },
        {
          "internalType": "uint8",
          "name": "decimals_",
          "type": "uint8"
        }
      ],
      "name": "initialize",
      "outputs": [],
      "payable": false,
      "stateMutability": "nonpayable",
      "type": "function"
    },
    {
      "constant": true,
      "inputs": [],
      "name": "interestRateModel",
      "outputs": [
        {
          "internalType": "contract InterestRateModel",
          "name": "",
          "type": "address"
        }
      ],
      "payable": false,
      "stateMutability": "view",
      "type": "function"
    },
    {
      "constant": true,
      "inputs": [],
      "name": "isCToken",
      "outputs": [
        {
          "internalType": "bool",
          "name": "",
          "type": "bool"
        }
      ],
      "payable": false,
      "stateMutability": "view",
      "type": "function"
    },
    {
      "constant": false,
      "inputs": [
        {
          "internalType": "address",
          "name": "borrower",
          "type": "address"
        },
        {
          "internalType": "contract CToken",
          "name": "cTokenCollateral",
          "type": "address"
        }
      ],
      "name": "liquidateBorrow",
      "outputs": [],
      "payable": true,
      "stateMutability": "payable",
      "type": "function"
    },
    {
      "constant": false,
      "inputs": [],
      "name": "mint",
      "outputs": [],
      "payable": true,
      "stateMutability": "payable",
      "type": "function"
    },
    {
      "constant": true,
      "inputs": [],
      "name": "name",
      "outputs": [
        {
          "internalType": "string",
          "name": "",
          "type": "string"
        }
      ],
      "payable": false,
      "stateMutability": "view",
      "type": "function"
    },
    {
      "constant": true,
      "inputs": [],
      "name": "pendingAdmin",
      "outputs": [
        {
          "internalType": "address payable",
          "name": "",
          "type": "address"
        }
      ],
      "payable": false,
      "stateMutability": "view",
      "type": "function"
    },
    {
      "constant": false,
      "inputs": [
        {
          "internalType": "uint256",
          "name": "redeemTokens",
          "type": "uint256"
        }
      ],
      "name": "redeem",
      "outputs": [
        {
          "internalType": "uint256",
          "name": "",
          "type": "uint256"
        }
      ],
      "payable": false,
      "stateMutability": "nonpayable",
      "type": "function"
    },
    {
      "constant": false,
      "inputs": [
        {
          "internalType": "uint256",
          "name": "redeemAmount",
          "type": "uint256"
        }
      ],
      "name": "redeemUnderlying",
      "outputs": [
        {
          "internalType": "uint256",
          "name": "",
          "type": "uint256"
        }
      ],
      "payable": false,
      "stateMutability": "nonpayable",
      "type": "function"
    },
    {
      "constant": false,
      "inputs": [],
      "name": "repayBorrow",
      "outputs": [],
      "payable": true,
      "stateMutability": "payable",
      "type": "function"
    },
    {
      "constant": false,
      "inputs": [
        {
          "internalType": "address",
          "name": "borrower",
          "type": "address"
        }
      ],
      "name": "repayBorrowBehalf",
      "outputs": [],
      "payable": true,
      "stateMutability": "payable",
      "type": "function"
    },
    {
      "constant": true,
      "inputs": [],
      "name": "reserveFactorMantissa",
      "outputs": [
        {
          "internalType": "uint256",
          "name": "",
          "type": "uint256"
        }
      ],
      "payable": false,
      "stateMutability": "view",
      "type": "function"
    },
    {
      "constant": false,
      "inputs": [
        {
          "internalType": "address",
          "name": "liquidator",
          "type": "address"
        },
        {
          "internalType": "address",
          "name": "borrower",
          "type": "address"
        },
        {
          "internalType": "uint256",
          "name": "seizeTokens",
          "type": "uint256"
        }
      ],
      "name": "seize",
      "outputs": [
        {
          "internalType": "uint256",
          "name": "",
          "type": "uint256"
        }
      ],
      "payable": false,
      "stateMutability": "nonpayable",
      "type": "function"
    },
    {
      "constant": true,
      "inputs": [],
      "name": "supplyRatePerBlock",
      "outputs": [
        {
          "internalType": "uint256",
          "name": "",
          "type": "uint256"
        }
      ],
      "payable": false,
      "stateMutability": "view",
      "type": "function"
    },
    {
      "constant": true,
      "inputs": [],
      "name": "symbol",
      "outputs": [
        {
          "internalType": "string",
          "name": "",
          "type": "string"
        }
      ],
      "payable": false,
      "stateMutability": "view",
      "type": "function"
    },
    {
      "constant": true,
      "inputs": [],
      "name": "totalBorrows",
      "outputs": [
        {
          "internalType": "uint256",
          "name": "",
          "type": "uint256"
        }
      ],
      "payable": false,
      "stateMutability": "view",
      "type": "function"
    },
    {
      "constant": false,
      "inputs": [],
      "name": "totalBorrowsCurrent",
      "outputs": [
        {
          "internalType": "uint256",
          "name": "",
          "type": "uint256"
        }
      ],
      "payable": false,
      "stateMutability": "nonpayable",
      "type": "function"
    },
    {
      "constant": true,
      "inputs": [],
      "name": "totalReserves",
      "outputs": [
        {
          "internalType": "uint256",
          "name": "",
          "type": "uint256"
        }
      ],
      "payable": false,
      "stateMutability": "view",
      "type": "function"
    },
    {
      "constant": true,
      "inputs": [],
      "name": "totalSupply",
      "outputs": [
        {
          "internalType": "uint256",
          "name": "",
          "type": "uint256"
        }
      ],
      "payable": false,
      "stateMutability": "view",
      "type": "function"
    },
    {
      "constant": false,
      "inputs": [
        {
          "internalType": "address",
          "name": "dst",
          "type": "address"
        },
        {
          "internalType": "uint256",
          "name": "amount",
          "type": "uint256"
        }
      ],
      "name": "transfer",
      "outputs": [
        {
          "internalType": "bool",
          "name": "",
          "type": "bool"
        }
      ],
      "payable": false,
      "stateMutability": "nonpayable",
      "type": "function"
    },
    {
      "constant": false,
      "inputs": [
        {
          "internalType": "address",
          "name": "src",
          "type": "address"
        },
        {
          "internalType": "address",
          "name": "dst",
          "type": "address"
        },
        {
          "internalType": "uint256",
          "name": "amount",
          "type": "uint256"
        }
      ],
      "name": "transferFrom",
      "outputs": [
        {
          "internalType": "bool",
          "name": "",
          "type": "bool"
        }
      ],
      "payable": false,
      "stateMutability": "nonpayable",
      "type": "function"
    },
    {
      "constant": true,
      "inputs": [],
      "name": "underlying",
      "outputs": [
        {
          "internalType": "address",
          "name": "",
          "type": "address"
        }
      ],
      "payable": false,
      "stateMutability": "view",
      "type": "function"
    }
  ],
  "transactionHash": "0xb863237ad15c56d98f4067be54c1c796879f606f4ca385572fece09ed008ce6e",
  "args": [
    "0x5545153CCFcA01fbd7Dd11C0b23ba694D9509A6F",
    "0x434d481eB15cF3C62e22F8ECF223c430aC50fb36",
    "0x7dD7aFa76D63d480f425152574f7a56341Be16C9",
    "1000000000000000000",
    "HT's cToken",
    "cHT",
    18,
    "0x78194d4aE6F0a637F563482cAc143ecE532E8847"
  ],
  "solcInputHash": "6659e75036e5c026cdf11756c823f4ef",
  "bytecode": "0x60806040523480156200001157600080fd5b50604051620056ca380380620056ca83398181016040526101008110156200003857600080fd5b81516020830151604080850151606086015160808701805193519597949692959194919392820192846401000000008211156200007457600080fd5b9083019060208201858111156200008a57600080fd5b8251640100000000811182820188101715620000a557600080fd5b82525081516020918201929091019080838360005b83811015620000d4578181015183820152602001620000ba565b50505050905090810190601f168015620001025780820380516001836020036101000a031916815260200191505b50604052602001805160405193929190846401000000008211156200012657600080fd5b9083019060208201858111156200013c57600080fd5b82516401000000008111828201881017156200015757600080fd5b82525081516020918201929091019080838360005b83811015620001865781810151838201526020016200016c565b50505050905090810190601f168015620001b45780820380516001836020036101000a031916815260200191505b506040908152602082015191015160038054610100600160a81b03191633610100021790559092509050620001ee87878787878762000235565b60038054610100600160a81b0319166101006001600160a01b0393841602179055601180546001600160a01b03191698909116979097179096555062000870945050505050565b60035461010090046001600160a01b03163314620002855760405162461bcd60e51b8152600401808060200182810382526024815260200180620056316024913960400191505060405180910390fd5b600954158015620002965750600a54155b620002d35760405162461bcd60e51b8152600401808060200182810382526023815260200180620056556023913960400191505060405180910390fd5b600784905583620003165760405162461bcd60e51b8152600401808060200182810382526030815260200180620056786030913960400191505060405180910390fd5b60006200032c876001600160e01b036200044b16565b9050801562000382576040805162461bcd60e51b815260206004820152601a60248201527f73657474696e6720636f6d7074726f6c6c6572206661696c6564000000000000604482015290519081900360640190fd5b620003956001600160e01b03620005b316565b600955670de0b6b3a7640000600a55620003b8866001600160e01b03620005b816565b90508015620003f95760405162461bcd60e51b8152600401808060200182810382526022815260200180620056a86022913960400191505060405180910390fd5b83516200040e906001906020870190620007ce565b50825162000424906002906020860190620007ce565b50506003805460ff90921660ff199283161790556000805490911660011790555050505050565b60035460009061010090046001600160a01b0316331462000485576200047d6001603f6001600160e01b036200075e16565b9050620005ae565b60055460408051623f1ee960e11b815290516001600160a01b0392831692851691627e3dd2916004808301926020929190829003018186803b158015620004cb57600080fd5b505afa158015620004e0573d6000803e3d6000fd5b505050506040513d6020811015620004f757600080fd5b50516200054b576040805162461bcd60e51b815260206004820152601c60248201527f6d61726b6572206d6574686f642072657475726e65642066616c736500000000604482015290519081900360640190fd5b600580546001600160a01b0319166001600160a01b03858116918217909255604080519284168352602083019190915280517f7ac369dbd14fa5ea3f473ed67cc9d598964a77501540ba6751eb0b3decf5870d9281900390910190a160005b9150505b919050565b435b90565b600354600090819061010090046001600160a01b03163314620005f557620005ec600160426001600160e01b036200075e16565b915050620005ae565b620006086001600160e01b03620005b316565b600954146200062857620005ec600a60416001600160e01b036200075e16565b600660009054906101000a90046001600160a01b03169050826001600160a01b0316632191f92a6040518163ffffffff1660e01b815260040160206040518083038186803b1580156200067a57600080fd5b505afa1580156200068f573d6000803e3d6000fd5b505050506040513d6020811015620006a657600080fd5b5051620006fa576040805162461bcd60e51b815260206004820152601c60248201527f6d61726b6572206d6574686f642072657475726e65642066616c736500000000604482015290519081900360640190fd5b600680546001600160a01b0319166001600160a01b03858116918217909255604080519284168352602083019190915280517fedffc32e068c7c95dfd4bdfd5c4d939a084d6b11c4199eac8436ed234d72f9269281900390910190a16000620005aa565b60007f45b96fe442630264581b197e84bbada861235052c5a1aadfff9ea4e40a969aa08360108111156200078e57fe5b8360508111156200079b57fe5b604080519283526020830191909152600082820152519081900360600190a1826010811115620007c757fe5b9392505050565b828054600181600116156101000203166002900490600052602060002090601f016020900481019282601f106200081157805160ff191683800117855562000841565b8280016001018555821562000841579182015b828111156200084157825182559160200191906001019062000824565b506200084f92915062000853565b5090565b620005b591905b808211156200084f57600081556001016200085a565b614db180620008806000396000f3fe60806040526004361061027d5760003560e01c806395d89b411161014f578063c37f68e2116100c1578063f2b3abbd1161007a578063f2b3abbd14610a42578063f3fdb15a14610a75578063f851a44014610a8a578063f8f9da2814610a9f578063fca7820b14610ab4578063fe9c44ae14610ade5761027d565b8063c37f68e21461091f578063c5ebeaec14610978578063db006a75146109a2578063dd62ed3e146109cc578063e597461914610a07578063e9c714f214610a2d5761027d565b8063aa5af0fd11610113578063aa5af0fd1461083c578063aae40a2a14610851578063ae9d70b01461087f578063b2a02ff114610894578063b71d1a0c146108d7578063bd6d894d1461090a5761027d565b806395d89b411461064757806395dd91931461065c57806399d8c1b41461068f578063a6afed95146107ee578063a9059cbb146108035761027d565b80633b1d21a2116101f35780636c540baf116101ac5780636c540baf146105965780636f307dc3146105ab57806370a08231146105c057806373acee98146105f3578063852a12e3146106085780638f840ddd146106325761027d565b80633b1d21a2146104f25780634576b5db1461050757806347bd37181461053a5780634e4d9fea1461054f5780635fe3b56714610557578063601a0bf11461056c5761027d565b806318160ddd1161024557806318160ddd146103f6578063182df0f51461040b57806323b872dd146104205780632678224714610463578063313ce567146104945780633af9e669146104bf5761027d565b806306fdde03146102bb578063095ea7b3146103455780631249c58b14610392578063173b99041461039c57806317bfdfbc146103c3575b600061028834610af3565b5090506102b8816040518060400160405280600b81526020016a1b5a5b9d0819985a5b195960aa1b815250610b9b565b50005b3480156102c757600080fd5b506102d0610d9b565b6040805160208082528351818301528351919283929083019185019080838360005b8381101561030a5781810151838201526020016102f2565b50505050905090810190601f1680156103375780820380516001836020036101000a031916815260200191505b509250505060405180910390f35b34801561035157600080fd5b5061037e6004803603604081101561036857600080fd5b506001600160a01b038135169060200135610e28565b604080519115158252519081900360200190f35b61039a610e95565b005b3480156103a857600080fd5b506103b1610ed3565b60408051918252519081900360200190f35b3480156103cf57600080fd5b506103b1600480360360208110156103e657600080fd5b50356001600160a01b0316610ed9565b34801561040257600080fd5b506103b1610f99565b34801561041757600080fd5b506103b1610f9f565b34801561042c57600080fd5b5061037e6004803603606081101561044357600080fd5b506001600160a01b03813581169160208101359091169060400135611002565b34801561046f57600080fd5b50610478611074565b604080516001600160a01b039092168252519081900360200190f35b3480156104a057600080fd5b506104a9611083565b6040805160ff9092168252519081900360200190f35b3480156104cb57600080fd5b506103b1600480360360208110156104e257600080fd5b50356001600160a01b031661108c565b3480156104fe57600080fd5b506103b1611144565b34801561051357600080fd5b506103b16004803603602081101561052a57600080fd5b50356001600160a01b0316611153565b34801561054657600080fd5b506103b16112a8565b61039a6112ae565b34801561056357600080fd5b506104786112f0565b34801561057857600080fd5b506103b16004803603602081101561058f57600080fd5b50356112ff565b3480156105a257600080fd5b506103b161139a565b3480156105b757600080fd5b506104786113a0565b3480156105cc57600080fd5b506103b1600480360360208110156105e357600080fd5b50356001600160a01b03166113af565b3480156105ff57600080fd5b506103b16113ca565b34801561061457600080fd5b506103b16004803603602081101561062b57600080fd5b5035611480565b34801561063e57600080fd5b506103b161148b565b34801561065357600080fd5b506102d0611491565b34801561066857600080fd5b506103b16004803603602081101561067f57600080fd5b50356001600160a01b03166114e9565b34801561069b57600080fd5b5061039a600480360360c08110156106b257600080fd5b6001600160a01b038235811692602081013590911691604082013591908101906080810160608201356401000000008111156106ed57600080fd5b8201836020820111156106ff57600080fd5b8035906020019184600183028401116401000000008311171561072157600080fd5b91908080601f016020809104026020016040519081016040528093929190818152602001838380828437600092019190915250929594936020810193503591505064010000000081111561077457600080fd5b82018360208201111561078657600080fd5b803590602001918460018302840111640100000000831117156107a857600080fd5b91908080601f0160208091040260200160405190810160405280939291908181526020018383808284376000920191909152509295505050903560ff1691506115469050565b3480156107fa57600080fd5b506103b161172d565b34801561080f57600080fd5b5061037e6004803603604081101561082657600080fd5b506001600160a01b038135169060200135611a85565b34801561084857600080fd5b506103b1611af6565b61039a6004803603604081101561086757600080fd5b506001600160a01b0381358116916020013516611afc565b34801561088b57600080fd5b506103b1611b49565b3480156108a057600080fd5b506103b1600480360360608110156108b757600080fd5b506001600160a01b03813581169160208101359091169060400135611be8565b3480156108e357600080fd5b506103b1600480360360208110156108fa57600080fd5b50356001600160a01b0316611c59565b34801561091657600080fd5b506103b1611ce5565b34801561092b57600080fd5b506109526004803603602081101561094257600080fd5b50356001600160a01b0316611da1565b604080519485526020850193909352838301919091526060830152519081900360800190f35b34801561098457600080fd5b506103b16004803603602081101561099b57600080fd5b5035611e36565b3480156109ae57600080fd5b506103b1600480360360208110156109c557600080fd5b5035611e41565b3480156109d857600080fd5b506103b1600480360360408110156109ef57600080fd5b506001600160a01b0381358116916020013516611e4c565b61039a60048036036020811015610a1d57600080fd5b50356001600160a01b0316611e77565b348015610a3957600080fd5b506103b1611ec5565b348015610a4e57600080fd5b506103b160048036036020811015610a6557600080fd5b50356001600160a01b0316611fc8565b348015610a8157600080fd5b50610478612002565b348015610a9657600080fd5b50610478612011565b348015610aab57600080fd5b506103b1612025565b348015610ac057600080fd5b506103b160048036036020811015610ad757600080fd5b5035612089565b348015610aea57600080fd5b5061037e612107565b60008054819060ff16610b3a576040805162461bcd60e51b815260206004820152600a6024820152691c994b595b9d195c995960b21b604482015290519081900360640190fd5b6000805460ff19168155610b4c61172d565b90508015610b7757610b6a816010811115610b6357fe5b601e61210c565b925060009150610b879050565b610b813385612172565b92509250505b6000805460ff191660011790559092909150565b81610ba557610d97565b606081516005016040519080825280601f01601f191660200182016040528015610bd6576020820181803883390190505b50905060005b8251811015610c2757828181518110610bf157fe5b602001015160f81c60f81b828281518110610c0857fe5b60200101906001600160f81b031916908160001a905350600101610bdc565b8151600160fd1b90839083908110610c3b57fe5b60200101906001600160f81b031916908160001a905350602860f81b828260010181518110610c6657fe5b60200101906001600160f81b031916908160001a905350600a840460300160f81b828260020181518110610c9657fe5b60200101906001600160f81b031916908160001a905350600a840660300160f81b828260030181518110610cc657fe5b60200101906001600160f81b031916908160001a905350602960f81b828260040181518110610cf157fe5b60200101906001600160f81b031916908160001a905350818415610d935760405162461bcd60e51b81526004018080602001828103825283818151815260200191508051906020019080838360005b83811015610d58578181015183820152602001610d40565b50505050905090810190601f168015610d855780820380516001836020036101000a031916815260200191505b509250505060405180910390fd5b5050505b5050565b60018054604080516020600284861615610100026000190190941693909304601f81018490048402820184019092528181529291830182828015610e205780601f10610df557610100808354040283529160200191610e20565b820191906000526020600020905b815481529060010190602001808311610e0357829003601f168201915b505050505081565b336000818152600f602090815260408083206001600160a01b03871680855290835281842086905581518681529151939493909284927f8c5be1e5ebec7d5bd14f71427d1e84f3dd0314c0f7b2291e5b200ac8c7c3b925929081900390910190a360019150505b92915050565b6000610ea034610af3565b509050610ed0816040518060400160405280600b81526020016a1b5a5b9d0819985a5b195960aa1b815250610b9b565b50565b60085481565b6000805460ff16610f1e576040805162461bcd60e51b815260206004820152600a6024820152691c994b595b9d195c995960b21b604482015290519081900360640190fd5b6000805460ff19168155610f3061172d565b14610f7b576040805162461bcd60e51b81526020600482015260166024820152751858d8dc9d59481a5b9d195c995cdd0819985a5b195960521b604482015290519081900360640190fd5b610f84826114e9565b90505b6000805460ff19166001179055919050565b600d5481565b6000806000610fac6125d2565b90925090506000826003811115610fbf57fe5b14610ffb5760405162461bcd60e51b8152600401808060200182810382526035815260200180614cc86035913960400191505060405180910390fd5b9150505b90565b6000805460ff16611047576040805162461bcd60e51b815260206004820152600a6024820152691c994b595b9d195c995960b21b604482015290519081900360640190fd5b6000805460ff1916815561105d33868686612681565b1490506000805460ff191660011790559392505050565b6004546001600160a01b031681565b60035460ff1681565b60006110966149b6565b60405180602001604052806110a9611ce5565b90526001600160a01b0384166000908152600e60205260408120549192509081906110d5908490612991565b909250905060008260038111156110e857fe5b1461113a576040805162461bcd60e51b815260206004820152601f60248201527f62616c616e636520636f756c64206e6f742062652063616c63756c6174656400604482015290519081900360640190fd5b925050505b919050565b600061114e6129e4565b905090565b60035460009061010090046001600160a01b03163314611180576111796001603f61210c565b905061113f565b60055460408051623f1ee960e11b815290516001600160a01b0392831692851691627e3dd2916004808301926020929190829003018186803b1580156111c557600080fd5b505afa1580156111d9573d6000803e3d6000fd5b505050506040513d60208110156111ef57600080fd5b5051611242576040805162461bcd60e51b815260206004820152601c60248201527f6d61726b6572206d6574686f642072657475726e65642066616c736500000000604482015290519081900360640190fd5b600580546001600160a01b0319166001600160a01b03858116918217909255604080519284168352602083019190915280517f7ac369dbd14fa5ea3f473ed67cc9d598964a77501540ba6751eb0b3decf5870d9281900390910190a160005b9392505050565b600b5481565b60006112b934612a10565b509050610ed081604051806040016040528060128152602001711c995c185e509bdc9c9bddc819985a5b195960721b815250610b9b565b6005546001600160a01b031681565b6000805460ff16611344576040805162461bcd60e51b815260206004820152600a6024820152691c994b595b9d195c995960b21b604482015290519081900360640190fd5b6000805460ff1916815561135661172d565b9050801561137c5761137481601081111561136d57fe5b603061210c565b915050610f87565b61138583612a92565b9150506000805460ff19166001179055919050565b60095481565b6011546001600160a01b031681565b6001600160a01b03166000908152600e602052604090205490565b6000805460ff1661140f576040805162461bcd60e51b815260206004820152600a6024820152691c994b595b9d195c995960b21b604482015290519081900360640190fd5b6000805460ff1916815561142161172d565b1461146c576040805162461bcd60e51b81526020600482015260166024820152751858d8dc9d59481a5b9d195c995cdd0819985a5b195960521b604482015290519081900360640190fd5b50600b546000805460ff1916600117905590565b6000610e8f82612bc5565b600c5481565b6002805460408051602060018416156101000260001901909316849004601f81018490048402820184019092528181529291830182828015610e205780601f10610df557610100808354040283529160200191610e20565b60008060006114f784612c46565b9092509050600082600381111561150a57fe5b146112a15760405162461bcd60e51b8152600401808060200182810382526037815260200180614bd36037913960400191505060405180910390fd5b60035461010090046001600160a01b031633146115945760405162461bcd60e51b8152600401808060200182810382526024815260200180614b0f6024913960400191505060405180910390fd5b6009541580156115a45750600a54155b6115df5760405162461bcd60e51b8152600401808060200182810382526023815260200180614b336023913960400191505060405180910390fd5b6007849055836116205760405162461bcd60e51b8152600401808060200182810382526030815260200180614b566030913960400191505060405180910390fd5b600061162b87611153565b90508015611680576040805162461bcd60e51b815260206004820152601a60248201527f73657474696e6720636f6d7074726f6c6c6572206661696c6564000000000000604482015290519081900360640190fd5b611688612cfa565b600955670de0b6b3a7640000600a556116a086612cfe565b905080156116df5760405162461bcd60e51b8152600401808060200182810382526022815260200180614b866022913960400191505060405180910390fd5b83516116f29060019060208701906149c9565b5082516117069060029060208601906149c9565b50506003805460ff90921660ff199283161790556000805490911660011790555050505050565b600080611738612cfa565b6009549091508082141561175157600092505050610fff565b600061175b6129e4565b600b54600c54600a54600654604080516315f2405360e01b815260048101879052602481018690526044810185905290519596509394929391926000926001600160a01b03909216916315f24053916064808301926020929190829003018186803b1580156117c957600080fd5b505afa1580156117dd573d6000803e3d6000fd5b505050506040513d60208110156117f357600080fd5b5051905065048c27395000811115611852576040805162461bcd60e51b815260206004820152601c60248201527f626f72726f772072617465206973206162737572646c79206869676800000000604482015290519081900360640190fd5b60008061185f8989612e73565b9092509050600082600381111561187257fe5b146118c4576040805162461bcd60e51b815260206004820152601f60248201527f636f756c64206e6f742063616c63756c61746520626c6f636b2064656c746100604482015290519081900360640190fd5b6118cc6149b6565b6000806000806118ea60405180602001604052808a81525087612e96565b909750945060008760038111156118fd57fe5b1461192f5761191a6009600689600381111561191557fe5b612efe565b9e505050505050505050505050505050610fff565b611939858c612991565b9097509350600087600381111561194c57fe5b146119645761191a6009600189600381111561191557fe5b61196e848c612f64565b9097509250600087600381111561198157fe5b146119995761191a6009600489600381111561191557fe5b6119b46040518060200160405280600854815250858c612f8a565b909750915060008760038111156119c757fe5b146119df5761191a6009600589600381111561191557fe5b6119ea858a8b612f8a565b909750905060008760038111156119fd57fe5b14611a155761191a6009600389600381111561191557fe5b60098e9055600a819055600b839055600c829055604080518d8152602081018690528082018390526060810185905290517f4dec04e750ca11537cabcd8a9eab06494de08da3735bc8871cd41250e190bc049181900360800190a160009e50505050505050505050505050505090565b6000805460ff16611aca576040805162461bcd60e51b815260206004820152600a6024820152691c994b595b9d195c995960b21b604482015290519081900360640190fd5b6000805460ff19168155611ae033338686612681565b1490506000805460ff1916600117905592915050565b600a5481565b6000611b09833484612fe6565b509050611b4481604051806040016040528060168152602001751b1a5c5d5a59185d19509bdc9c9bddc819985a5b195960521b815250610b9b565b505050565b6006546000906001600160a01b031663b8168816611b656129e4565b600b54600c546008546040518563ffffffff1660e01b81526004018085815260200184815260200183815260200182815260200194505050505060206040518083038186803b158015611bb757600080fd5b505afa158015611bcb573d6000803e3d6000fd5b505050506040513d6020811015611be157600080fd5b5051905090565b6000805460ff16611c2d576040805162461bcd60e51b815260206004820152600a6024820152691c994b595b9d195c995960b21b604482015290519081900360640190fd5b6000805460ff19169055611c4333858585613118565b90506000805460ff191660011790559392505050565b60035460009061010090046001600160a01b03163314611c7f576111796001604561210c565b600480546001600160a01b038481166001600160a01b0319831681179093556040805191909216808252602082019390935281517fca4f2f25d0898edd99413412fb94012f9e54ec8142f9b093e7720646a95b16a9929181900390910190a160006112a1565b6000805460ff16611d2a576040805162461bcd60e51b815260206004820152600a6024820152691c994b595b9d195c995960b21b604482015290519081900360640190fd5b6000805460ff19168155611d3c61172d565b14611d87576040805162461bcd60e51b81526020600482015260166024820152751858d8dc9d59481a5b9d195c995cdd0819985a5b195960521b604482015290519081900360640190fd5b611d8f610f9f565b90506000805460ff1916600117905590565b6001600160a01b0381166000908152600e6020526040812054819081908190818080611dcc89612c46565b935090506000816003811115611dde57fe5b14611dfc5760095b975060009650869550859450611e2f9350505050565b611e046125d2565b925090506000816003811115611e1657fe5b14611e22576009611de6565b5060009650919450925090505b9193509193565b6000610e8f8261337e565b6000610e8f826133fd565b6001600160a01b039182166000908152600f6020908152604080832093909416825291909152205490565b6000611e838234613477565b509050610d97816040518060400160405280601881526020017f7265706179426f72726f77426568616c66206661696c65640000000000000000815250610b9b565b6004546000906001600160a01b031633141580611ee0575033155b15611ef857611ef16001600061210c565b9050610fff565b60038054600480546001600160a01b03818116610100818102610100600160a81b0319871617968790556001600160a01b031990931690935560408051948390048216808652929095041660208401528351909391927ff9ffabca9c8276e99321725bcb43fb076a6c66a54b7f21c4e8146d8519b417dc92908290030190a1600454604080516001600160a01b038085168252909216602083015280517fca4f2f25d0898edd99413412fb94012f9e54ec8142f9b093e7720646a95b16a99281900390910190a160009250505090565b600080611fd361172d565b90508015611ff957611ff1816010811115611fea57fe5b604061210c565b91505061113f565b6112a183612cfe565b6006546001600160a01b031681565b60035461010090046001600160a01b031681565b6006546000906001600160a01b03166315f240536120416129e4565b600b54600c546040518463ffffffff1660e01b815260040180848152602001838152602001828152602001935050505060206040518083038186803b158015611bb757600080fd5b6000805460ff166120ce576040805162461bcd60e51b815260206004820152600a6024820152691c994b595b9d195c995960b21b604482015290519081900360640190fd5b6000805460ff191681556120e061172d565b905080156120fe576113748160108111156120f757fe5b604661210c565b61138583613522565b600181565b60007f45b96fe442630264581b197e84bbada861235052c5a1aadfff9ea4e40a969aa083601081111561213b57fe5b83605081111561214757fe5b604080519283526020830191909152600082820152519081900360600190a18260108111156112a157fe5b60055460408051634ef4c3e160e01b81523060048201526001600160a01b03858116602483015260448201859052915160009384938493911691634ef4c3e19160648082019260209290919082900301818787803b1580156121d357600080fd5b505af11580156121e7573d6000803e3d6000fd5b505050506040513d60208110156121fd57600080fd5b505190508015612221576122146003601f83612efe565b9250600091506125cb9050565b612229612cfa565b6009541461223d57612214600a602261210c565b612245614a47565b61224d6125d2565b604083018190526020830182600381111561226457fe5b600381111561226f57fe5b905250600090508160200151600381111561228657fe5b146122b0576122a2600960218360200151600381111561191557fe5b9350600092506125cb915050565b6122ba86866135ca565b60c08201819052604080516020810182529083015181526122db9190613666565b60608301819052602083018260038111156122f257fe5b60038111156122fd57fe5b905250600090508160200151600381111561231457fe5b14612366576040805162461bcd60e51b815260206004820181905260248201527f4d494e545f45584348414e47455f43414c43554c4154494f4e5f4641494c4544604482015290519081900360640190fd5b612376600d548260600151612f64565b608083018190526020830182600381111561238d57fe5b600381111561239857fe5b90525060009050816020015160038111156123af57fe5b146123eb5760405162461bcd60e51b8152600401808060200182810382526028815260200180614cfd6028913960400191505060405180910390fd5b6001600160a01b0386166000908152600e602052604090205460608201516124139190612f64565b60a083018190526020830182600381111561242a57fe5b600381111561243557fe5b905250600090508160200151600381111561244c57fe5b146124885760405162461bcd60e51b815260040180806020018281038252602b815260200180614ba8602b913960400191505060405180910390fd5b6080810151600d5560a08101516001600160a01b0387166000818152600e60209081526040918290209390935560c084015160608086015183519485529484019190915282820193909352517f4c209b5fc8ad50758f13e2e1088ba56a560dff690a1c6fef26394f4c03821c4f929181900390910190a1606081015160408051918252516001600160a01b038816913091600080516020614c448339815191529181900360200190a360055460c08201516060830151604080516341c728b960e01b81523060048201526001600160a01b038b81166024830152604482019490945260648101929092525191909216916341c728b991608480830192600092919082900301818387803b15801561259e57600080fd5b505af11580156125b2573d6000803e3d6000fd5b50600092506125bf915050565b8160c001519350935050505b9250929050565b600d546000908190806125ed5750506007546000915061267d565b60006125f76129e4565b905060006126036149b6565b600061261484600b54600c5461367d565b93509050600081600381111561262657fe5b1461263b5795506000945061267d9350505050565b61264583866136bb565b92509050600081600381111561265757fe5b1461266c5795506000945061267d9350505050565b505160009550935061267d92505050565b9091565b600554604080516317b9b84b60e31b81523060048201526001600160a01b03868116602483015285811660448301526064820185905291516000938493169163bdcdc25891608480830192602092919082900301818787803b1580156126e657600080fd5b505af11580156126fa573d6000803e3d6000fd5b505050506040513d602081101561271057600080fd5b50519050801561272f576127276003604a83612efe565b915050612989565b836001600160a01b0316856001600160a01b03161415612755576127276002604b61210c565b60006001600160a01b038781169087161415612774575060001961279c565b506001600160a01b038086166000908152600f60209081526040808320938a16835292905220545b6000806000806127ac8589612e73565b909450925060008460038111156127bf57fe5b146127dd576127d06009604b61210c565b9650505050505050612989565b6001600160a01b038a166000908152600e60205260409020546128009089612e73565b9094509150600084600381111561281357fe5b14612824576127d06009604c61210c565b6001600160a01b0389166000908152600e60205260409020546128479089612f64565b9094509050600084600381111561285a57fe5b1461286b576127d06009604d61210c565b6001600160a01b03808b166000908152600e6020526040808220859055918b1681522081905560001985146128c3576001600160a01b03808b166000908152600f60209081526040808320938f168352929052208390555b886001600160a01b03168a6001600160a01b0316600080516020614c448339815191528a6040518082815260200191505060405180910390a36005546040805163352b4a3f60e11b81523060048201526001600160a01b038d811660248301528c81166044830152606482018c905291519190921691636a56947e91608480830192600092919082900301818387803b15801561295f57600080fd5b505af1158015612973573d6000803e3d6000fd5b5060009250612980915050565b96505050505050505b949350505050565b600080600061299e6149b6565b6129a88686612e96565b909250905060008260038111156129bb57fe5b146129cc57509150600090506125cb565b60006129d78261376b565b9350935050509250929050565b60008060006129f34734612e73565b90925090506000826003811115612a0657fe5b14610ffb57600080fd5b60008054819060ff16612a57576040805162461bcd60e51b815260206004820152600a6024820152691c994b595b9d195c995960b21b604482015290519081900360640190fd5b6000805460ff19168155612a6961172d565b90508015612a8757610b6a816010811115612a8057fe5b603661210c565b610b8133338661377a565b600354600090819061010090046001600160a01b03163314612aba57611ff16001603161210c565b612ac2612cfa565b60095414612ad657611ff1600a603361210c565b82612adf6129e4565b1015612af157611ff1600e603261210c565b600c54831115612b0757611ff16002603461210c565b50600c5482810390811115612b4d5760405162461bcd60e51b8152600401808060200182810382526024815260200180614d596024913960400191505060405180910390fd5b600c819055600354612b6d9061010090046001600160a01b031684613b5f565b600354604080516101009092046001600160a01b0316825260208201859052818101839052517f3bad0c59cf2f06e7314077049f48a93578cd16f5ef92329f1dab1420a99c177e916060908290030190a160006112a1565b6000805460ff16612c0a576040805162461bcd60e51b815260206004820152600a6024820152691c994b595b9d195c995960b21b604482015290519081900360640190fd5b6000805460ff19168155612c1c61172d565b90508015612c3a57611374816010811115612c3357fe5b602761210c565b61138533600085613b95565b6001600160a01b038116600090815260106020526040812080548291829182918291612c7d575060009450849350612cf592505050565b612c8d8160000154600a5461405c565b90945092506000846003811115612ca057fe5b14612cb5575091935060009250612cf5915050565b612cc383826001015461409b565b90945091506000846003811115612cd657fe5b14612ceb575091935060009250612cf5915050565b5060009450925050505b915091565b4390565b600354600090819061010090046001600160a01b03163314612d2657611ff16001604261210c565b612d2e612cfa565b60095414612d4257611ff1600a604161210c565b600660009054906101000a90046001600160a01b03169050826001600160a01b0316632191f92a6040518163ffffffff1660e01b815260040160206040518083038186803b158015612d9357600080fd5b505afa158015612da7573d6000803e3d6000fd5b505050506040513d6020811015612dbd57600080fd5b5051612e10576040805162461bcd60e51b815260206004820152601c60248201527f6d61726b6572206d6574686f642072657475726e65642066616c736500000000604482015290519081900360640190fd5b600680546001600160a01b0319166001600160a01b03858116918217909255604080519284168352602083019190915280517fedffc32e068c7c95dfd4bdfd5c4d939a084d6b11c4199eac8436ed234d72f9269281900390910190a160006112a1565b600080838311612e8a5750600090508183036125cb565b506003905060006125cb565b6000612ea06149b6565b600080612eb186600001518661405c565b90925090506000826003811115612ec457fe5b14612ee3575060408051602081019091526000815290925090506125cb565b60408051602081019091529081526000969095509350505050565b60007f45b96fe442630264581b197e84bbada861235052c5a1aadfff9ea4e40a969aa0846010811115612f2d57fe5b846050811115612f3957fe5b604080519283526020830191909152818101859052519081900360600190a183601081111561298957fe5b600080838301848110612f7c576000925090506125cb565b5060029150600090506125cb565b6000806000612f976149b6565b612fa18787612e96565b90925090506000826003811115612fb457fe5b14612fc55750915060009050612fde565b612fd7612fd18261376b565b86612f64565b9350935050505b935093915050565b60008054819060ff1661302d576040805162461bcd60e51b815260206004820152600a6024820152691c994b595b9d195c995960b21b604482015290519081900360640190fd5b6000805460ff1916815561303f61172d565b9050801561306a5761305d81601081111561305657fe5b600f61210c565b9250600091506131019050565b836001600160a01b031663a6afed956040518163ffffffff1660e01b8152600401602060405180830381600087803b1580156130a557600080fd5b505af11580156130b9573d6000803e3d6000fd5b505050506040513d60208110156130cf57600080fd5b5051905080156130ef5761305d8160108111156130e857fe5b601061210c565b6130fb338787876140c6565b92509250505b6000805460ff191660011790559094909350915050565b6005546040805163d02f735160e01b81523060048201526001600160a01b038781166024830152868116604483015285811660648301526084820185905291516000938493169163d02f73519160a480830192602092919082900301818787803b15801561318557600080fd5b505af1158015613199573d6000803e3d6000fd5b505050506040513d60208110156131af57600080fd5b5051905080156131c6576127276003601b83612efe565b846001600160a01b0316846001600160a01b031614156131ec576127276006601c61210c565b6001600160a01b0384166000908152600e6020526040812054819081906132139087612e73565b9093509150600083600381111561322657fe5b146132495761323e6009601a85600381111561191557fe5b945050505050612989565b6001600160a01b0388166000908152600e602052604090205461326c9087612f64565b9093509050600083600381111561327f57fe5b146132975761323e6009601985600381111561191557fe5b6001600160a01b038088166000818152600e60209081526040808320879055938c168083529184902085905583518a815293519193600080516020614c44833981519152929081900390910190a360055460408051636d35bf9160e01b81523060048201526001600160a01b038c811660248301528b811660448301528a81166064830152608482018a905291519190921691636d35bf919160a480830192600092919082900301818387803b15801561335057600080fd5b505af1158015613364573d6000803e3d6000fd5b5060009250613371915050565b9998505050505050505050565b6000805460ff166133c3576040805162461bcd60e51b815260206004820152600a6024820152691c994b595b9d195c995960b21b604482015290519081900360640190fd5b6000805460ff191681556133d561172d565b905080156133f3576113748160108111156133ec57fe5b600861210c565b6113853384614649565b6000805460ff16613442576040805162461bcd60e51b815260206004820152600a6024820152691c994b595b9d195c995960b21b604482015290519081900360640190fd5b6000805460ff1916815561345461172d565b9050801561346b57611374816010811115612c3357fe5b61138533846000613b95565b60008054819060ff166134be576040805162461bcd60e51b815260206004820152600a6024820152691c994b595b9d195c995960b21b604482015290519081900360640190fd5b6000805460ff191681556134d061172d565b905080156134fb576134ee8160108111156134e757fe5b603561210c565b92506000915061350c9050565b61350633868661377a565b92509250505b6000805460ff1916600117905590939092509050565b60035460009061010090046001600160a01b03163314613548576111796001604761210c565b613550612cfa565b6009541461356457611179600a604861210c565b670de0b6b3a7640000821115613580576111796002604961210c565b6008805490839055604080518281526020810185905281517faaa68312e2ea9d50e16af5068410ab56e1a1fd06037b1a35664812c30f821460929181900390910190a160006112a1565b6000336001600160a01b0384161461361b576040805162461bcd60e51b815260206004820152600f60248201526e0e6cadcc8cae440dad2e6dac2e8c6d608b1b604482015290519081900360640190fd5b813414613660576040805162461bcd60e51b815260206004820152600e60248201526d0ecc2d8eaca40dad2e6dac2e8c6d60931b604482015290519081900360640190fd5b50919050565b60008060006136736149b6565b6129a88686614957565b60008060008061368d8787612f64565b909250905060008260038111156136a057fe5b146136b15750915060009050612fde565b612fd78186612e73565b60006136c56149b6565b6000806136da86670de0b6b3a764000061405c565b909250905060008260038111156136ed57fe5b1461370c575060408051602081019091526000815290925090506125cb565b600080613719838861409b565b9092509050600082600381111561372c57fe5b1461374e575060408051602081019091526000815290945092506125cb915050565b604080516020810190915290815260009890975095505050505050565b51670de0b6b3a7640000900490565b60055460408051631200453160e11b81523060048201526001600160a01b0386811660248301528581166044830152606482018590529151600093849384939116916324008a629160848082019260209290919082900301818787803b1580156137e357600080fd5b505af11580156137f7573d6000803e3d6000fd5b505050506040513d602081101561380d57600080fd5b505190508015613831576138246003603883612efe565b925060009150612fde9050565b613839612cfa565b6009541461384d57613824600a603961210c565b613855614a85565b6001600160a01b038616600090815260106020526040902060010154606082015261387f86612c46565b608083018190526020830182600381111561389657fe5b60038111156138a157fe5b90525060009050816020015160038111156138b857fe5b146138e2576138d4600960378360200151600381111561191557fe5b935060009250612fde915050565b6000198514156138fb5760808101516040820152613903565b604081018590525b6139118782604001516135ca565b60e08201819052608082015161392691612e73565b60a083018190526020830182600381111561393d57fe5b600381111561394857fe5b905250600090508160200151600381111561395f57fe5b1461399b5760405162461bcd60e51b815260040180806020018281038252603a815260200180614c0a603a913960400191505060405180910390fd5b6139ab600b548260e00151612e73565b60c08301819052602083018260038111156139c257fe5b60038111156139cd57fe5b90525060009050816020015160038111156139e457fe5b14613a205760405162461bcd60e51b8152600401808060200182810382526031815260200180614c646031913960400191505060405180910390fd5b60a080820180516001600160a01b03808a16600081815260106020908152604091829020948555600a5460019095019490945560c0870151600b81905560e088015195518251948f16855294840192909252828101949094526060820192909252608081019190915290517f1a2a22cb034d26d1854bdc6666a5b91fe25efbbb5dcad3b0355478d6f5c362a1929181900390910190a160055460e0820151606083015160408051631ededc9160e01b81523060048201526001600160a01b038c811660248301528b8116604483015260648201949094526084810192909252519190921691631ededc919160a480830192600092919082900301818387803b158015613b2b57600080fd5b505af1158015613b3f573d6000803e3d6000fd5b5060009250613b4c915050565b8160e00151935093505050935093915050565b6040516001600160a01b0383169082156108fc029083906000818181858888f19350505050158015611b44573d6000803e3d6000fd5b6000821580613ba2575081155b613bdd5760405162461bcd60e51b8152600401808060200182810382526034815260200180614d256034913960400191505060405180910390fd5b613be5614a47565b613bed6125d2565b6040830181905260208301826003811115613c0457fe5b6003811115613c0f57fe5b9052506000905081602001516003811115613c2657fe5b14613c4a57613c426009602b8360200151600381111561191557fe5b9150506112a1565b8315613ccb576060810184905260408051602081018252908201518152613c719085612991565b6080830181905260208301826003811115613c8857fe5b6003811115613c9357fe5b9052506000905081602001516003811115613caa57fe5b14613cc657613c42600960298360200151600381111561191557fe5b613d44565b613ce78360405180602001604052808460400151815250613666565b6060830181905260208301826003811115613cfe57fe5b6003811115613d0957fe5b9052506000905081602001516003811115613d2057fe5b14613d3c57613c426009602a8360200151600381111561191557fe5b608081018390525b60055460608201516040805163eabe7d9160e01b81523060048201526001600160a01b03898116602483015260448201939093529051600093929092169163eabe7d919160648082019260209290919082900301818787803b158015613da957600080fd5b505af1158015613dbd573d6000803e3d6000fd5b505050506040513d6020811015613dd357600080fd5b505190508015613df357613dea6003602883612efe565b925050506112a1565b613dfb612cfa565b60095414613e0f57613dea600a602c61210c565b613e1f600d548360600151612e73565b60a0840181905260208401826003811115613e3657fe5b6003811115613e4157fe5b9052506000905082602001516003811115613e5857fe5b14613e7457613dea6009602e8460200151600381111561191557fe5b6001600160a01b0386166000908152600e60205260409020546060830151613e9c9190612e73565b60c0840181905260208401826003811115613eb357fe5b6003811115613ebe57fe5b9052506000905082602001516003811115613ed557fe5b14613ef157613dea6009602d8460200151600381111561191557fe5b8160800151613efe6129e4565b1015613f1057613dea600e602f61210c565b613f1e868360800151613b5f565b60a0820151600d5560c08201516001600160a01b0387166000818152600e6020908152604091829020939093556060850151815190815290513093600080516020614c44833981519152928290030190a36080820151606080840151604080516001600160a01b038b168152602081019490945283810191909152517fe5b754fb1abb7f01b499791d0b820ae3b6af3424ac1c59768edb53f4ec31a9299281900390910190a160055460808301516060840151604080516351dff98960e01b81523060048201526001600160a01b038b81166024830152604482019490945260648101929092525191909216916351dff98991608480830192600092919082900301818387803b15801561403157600080fd5b505af1158015614045573d6000803e3d6000fd5b5060009250614052915050565b9695505050505050565b6000808361406f575060009050806125cb565b8383028385828161407c57fe5b0414614090575060029150600090506125cb565b6000925090506125cb565b600080826140af57506001905060006125cb565b60008385816140ba57fe5b04915091509250929050565b60055460408051632fe3f38f60e11b81523060048201526001600160a01b0384811660248301528781166044830152868116606483015260848201869052915160009384938493911691635fc7e71e9160a48082019260209290919082900301818787803b15801561413757600080fd5b505af115801561414b573d6000803e3d6000fd5b505050506040513d602081101561416157600080fd5b505190508015614185576141786003601283612efe565b9250600091506146409050565b61418d612cfa565b600954146141a157614178600a601661210c565b6141a9612cfa565b846001600160a01b0316636c540baf6040518163ffffffff1660e01b815260040160206040518083038186803b1580156141e257600080fd5b505afa1580156141f6573d6000803e3d6000fd5b505050506040513d602081101561420c57600080fd5b50511461421f57614178600a601161210c565b866001600160a01b0316866001600160a01b03161415614245576141786006601761210c565b84614256576141786007601561210c565b60001985141561426c576141786007601461210c565b60008061427a89898961377a565b909250905081156142aa5761429b82601081111561429457fe5b601861210c565b94506000935061464092505050565b6005546040805163c488847b60e01b81523060048201526001600160a01b038981166024830152604482018590528251600094859492169263c488847b926064808301939192829003018186803b15801561430457600080fd5b505afa158015614318573d6000803e3d6000fd5b505050506040513d604081101561432e57600080fd5b508051602090910151909250905081156143795760405162461bcd60e51b8152600401808060200182810382526033815260200180614c956033913960400191505060405180910390fd5b80886001600160a01b03166370a082318c6040518263ffffffff1660e01b815260040180826001600160a01b03166001600160a01b0316815260200191505060206040518083038186803b1580156143d057600080fd5b505afa1580156143e4573d6000803e3d6000fd5b505050506040513d60208110156143fa57600080fd5b5051101561444f576040805162461bcd60e51b815260206004820152601860248201527f4c49515549444154455f5345495a455f544f4f5f4d5543480000000000000000604482015290519081900360640190fd5b60006001600160a01b0389163014156144755761446e308d8d85613118565b90506144ff565b6040805163b2a02ff160e01b81526001600160a01b038e811660048301528d81166024830152604482018590529151918b169163b2a02ff1916064808201926020929091908290030181600087803b1580156144d057600080fd5b505af11580156144e4573d6000803e3d6000fd5b505050506040513d60208110156144fa57600080fd5b505190505b8015614549576040805162461bcd60e51b81526020600482015260146024820152731d1bdad95b881cd95a5e9d5c994819985a5b195960621b604482015290519081900360640190fd5b604080516001600160a01b03808f168252808e1660208301528183018790528b1660608201526080810184905290517f298637f684da70674f26509b10f07ec2fbc77a335ab1e7d6215a4b2484d8bb529181900360a00190a1600554604080516347ef3b3b60e01b81523060048201526001600160a01b038c811660248301528f811660448301528e811660648301526084820188905260a48201869052915191909216916347ef3b3b9160c480830192600092919082900301818387803b15801561461457600080fd5b505af1158015614628573d6000803e3d6000fd5b5060009250614635915050565b975092955050505050505b94509492505050565b6005546040805163368f515360e21b81523060048201526001600160a01b0385811660248301526044820185905291516000938493169163da3d454c91606480830192602092919082900301818787803b1580156146a657600080fd5b505af11580156146ba573d6000803e3d6000fd5b505050506040513d60208110156146d057600080fd5b5051905080156146ef576146e76003600e83612efe565b915050610e8f565b6146f7612cfa565b6009541461470a576146e7600a8061210c565b826147136129e4565b1015614725576146e7600e600961210c565b61472d614acb565b61473685612c46565b602083018190528282600381111561474a57fe5b600381111561475557fe5b905250600090508151600381111561476957fe5b1461478e57614785600960078360000151600381111561191557fe5b92505050610e8f565b61479c816020015185612f64565b60408301819052828260038111156147b057fe5b60038111156147bb57fe5b90525060009050815160038111156147cf57fe5b146147eb576147856009600c8360000151600381111561191557fe5b6147f7600b5485612f64565b606083018190528282600381111561480b57fe5b600381111561481657fe5b905250600090508151600381111561482a57fe5b14614846576147856009600b8360000151600381111561191557fe5b6148508585613b5f565b604080820180516001600160a01b03881660008181526010602090815290859020928355600a54600190930192909255606080860151600b81905593518551928352928201899052818501929092529081019190915290517f13ed6866d4e1ee6da46f845c46d7e54120883d75c5ea9a2dacc1c4ca8984ab809181900360800190a160055460408051635c77860560e01b81523060048201526001600160a01b0388811660248301526044820188905291519190921691635c77860591606480830192600092919082900301818387803b15801561492d57600080fd5b505af1158015614941573d6000803e3d6000fd5b506000925061494e915050565b95945050505050565b60006149616149b6565b600080614976670de0b6b3a76400008761405c565b9092509050600082600381111561498957fe5b146149a8575060408051602081019091526000815290925090506125cb565b6129d78186600001516136bb565b6040518060200160405280600081525090565b828054600181600116156101000203166002900490600052602060002090601f016020900481019282601f10614a0a57805160ff1916838001178555614a37565b82800160010185558215614a37579182015b82811115614a37578251825591602001919060010190614a1c565b50614a43929150614af4565b5090565b6040805160e0810190915280600081526020016000815260200160008152602001600081526020016000815260200160008152602001600081525090565b6040805161010081019091528060008152602001600081526020016000815260200160008152602001600081526020016000815260200160008152602001600081525090565b604080516080810190915280600081526020016000815260200160008152602001600081525090565b610fff91905b80821115614a435760008155600101614afa56fe6f6e6c792061646d696e206d617920696e697469616c697a6520746865206d61726b65746d61726b6574206d6179206f6e6c7920626520696e697469616c697a6564206f6e6365696e697469616c2065786368616e67652072617465206d7573742062652067726561746572207468616e207a65726f2e73657474696e6720696e7465726573742072617465206d6f64656c206661696c65644d494e545f4e45575f4143434f554e545f42414c414e43455f43414c43554c4154494f4e5f4641494c4544626f72726f7742616c616e636553746f7265643a20626f72726f7742616c616e636553746f726564496e7465726e616c206661696c656452455041595f424f52524f575f4e45575f4143434f554e545f424f52524f575f42414c414e43455f43414c43554c4154494f4e5f4641494c4544ddf252ad1be2c89b69c2b068fc378daa952ba7f163c4a11628f55a4df523b3ef52455041595f424f52524f575f4e45575f544f54414c5f42414c414e43455f43414c43554c4154494f4e5f4641494c45444c49515549444154455f434f4d5054524f4c4c45525f43414c43554c4154455f414d4f554e545f5345495a455f4641494c454465786368616e67655261746553746f7265643a2065786368616e67655261746553746f726564496e7465726e616c206661696c65644d494e545f4e45575f544f54414c5f535550504c595f43414c43554c4154494f4e5f4641494c45446f6e65206f662072656465656d546f6b656e73496e206f722072656465656d416d6f756e74496e206d757374206265207a65726f72656475636520726573657276657320756e657870656374656420756e646572666c6f77a265627a7a72315820910696cb21da950fcaf6d3b234536e7c02633c9e0f57c1c9f027d43598237ac864736f6c634300051000326f6e6c792061646d696e206d617920696e697469616c697a6520746865206d61726b65746d61726b6574206d6179206f6e6c7920626520696e697469616c697a6564206f6e6365696e697469616c2065786368616e67652072617465206d7573742062652067726561746572207468616e207a65726f2e73657474696e6720696e7465726573742072617465206d6f64656c206661696c6564",
  "devdoc": {
    "author": "Compound",
    "methods": {
      "_acceptAdmin()": {
        "details": "Admin function for pending admin to accept role and update admin",
        "return": "uint 0=success, otherwise a failure (see ErrorReporter.sol for details)"
      },
      "_reduceReserves(uint256)": {
        "params": {
          "reduceAmount": "Amount of reduction to reserves"
        },
        "return": "uint 0=success, otherwise a failure (see ErrorReporter.sol for details)"
      },
      "_setComptroller(address)": {
        "details": "Admin function to set a new comptroller",
        "return": "uint 0=success, otherwise a failure (see ErrorReporter.sol for details)"
      },
      "_setInterestRateModel(address)": {
        "details": "Admin function to accrue interest and update the interest rate model",
        "params": {
          "newInterestRateModel": "the new interest rate model to use"
        },
        "return": "uint 0=success, otherwise a failure (see ErrorReporter.sol for details)"
      },
      "_setPendingAdmin(address)": {
        "details": "Admin function to begin change of admin. The newPendingAdmin must call `_acceptAdmin` to finalize the transfer.",
        "params": {
          "newPendingAdmin": "New pending admin."
        },
        "return": "uint 0=success, otherwise a failure (see ErrorReporter.sol for details)"
      },
      "_setReserveFactor(uint256)": {
        "details": "Admin function to accrue interest and set a new reserve factor",
        "return": "uint 0=success, otherwise a failure (see ErrorReporter.sol for details)"
      },
      "accrueInterest()": {
        "details": "This calculates interest accrued from the last checkpointed block  up to the current block and writes new checkpoint to storage."
      },
      "allowance(address,address)": {
        "params": {
          "owner": "The address of the account which owns the tokens to be spent",
          "spender": "The address of the account which may transfer tokens"
        },
        "return": "The number of tokens allowed to be spent (-1 means infinite)"
      },
      "approve(address,uint256)": {
        "details": "This will overwrite the approval amount for `spender` and is subject to issues noted [here](https://eips.ethereum.org/EIPS/eip-20#approve)",
        "params": {
          "amount": "The number of tokens that are approved (-1 means infinite)",
          "spender": "The address of the account which may transfer tokens"
        },
        "return": "Whether or not the approval succeeded"
      },
      "balanceOf(address)": {
        "params": {
          "owner": "The address of the account to query"
        },
        "return": "The number of tokens owned by `owner`"
      },
      "balanceOfUnderlying(address)": {
        "details": "This also accrues interest in a transaction",
        "params": {
          "owner": "The address of the account to query"
        },
        "return": "The amount of underlying owned by `owner`"
      },
      "borrow(uint256)": {
        "params": {
          "borrowAmount": "The amount of the underlying asset to borrow"
        },
        "return": "uint 0=success, otherwise a failure (see ErrorReporter.sol for details)"
      },
      "borrowBalanceCurrent(address)": {
        "params": {
          "account": "The address whose balance should be calculated after updating borrowIndex"
        },
        "return": "The calculated balance"
      },
      "borrowBalanceStored(address)": {
        "params": {
          "account": "The address whose balance should be calculated"
        },
        "return": "The calculated balance"
      },
      "borrowRatePerBlock()": {
        "return": "The borrow interest rate per block, scaled by 1e18"
      },
      "constructor": {
        "params": {
          "admin_": "Address of the administrator of this token",
          "comptroller_": "The address of the Comptroller",
          "decimals_": "ERC-20 decimal precision of this token",
          "initialExchangeRateMantissa_": "The initial exchange rate, scaled by 1e18",
          "interestRateModel_": "The address of the interest rate model",
          "name_": "ERC-20 name of this token",
          "symbol_": "ERC-20 symbol of this token",
          "underlying_": "The address of the underlying asset"
        }
      },
      "exchangeRateCurrent()": {
        "return": "Calculated exchange rate scaled by 1e18"
      },
      "exchangeRateStored()": {
        "details": "This function does not accrue interest before calculating the exchange rate",
        "return": "Calculated exchange rate scaled by 1e18"
      },
      "getAccountSnapshot(address)": {
        "details": "This is used by comptroller to more efficiently perform liquidity checks.",
        "params": {
          "account": "Address of the account to snapshot"
        },
        "return": "(possible error, token balance, borrow balance, exchange rate mantissa)"
      },
      "getCash()": {
        "return": "The quantity of underlying asset owned by this contract"
      },
      "initialize(address,address,uint256,string,string,uint8)": {
        "params": {
          "comptroller_": "The address of the Comptroller",
          "decimals_": "EIP-20 decimal precision of this token",
          "initialExchangeRateMantissa_": "The initial exchange rate, scaled by 1e18",
          "interestRateModel_": "The address of the interest rate model",
          "name_": "EIP-20 name of this token",
          "symbol_": "EIP-20 symbol of this token"
        }
      },
      "liquidateBorrow(address,address)": {
        "details": "Reverts upon any failure",
        "params": {
          "borrower": "The borrower of this cToken to be liquidated",
          "cTokenCollateral": "The market in which to seize collateral from the borrower"
        }
      },
      "mint()": {
        "details": "Reverts upon any failure"
      },
      "redeem(uint256)": {
        "details": "Accrues interest whether or not the operation succeeds, unless reverted",
        "params": {
          "redeemTokens": "The number of cTokens to redeem into underlying"
        },
        "return": "uint 0=success, otherwise a failure (see ErrorReporter.sol for details)"
      },
      "redeemUnderlying(uint256)": {
        "details": "Accrues interest whether or not the operation succeeds, unless reverted",
        "params": {
          "redeemAmount": "The amount of underlying to redeem"
        },
        "return": "uint 0=success, otherwise a failure (see ErrorReporter.sol for details)"
      },
      "repayBorrow()": {
        "details": "Reverts upon any failure"
      },
      "repayBorrowBehalf(address)": {
        "details": "Reverts upon any failure",
        "params": {
          "borrower": "the account with the debt being payed off"
        }
      },
      "seize(address,address,uint256)": {
        "details": "Will fail unless called by another cToken during the process of liquidation. Its absolutely critical to use msg.sender as the borrowed cToken and not a parameter.",
        "params": {
          "borrower": "The account having collateral seized",
          "liquidator": "The account receiving seized collateral",
          "seizeTokens": "The number of cTokens to seize"
        },
        "return": "uint 0=success, otherwise a failure (see ErrorReporter.sol for details)"
      },
      "supplyRatePerBlock()": {
        "return": "The supply interest rate per block, scaled by 1e18"
      },
      "totalBorrowsCurrent()": {
        "return": "The total borrows with interest"
      },
      "transfer(address,uint256)": {
        "params": {
          "amount": "The number of tokens to transfer",
          "dst": "The address of the destination account"
        },
        "return": "Whether or not the transfer succeeded"
      },
      "transferFrom(address,address,uint256)": {
        "params": {
          "amount": "The number of tokens to transfer",
          "dst": "The address of the destination account",
          "src": "The address of the source account"
        },
        "return": "Whether or not the transfer succeeded"
      }
    },
    "title": "Compound's CEther Contract"
  },
  "userdoc": {
    "methods": {
      "_acceptAdmin()": {
        "notice": "Accepts transfer of admin rights. msg.sender must be pendingAdmin"
      },
      "_reduceReserves(uint256)": {
        "notice": "Accrues interest and reduces reserves by transferring to admin"
      },
      "_setComptroller(address)": {
        "notice": "Sets a new comptroller for the market"
      },
      "_setInterestRateModel(address)": {
        "notice": "accrues interest and updates the interest rate model using _setInterestRateModelFresh"
      },
      "_setPendingAdmin(address)": {
        "notice": "Begins transfer of admin rights. The newPendingAdmin must call `_acceptAdmin` to finalize the transfer."
      },
      "_setReserveFactor(uint256)": {
        "notice": "accrues interest and sets a new reserve factor for the protocol using _setReserveFactorFresh"
      },
      "accrueInterest()": {
        "notice": "Applies accrued interest to total borrows and reserves"
      },
      "allowance(address,address)": {
        "notice": "Get the current allowance from `owner` for `spender`"
      },
      "approve(address,uint256)": {
        "notice": "Approve `spender` to transfer up to `amount` from `src`"
      },
      "balanceOf(address)": {
        "notice": "Get the token balance of the `owner`"
      },
      "balanceOfUnderlying(address)": {
        "notice": "Get the underlying balance of the `owner`"
      },
      "borrow(uint256)": {
        "notice": "Sender borrows assets from the protocol to their own address"
      },
      "borrowBalanceCurrent(address)": {
        "notice": "Accrue interest to updated borrowIndex and then calculate account's borrow balance using the updated borrowIndex"
      },
      "borrowBalanceStored(address)": {
        "notice": "Return the borrow balance of account based on stored data"
      },
      "borrowRatePerBlock()": {
        "notice": "Returns the current per-block borrow interest rate for this cToken"
      },
      "constructor": "Construct a new CEther money market",
      "exchangeRateCurrent()": {
        "notice": "Accrue interest then return the up-to-date exchange rate"
      },
      "exchangeRateStored()": {
        "notice": "Calculates the exchange rate from the underlying to the CToken"
      },
      "getAccountSnapshot(address)": {
        "notice": "Get a snapshot of the account's balances, and the cached exchange rate"
      },
      "getCash()": {
        "notice": "Get cash balance of this cToken in the underlying asset"
      },
      "initialize(address,address,uint256,string,string,uint8)": {
        "notice": "Initialize the money market"
      },
      "liquidateBorrow(address,address)": {
        "notice": "The sender liquidates the borrowers collateral. The collateral seized is transferred to the liquidator."
      },
      "mint()": {
        "notice": "Sender supplies assets into the market and receives cTokens in exchange"
      },
      "redeem(uint256)": {
        "notice": "Sender redeems cTokens in exchange for the underlying asset"
      },
      "redeemUnderlying(uint256)": {
        "notice": "Sender redeems cTokens in exchange for a specified amount of underlying asset"
      },
      "repayBorrow()": {
        "notice": "Sender repays their own borrow"
      },
      "repayBorrowBehalf(address)": {
        "notice": "Sender repays a borrow belonging to borrower"
      },
      "seize(address,address,uint256)": {
        "notice": "Transfers collateral tokens (this market) to the liquidator."
      },
      "supplyRatePerBlock()": {
        "notice": "Returns the current per-block supply interest rate for this cToken"
      },
      "totalBorrowsCurrent()": {
        "notice": "Returns the current total borrows plus accrued interest"
      },
      "transfer(address,uint256)": {
        "notice": "Transfer `amount` tokens from `msg.sender` to `dst`"
      },
      "transferFrom(address,address,uint256)": {
        "notice": "Transfer `amount` tokens from `src` to `dst`"
      }
    },
    "notice": "CToken which wraps Ether"
  },
  "storageLayout": {
    "storage": [
      {
        "astId": 5463,
        "contract": "contracts/CEther.sol:CEther",
        "label": "_notEntered",
        "offset": 0,
        "slot": "0",
        "type": "t_bool"
      },
      {
        "astId": 5465,
        "contract": "contracts/CEther.sol:CEther",
        "label": "name",
        "offset": 0,
        "slot": "1",
        "type": "t_string_storage"
      },
      {
        "astId": 5467,
        "contract": "contracts/CEther.sol:CEther",
        "label": "symbol",
        "offset": 0,
        "slot": "2",
        "type": "t_string_storage"
      },
      {
        "astId": 5469,
        "contract": "contracts/CEther.sol:CEther",
        "label": "decimals",
        "offset": 0,
        "slot": "3",
        "type": "t_uint8"
      },
      {
        "astId": 5477,
        "contract": "contracts/CEther.sol:CEther",
        "label": "admin",
        "offset": 1,
        "slot": "3",
        "type": "t_address_payable"
      },
      {
        "astId": 5479,
        "contract": "contracts/CEther.sol:CEther",
        "label": "pendingAdmin",
        "offset": 0,
        "slot": "4",
        "type": "t_address_payable"
      },
      {
        "astId": 5481,
        "contract": "contracts/CEther.sol:CEther",
        "label": "comptroller",
        "offset": 0,
        "slot": "5",
        "type": "t_contract(ComptrollerInterface)20803"
      },
      {
        "astId": 5483,
        "contract": "contracts/CEther.sol:CEther",
        "label": "interestRateModel",
        "offset": 0,
        "slot": "6",
        "type": "t_contract(InterestRateModel)25138"
      },
      {
        "astId": 5485,
        "contract": "contracts/CEther.sol:CEther",
        "label": "initialExchangeRateMantissa",
        "offset": 0,
        "slot": "7",
        "type": "t_uint256"
      },
      {
        "astId": 5487,
        "contract": "contracts/CEther.sol:CEther",
        "label": "reserveFactorMantissa",
        "offset": 0,
        "slot": "8",
        "type": "t_uint256"
      },
      {
        "astId": 5489,
        "contract": "contracts/CEther.sol:CEther",
        "label": "accrualBlockNumber",
        "offset": 0,
        "slot": "9",
        "type": "t_uint256"
      },
      {
        "astId": 5491,
        "contract": "contracts/CEther.sol:CEther",
        "label": "borrowIndex",
        "offset": 0,
        "slot": "10",
        "type": "t_uint256"
      },
      {
        "astId": 5493,
        "contract": "contracts/CEther.sol:CEther",
        "label": "totalBorrows",
        "offset": 0,
        "slot": "11",
        "type": "t_uint256"
      },
      {
        "astId": 5495,
        "contract": "contracts/CEther.sol:CEther",
        "label": "totalReserves",
        "offset": 0,
        "slot": "12",
        "type": "t_uint256"
      },
      {
        "astId": 5497,
        "contract": "contracts/CEther.sol:CEther",
        "label": "totalSupply",
        "offset": 0,
        "slot": "13",
        "type": "t_uint256"
      },
      {
        "astId": 5501,
        "contract": "contracts/CEther.sol:CEther",
        "label": "accountTokens",
        "offset": 0,
        "slot": "14",
        "type": "t_mapping(t_address,t_uint256)"
      },
      {
        "astId": 5507,
        "contract": "contracts/CEther.sol:CEther",
        "label": "transferAllowances",
        "offset": 0,
        "slot": "15",
        "type": "t_mapping(t_address,t_mapping(t_address,t_uint256))"
      },
      {
        "astId": 5516,
        "contract": "contracts/CEther.sol:CEther",
        "label": "accountBorrows",
        "offset": 0,
        "slot": "16",
        "type": "t_mapping(t_address,t_struct(BorrowSnapshot)5512_storage)"
      },
      {
        "astId": 5820,
        "contract": "contracts/CEther.sol:CEther",
        "label": "underlying",
        "offset": 0,
        "slot": "17",
        "type": "t_address"
      }
    ],
    "types": {
      "t_address": {
        "encoding": "inplace",
        "label": "address",
        "numberOfBytes": "20"
      },
      "t_address_payable": {
        "encoding": "inplace",
        "label": "address payable",
        "numberOfBytes": "20"
      },
      "t_bool": {
        "encoding": "inplace",
        "label": "bool",
        "numberOfBytes": "1"
      },
      "t_contract(ComptrollerInterface)20803": {
        "encoding": "inplace",
        "label": "contract ComptrollerInterface",
        "numberOfBytes": "20"
      },
      "t_contract(InterestRateModel)25138": {
        "encoding": "inplace",
        "label": "contract InterestRateModel",
        "numberOfBytes": "20"
      },
      "t_mapping(t_address,t_mapping(t_address,t_uint256))": {
        "encoding": "mapping",
        "key": "t_address",
        "label": "mapping(address => mapping(address => uint256))",
        "numberOfBytes": "32",
        "value": "t_mapping(t_address,t_uint256)"
      },
      "t_mapping(t_address,t_struct(BorrowSnapshot)5512_storage)": {
        "encoding": "mapping",
        "key": "t_address",
        "label": "mapping(address => struct CTokenStorage.BorrowSnapshot)",
        "numberOfBytes": "32",
        "value": "t_struct(BorrowSnapshot)5512_storage"
      },
      "t_mapping(t_address,t_uint256)": {
        "encoding": "mapping",
        "key": "t_address",
        "label": "mapping(address => uint256)",
        "numberOfBytes": "32",
        "value": "t_uint256"
      },
      "t_string_storage": {
        "encoding": "bytes",
        "label": "string",
        "numberOfBytes": "32"
      },
      "t_struct(BorrowSnapshot)5512_storage": {
        "encoding": "inplace",
        "label": "struct CTokenStorage.BorrowSnapshot",
        "members": [
          {
            "astId": 5509,
            "contract": "contracts/CEther.sol:CEther",
            "label": "principal",
            "offset": 0,
            "slot": "0",
            "type": "t_uint256"
          },
          {
            "astId": 5511,
            "contract": "contracts/CEther.sol:CEther",
            "label": "interestIndex",
            "offset": 0,
            "slot": "1",
            "type": "t_uint256"
          }
        ],
        "numberOfBytes": "64"
      },
      "t_uint256": {
        "encoding": "inplace",
        "label": "uint256",
        "numberOfBytes": "32"
      },
      "t_uint8": {
        "encoding": "inplace",
        "label": "uint8",
        "numberOfBytes": "1"
      }
    }
  }
}