{
  "address": "0xe35D9Dd887bcea337cB483A5c2cDe5389A753EEb",
  "abi": [
    {
      "anonymous": false,
      "inputs": [
        {
          "indexed": false,
          "internalType": "address",
          "name": "recipient",
          "type": "address"
        },
        {
          "indexed": false,
          "internalType": "uint256",
          "name": "amount",
          "type": "uint256"
        }
      ],
      "name": "CompGranted",
      "type": "event"
    },
    {
      "anonymous": false,
      "inputs": [
        {
          "indexed": true,
          "internalType": "contract CToken",
          "name": "cToken",
          "type": "address"
        },
        {
          "indexed": false,
          "internalType": "uint256",
          "name": "newSpeed",
          "type": "uint256"
        }
      ],
      "name": "CompSpeedUpdated",
      "type": "event"
    },
    {
      "anonymous": false,
      "inputs": [
        {
          "indexed": true,
          "internalType": "address",
          "name": "contributor",
          "type": "address"
        },
        {
          "indexed": false,
          "internalType": "uint256",
          "name": "newSpeed",
          "type": "uint256"
        }
      ],
      "name": "ContributorCompSpeedUpdated",
      "type": "event"
    },
    {
      "anonymous": false,
      "inputs": [
        {
          "indexed": false,
          "internalType": "address",
          "name": "key",
          "type": "address"
        },
        {
          "indexed": true,
          "internalType": "contract CToken",
          "name": "cToken",
          "type": "address"
        },
        {
          "indexed": true,
          "internalType": "address",
          "name": "borrower",
          "type": "address"
        },
        {
          "indexed": false,
          "internalType": "uint256",
          "name": "compDelta",
          "type": "uint256"
        },
        {
          "indexed": false,
          "internalType": "uint256",
          "name": "compBorrowIndex",
          "type": "uint256"
        }
      ],
      "name": "DistributedBorrowerClaimComp",
      "type": "event"
    },
    {
      "anonymous": false,
      "inputs": [
        {
          "indexed": true,
          "internalType": "contract CToken",
          "name": "cToken",
          "type": "address"
        },
        {
          "indexed": true,
          "internalType": "address",
          "name": "borrower",
          "type": "address"
        },
        {
          "indexed": false,
          "internalType": "uint256",
          "name": "compDelta",
          "type": "uint256"
        },
        {
          "indexed": false,
          "internalType": "uint256",
          "name": "compBorrowIndex",
          "type": "uint256"
        }
      ],
      "name": "DistributedBorrowerComp",
      "type": "event"
    },
    {
      "anonymous": false,
      "inputs": [
        {
          "indexed": false,
          "internalType": "address",
          "name": "key",
          "type": "address"
        },
        {
          "indexed": true,
          "internalType": "contract CToken",
          "name": "cToken",
          "type": "address"
        },
        {
          "indexed": true,
          "internalType": "address",
          "name": "supplier",
          "type": "address"
        },
        {
          "indexed": false,
          "internalType": "uint256",
          "name": "compDelta",
          "type": "uint256"
        },
        {
          "indexed": false,
          "internalType": "uint256",
          "name": "compSupplyIndex",
          "type": "uint256"
        }
      ],
      "name": "DistributedSupplierClaimComp",
      "type": "event"
    },
    {
      "anonymous": false,
      "inputs": [
        {
          "indexed": true,
          "internalType": "contract CToken",
          "name": "cToken",
          "type": "address"
        },
        {
          "indexed": true,
          "internalType": "address",
          "name": "supplier",
          "type": "address"
        },
        {
          "indexed": false,
          "internalType": "uint256",
          "name": "compDelta",
          "type": "uint256"
        },
        {
          "indexed": false,
          "internalType": "uint256",
          "name": "compSupplyIndex",
          "type": "uint256"
        }
      ],
      "name": "DistributedSupplierComp",
      "type": "event"
    },
    {
      "anonymous": false,
      "inputs": [
        {
          "indexed": false,
          "internalType": "uint256",
          "name": "error",
          "type": "uint256"
        },
        {
          "indexed": false,
          "internalType": "uint256",
          "name": "info",
          "type": "uint256"
        },
        {
          "indexed": false,
          "internalType": "uint256",
          "name": "detail",
          "type": "uint256"
        }
      ],
      "name": "Failure",
      "type": "event"
    },
    {
      "constant": false,
      "inputs": [
        {
          "internalType": "address",
          "name": "key_",
          "type": "address"
        },
        {
          "internalType": "address",
          "name": "token_",
          "type": "address"
        },
        {
          "internalType": "address",
          "name": "pool_",
          "type": "address"
        },
        {
          "internalType": "bytes",
          "name": "method_",
          "type": "bytes"
        }
      ],
      "name": "_addClaimInfo",
      "outputs": [
        {
          "internalType": "uint256",
          "name": "",
          "type": "uint256"
        }
      ],
      "payable": false,
      "stateMutability": "nonpayable",
      "type": "function"
    },
    {
      "constant": false,
      "inputs": [
        {
          "internalType": "address",
          "name": "key_",
          "type": "address"
        },
        {
          "internalType": "address[]",
          "name": "markets_",
          "type": "address[]"
        },
        {
          "internalType": "uint256[]",
          "name": "allocPoint_",
          "type": "uint256[]"
        },
        {
          "internalType": "uint256[]",
          "name": "borrowRate_",
          "type": "uint256[]"
        }
      ],
      "name": "_addMarketToClaimInfo",
      "outputs": [
        {
          "internalType": "uint256",
          "name": "",
          "type": "uint256"
        }
      ],
      "payable": false,
      "stateMutability": "nonpayable",
      "type": "function"
    },
    {
      "constant": true,
      "inputs": [],
      "name": "_borrowGuardianPaused",
      "outputs": [
        {
          "internalType": "bool",
          "name": "",
          "type": "bool"
        }
      ],
      "payable": false,
      "stateMutability": "view",
      "type": "function"
    },
    {
      "constant": false,
      "inputs": [
        {
          "internalType": "address",
          "name": "key_",
          "type": "address"
        }
      ],
      "name": "_delClaimInfo",
      "outputs": [
        {
          "internalType": "uint256",
          "name": "",
          "type": "uint256"
        }
      ],
      "payable": false,
      "stateMutability": "nonpayable",
      "type": "function"
    },
    {
      "constant": false,
      "inputs": [
        {
          "internalType": "address",
          "name": "key_",
          "type": "address"
        },
        {
          "internalType": "address[]",
          "name": "markets_",
          "type": "address[]"
        }
      ],
      "name": "_delMarketToClaimInfo",
      "outputs": [
        {
          "internalType": "uint256",
          "name": "",
          "type": "uint256"
        }
      ],
      "payable": false,
      "stateMutability": "nonpayable",
      "type": "function"
    },
    {
      "constant": false,
      "inputs": [
        {
          "internalType": "address",
          "name": "recipient",
          "type": "address"
        },
        {
          "internalType": "uint256",
          "name": "amount",
          "type": "uint256"
        }
      ],
      "name": "_grantComp",
      "outputs": [],
      "payable": false,
      "stateMutability": "nonpayable",
      "type": "function"
    },
    {
      "constant": true,
      "inputs": [],
      "name": "_mintGuardianPaused",
      "outputs": [
        {
          "internalType": "bool",
          "name": "",
          "type": "bool"
        }
      ],
      "payable": false,
      "stateMutability": "view",
      "type": "function"
    },
    {
      "constant": false,
      "inputs": [
        {
          "internalType": "contract CToken",
          "name": "cToken",
          "type": "address"
        },
        {
          "internalType": "uint256",
          "name": "compSpeed",
          "type": "uint256"
        }
      ],
      "name": "_setCompSpeed",
      "outputs": [],
      "payable": false,
      "stateMutability": "nonpayable",
      "type": "function"
    },
    {
      "constant": true,
      "inputs": [
        {
          "internalType": "address",
          "name": "",
          "type": "address"
        },
        {
          "internalType": "uint256",
          "name": "",
          "type": "uint256"
        }
      ],
      "name": "accountAssets",
      "outputs": [
        {
          "internalType": "contract CToken",
          "name": "",
          "type": "address"
        }
      ],
      "payable": false,
      "stateMutability": "view",
      "type": "function"
    },
    {
      "constant": true,
      "inputs": [],
      "name": "admin",
      "outputs": [
        {
          "internalType": "address",
          "name": "",
          "type": "address"
        }
      ],
      "payable": false,
      "stateMutability": "view",
      "type": "function"
    },
    {
      "constant": true,
      "inputs": [
        {
          "internalType": "uint256",
          "name": "",
          "type": "uint256"
        }
      ],
      "name": "allMarkets",
      "outputs": [
        {
          "internalType": "contract CToken",
          "name": "",
          "type": "address"
        }
      ],
      "payable": false,
      "stateMutability": "view",
      "type": "function"
    },
    {
      "constant": true,
      "inputs": [],
      "name": "borrowCapGuardian",
      "outputs": [
        {
          "internalType": "address",
          "name": "",
          "type": "address"
        }
      ],
      "payable": false,
      "stateMutability": "view",
      "type": "function"
    },
    {
      "constant": true,
      "inputs": [
        {
          "internalType": "address",
          "name": "",
          "type": "address"
        }
      ],
      "name": "borrowCaps",
      "outputs": [
        {
          "internalType": "uint256",
          "name": "",
          "type": "uint256"
        }
      ],
      "payable": false,
      "stateMutability": "view",
      "type": "function"
    },
    {
      "constant": true,
      "inputs": [
        {
          "internalType": "address",
          "name": "",
          "type": "address"
        }
      ],
      "name": "borrowGuardianPaused",
      "outputs": [
        {
          "internalType": "bool",
          "name": "",
          "type": "bool"
        }
      ],
      "payable": false,
      "stateMutability": "view",
      "type": "function"
    },
    {
      "constant": false,
      "inputs": [
        {
          "internalType": "address",
          "name": "holder",
          "type": "address"
        }
      ],
      "name": "claim",
      "outputs": [],
      "payable": false,
      "stateMutability": "nonpayable",
      "type": "function"
    },
    {
      "constant": true,
      "inputs": [
        {
          "internalType": "address",
          "name": "",
          "type": "address"
        },
        {
          "internalType": "address",
          "name": "",
          "type": "address"
        }
      ],
      "name": "claimAccrued",
      "outputs": [
        {
          "internalType": "uint256",
          "name": "",
          "type": "uint256"
        }
      ],
      "payable": false,
      "stateMutability": "view",
      "type": "function"
    },
    {
      "constant": false,
      "inputs": [
        {
          "internalType": "address",
          "name": "holder",
          "type": "address"
        },
        {
          "internalType": "contract CToken[]",
          "name": "cTokens",
          "type": "address[]"
        }
      ],
      "name": "claimAllComp",
      "outputs": [],
      "payable": false,
      "stateMutability": "nonpayable",
      "type": "function"
    },
    {
      "constant": false,
      "inputs": [
        {
          "internalType": "address[]",
          "name": "holders",
          "type": "address[]"
        },
        {
          "internalType": "contract CToken[]",
          "name": "cTokens",
          "type": "address[]"
        },
        {
          "internalType": "bool",
          "name": "borrowers",
          "type": "bool"
        },
        {
          "internalType": "bool",
          "name": "suppliers",
          "type": "bool"
        }
      ],
      "name": "claimAllUserAllComp",
      "outputs": [],
      "payable": false,
      "stateMutability": "nonpayable",
      "type": "function"
    },
    {
      "constant": false,
      "inputs": [
        {
          "internalType": "address",
          "name": "holder",
          "type": "address"
        }
      ],
      "name": "claimComp",
      "outputs": [],
      "payable": false,
      "stateMutability": "nonpayable",
      "type": "function"
    },
    {
      "constant": true,
      "inputs": [
        {
          "internalType": "address",
          "name": "",
          "type": "address"
        },
        {
          "internalType": "address",
          "name": "",
          "type": "address"
        }
      ],
      "name": "claimCompBorrowState",
      "outputs": [
        {
          "internalType": "uint224",
          "name": "index",
          "type": "uint224"
        },
        {
          "internalType": "uint32",
          "name": "block",
          "type": "uint32"
        }
      ],
      "payable": false,
      "stateMutability": "view",
      "type": "function"
    },
    {
      "constant": true,
      "inputs": [
        {
          "internalType": "address",
          "name": "",
          "type": "address"
        },
        {
          "internalType": "address",
          "name": "",
          "type": "address"
        },
        {
          "internalType": "address",
          "name": "",
          "type": "address"
        }
      ],
      "name": "claimCompBorrowerIndex",
      "outputs": [
        {
          "internalType": "uint256",
          "name": "",
          "type": "uint256"
        }
      ],
      "payable": false,
      "stateMutability": "view",
      "type": "function"
    },
    {
      "constant": true,
      "inputs": [
        {
          "internalType": "address",
          "name": "",
          "type": "address"
        },
        {
          "internalType": "address",
          "name": "",
          "type": "address"
        },
        {
          "internalType": "address",
          "name": "",
          "type": "address"
        }
      ],
      "name": "claimCompSupplierIndex",
      "outputs": [
        {
          "internalType": "uint256",
          "name": "",
          "type": "uint256"
        }
      ],
      "payable": false,
      "stateMutability": "view",
      "type": "function"
    },
    {
      "constant": true,
      "inputs": [],
      "name": "claimContract",
      "outputs": [
        {
          "internalType": "address",
          "name": "",
          "type": "address"
        }
      ],
      "payable": false,
      "stateMutability": "view",
      "type": "function"
    },
    {
      "constant": true,
      "inputs": [
        {
          "internalType": "uint256",
          "name": "",
          "type": "uint256"
        }
      ],
      "name": "claimInfoKeys",
      "outputs": [
        {
          "internalType": "address",
          "name": "",
          "type": "address"
        }
      ],
      "payable": false,
      "stateMutability": "view",
      "type": "function"
    },
    {
      "constant": true,
      "inputs": [
        {
          "internalType": "address",
          "name": "",
          "type": "address"
        }
      ],
      "name": "claimInfos",
      "outputs": [
        {
          "internalType": "uint256",
          "name": "index",
          "type": "uint256"
        },
        {
          "internalType": "address",
          "name": "token",
          "type": "address"
        },
        {
          "internalType": "address",
          "name": "pool",
          "type": "address"
        },
        {
          "internalType": "bytes",
          "name": "method",
          "type": "bytes"
        },
        {
          "internalType": "uint256",
          "name": "totalAllocPoint",
          "type": "uint256"
        }
      ],
      "payable": false,
      "stateMutability": "view",
      "type": "function"
    },
    {
      "constant": true,
      "inputs": [],
      "name": "closeFactorMantissa",
      "outputs": [
        {
          "internalType": "uint256",
          "name": "",
          "type": "uint256"
        }
      ],
      "payable": false,
      "stateMutability": "view",
      "type": "function"
    },
    {
      "constant": true,
      "inputs": [
        {
          "internalType": "address",
          "name": "",
          "type": "address"
        }
      ],
      "name": "compAccrued",
      "outputs": [
        {
          "internalType": "uint256",
          "name": "",
          "type": "uint256"
        }
      ],
      "payable": false,
      "stateMutability": "view",
      "type": "function"
    },
    {
      "constant": true,
      "inputs": [
        {
          "internalType": "address",
          "name": "",
          "type": "address"
        }
      ],
      "name": "compBorrowState",
      "outputs": [
        {
          "internalType": "uint224",
          "name": "index",
          "type": "uint224"
        },
        {
          "internalType": "uint32",
          "name": "block",
          "type": "uint32"
        }
      ],
      "payable": false,
      "stateMutability": "view",
      "type": "function"
    },
    {
      "constant": true,
      "inputs": [
        {
          "internalType": "address",
          "name": "",
          "type": "address"
        },
        {
          "internalType": "address",
          "name": "",
          "type": "address"
        }
      ],
      "name": "compBorrowerIndex",
      "outputs": [
        {
          "internalType": "uint256",
          "name": "",
          "type": "uint256"
        }
      ],
      "payable": false,
      "stateMutability": "view",
      "type": "function"
    },
    {
      "constant": true,
      "inputs": [
        {
          "internalType": "address",
          "name": "",
          "type": "address"
        }
      ],
      "name": "compContributorSpeeds",
      "outputs": [
        {
          "internalType": "uint256",
          "name": "",
          "type": "uint256"
        }
      ],
      "payable": false,
      "stateMutability": "view",
      "type": "function"
    },
    {
      "constant": true,
      "inputs": [],
      "name": "compInitialIndex",
      "outputs": [
        {
          "internalType": "uint224",
          "name": "",
          "type": "uint224"
        }
      ],
      "payable": false,
      "stateMutability": "view",
      "type": "function"
    },
    {
      "constant": true,
      "inputs": [],
      "name": "compRate",
      "outputs": [
        {
          "internalType": "uint256",
          "name": "",
          "type": "uint256"
        }
      ],
      "payable": false,
      "stateMutability": "view",
      "type": "function"
    },
    {
      "constant": true,
      "inputs": [
        {
          "internalType": "address",
          "name": "",
          "type": "address"
        }
      ],
      "name": "compSpeeds",
      "outputs": [
        {
          "internalType": "uint256",
          "name": "",
          "type": "uint256"
        }
      ],
      "payable": false,
      "stateMutability": "view",
      "type": "function"
    },
    {
      "constant": true,
      "inputs": [
        {
          "internalType": "address",
          "name": "",
          "type": "address"
        },
        {
          "internalType": "address",
          "name": "",
          "type": "address"
        }
      ],
      "name": "compSupplierIndex",
      "outputs": [
        {
          "internalType": "uint256",
          "name": "",
          "type": "uint256"
        }
      ],
      "payable": false,
      "stateMutability": "view",
      "type": "function"
    },
    {
      "constant": true,
      "inputs": [
        {
          "internalType": "address",
          "name": "",
          "type": "address"
        }
      ],
      "name": "compSupplyState",
      "outputs": [
        {
          "internalType": "uint224",
          "name": "index",
          "type": "uint224"
        },
        {
          "internalType": "uint32",
          "name": "block",
          "type": "uint32"
        }
      ],
      "payable": false,
      "stateMutability": "view",
      "type": "function"
    },
    {
      "constant": true,
      "inputs": [],
      "name": "comptrollerImplementation",
      "outputs": [
        {
          "internalType": "address",
          "name": "",
          "type": "address"
        }
      ],
      "payable": false,
      "stateMutability": "view",
      "type": "function"
    },
    {
      "constant": false,
      "inputs": [
        {
          "internalType": "address",
          "name": "key",
          "type": "address"
        },
        {
          "internalType": "address",
          "name": "cToken",
          "type": "address"
        },
        {
          "internalType": "address",
          "name": "borrower",
          "type": "address"
        }
      ],
      "name": "distributeBorrowerClaim",
      "outputs": [],
      "payable": false,
      "stateMutability": "nonpayable",
      "type": "function"
    },
    {
      "constant": false,
      "inputs": [
        {
          "internalType": "address",
          "name": "cToken",
          "type": "address"
        },
        {
          "internalType": "address",
          "name": "borrower",
          "type": "address"
        },
        {
          "internalType": "uint256",
          "name": "marketBorrowIndex_",
          "type": "uint256"
        }
      ],
      "name": "distributeBorrowerComp",
      "outputs": [],
      "payable": false,
      "stateMutability": "nonpayable",
      "type": "function"
    },
    {
      "constant": false,
      "inputs": [
        {
          "internalType": "address",
          "name": "key",
          "type": "address"
        },
        {
          "internalType": "address",
          "name": "cToken",
          "type": "address"
        },
        {
          "internalType": "address",
          "name": "supplier",
          "type": "address"
        }
      ],
      "name": "distributeSupplierClaim",
      "outputs": [],
      "payable": false,
      "stateMutability": "nonpayable",
      "type": "function"
    },
    {
      "constant": false,
      "inputs": [
        {
          "internalType": "address",
          "name": "cToken",
          "type": "address"
        },
        {
          "internalType": "address",
          "name": "supplier",
          "type": "address"
        }
      ],
      "name": "distributeSupplierComp",
      "outputs": [],
      "payable": false,
      "stateMutability": "nonpayable",
      "type": "function"
    },
    {
      "constant": true,
      "inputs": [],
      "name": "getAllMarkets",
      "outputs": [
        {
          "internalType": "contract CToken[]",
          "name": "",
          "type": "address[]"
        }
      ],
      "payable": false,
      "stateMutability": "view",
      "type": "function"
    },
    {
      "constant": true,
      "inputs": [],
      "name": "getBlockNumber",
      "outputs": [
        {
          "internalType": "uint256",
          "name": "",
          "type": "uint256"
        }
      ],
      "payable": false,
      "stateMutability": "view",
      "type": "function"
    },
    {
      "constant": true,
      "inputs": [],
      "name": "getCompAddress",
      "outputs": [
        {
          "internalType": "address",
          "name": "",
          "type": "address"
        }
      ],
      "payable": false,
      "stateMutability": "pure",
      "type": "function"
    },
    {
      "constant": true,
      "inputs": [
        {
          "internalType": "address",
          "name": "",
          "type": "address"
        }
      ],
      "name": "lastContributorBlock",
      "outputs": [
        {
          "internalType": "uint256",
          "name": "",
          "type": "uint256"
        }
      ],
      "payable": false,
      "stateMutability": "view",
      "type": "function"
    },
    {
      "constant": true,
      "inputs": [],
      "name": "liquidationIncentiveMantissa",
      "outputs": [
        {
          "internalType": "uint256",
          "name": "",
          "type": "uint256"
        }
      ],
      "payable": false,
      "stateMutability": "view",
      "type": "function"
    },
    {
      "constant": true,
      "inputs": [
        {
          "internalType": "address",
          "name": "",
          "type": "address"
        }
      ],
      "name": "markets",
      "outputs": [
        {
          "internalType": "bool",
          "name": "isListed",
          "type": "bool"
        },
        {
          "internalType": "uint256",
          "name": "collateralFactorMantissa",
          "type": "uint256"
        },
        {
          "internalType": "bool",
          "name": "isComped",
          "type": "bool"
        }
      ],
      "payable": false,
      "stateMutability": "view",
      "type": "function"
    },
    {
      "constant": true,
      "inputs": [],
      "name": "maxAssets",
      "outputs": [
        {
          "internalType": "uint256",
          "name": "",
          "type": "uint256"
        }
      ],
      "payable": false,
      "stateMutability": "view",
      "type": "function"
    },
    {
      "constant": true,
      "inputs": [
        {
          "internalType": "address",
          "name": "",
          "type": "address"
        }
      ],
      "name": "mintGuardianPaused",
      "outputs": [
        {
          "internalType": "bool",
          "name": "",
          "type": "bool"
        }
      ],
      "payable": false,
      "stateMutability": "view",
      "type": "function"
    },
    {
      "constant": true,
      "inputs": [],
      "name": "oracle",
      "outputs": [
        {
          "internalType": "contract PriceOracle",
          "name": "",
          "type": "address"
        }
      ],
      "payable": false,
      "stateMutability": "view",
      "type": "function"
    },
    {
      "constant": true,
      "inputs": [],
      "name": "pauseGuardian",
      "outputs": [
        {
          "internalType": "address",
          "name": "",
          "type": "address"
        }
      ],
      "payable": false,
      "stateMutability": "view",
      "type": "function"
    },
    {
      "constant": true,
      "inputs": [],
      "name": "pendingAdmin",
      "outputs": [
        {
          "internalType": "address",
          "name": "",
          "type": "address"
        }
      ],
      "payable": false,
      "stateMutability": "view",
      "type": "function"
    },
    {
      "constant": true,
      "inputs": [],
      "name": "pendingComptrollerImplementation",
      "outputs": [
        {
          "internalType": "address",
          "name": "",
          "type": "address"
        }
      ],
      "payable": false,
      "stateMutability": "view",
      "type": "function"
    },
    {
      "constant": true,
      "inputs": [],
      "name": "seizeGuardianPaused",
      "outputs": [
        {
          "internalType": "bool",
          "name": "",
          "type": "bool"
        }
      ],
      "payable": false,
      "stateMutability": "view",
      "type": "function"
    },
    {
      "constant": false,
      "inputs": [
        {
          "internalType": "address",
          "name": "key",
          "type": "address"
        },
        {
          "internalType": "address",
          "name": "lpToken",
          "type": "address"
        },
        {
          "internalType": "uint256",
          "name": "amount",
          "type": "uint256"
        },
        {
          "internalType": "bytes",
          "name": "data",
          "type": "bytes"
        }
      ],
      "name": "stake",
      "outputs": [
        {
          "internalType": "uint256",
          "name": "",
          "type": "uint256"
        }
      ],
      "payable": false,
      "stateMutability": "nonpayable",
      "type": "function"
    },
    {
      "constant": true,
      "inputs": [],
      "name": "transferGuardianPaused",
      "outputs": [
        {
          "internalType": "bool",
          "name": "",
          "type": "bool"
        }
      ],
      "payable": false,
      "stateMutability": "view",
      "type": "function"
    },
    {
      "constant": false,
      "inputs": [],
      "name": "updateClaimIndex",
      "outputs": [],
      "payable": false,
      "stateMutability": "nonpayable",
      "type": "function"
    },
    {
      "constant": false,
      "inputs": [
        {
          "internalType": "address",
          "name": "cToken",
          "type": "address"
        },
        {
          "internalType": "uint256",
          "name": "marketBorrowIndex_",
          "type": "uint256"
        }
      ],
      "name": "updateCompBorrowIndex",
      "outputs": [],
      "payable": false,
      "stateMutability": "nonpayable",
      "type": "function"
    },
    {
      "constant": false,
      "inputs": [
        {
          "internalType": "address",
          "name": "cToken",
          "type": "address"
        }
      ],
      "name": "updateCompSupplyIndex",
      "outputs": [],
      "payable": false,
      "stateMutability": "nonpayable",
      "type": "function"
    }
  ],
  "transactionHash": "0xc06ffd7b92aa7fe1b8f597e389a13b2d12f9c74317ec8c2dbae9ae18de14a215",
  "args": [],
  "solcInputHash": "fb4b375f699c347d0fb8ea46fa1a34f1",
  "bytecode": "0x608060405234801561001057600080fd5b50614c9d806100206000396000f3fe608060405234801561001057600080fd5b506004361061038e5760003560e01c806379956b83116101de578063b21be7fd1161010f578063dce15449116100ad578063e87554461161007c578063e87554461461074b578063e9af029214610753578063f0cee97614610766578063f851a440146107795761038e565b8063dce1544914610715578063dcfbc0c714610728578063e3f96ae714610730578063e6653f3d146107435761038e565b8063bea6b8b8116100e9578063bea6b8b8146106c9578063ca0af043146106dc578063cc7ebdc4146106ef578063d3da0e8e146107025761038e565b8063b21be7fd1461069b578063bb82aa5e146106ae578063bc045bd8146106b65761038e565b806394b2294b1161017c578063a7f0e23111610156578063a7f0e23114610661578063aa90075414610676578063ac0b0bb71461067e578063b0772d0b146106865761038e565b806394b2294b1461063e578063986ab838146106465780639d1b5a0a146106595761038e565b806387f76303116101b857806387f76303146105f95780638c57804e146106015780638e8f294b1461061457806393cc32ea146106365761038e565b806379956b83146105cb5780637dc0d1d0146105de57806382009b79146105e65761038e565b8063434caf25116102c357806366345da4116102615780636cc00b58116102305780636cc00b581461057f5780636d154ea514610592578063731f0c2b146105a55780637389f6a1146105b85761038e565b806366345da41461053e5780636912d1501461054657806369508613146105595780636b79c38d1461056c5761038e565b80634ada90af1161029d5780634ada90af146104e25780634b712774146104ea5780634f54b3c01461050b57806352d84d1e1461051e5761038e565b8063434caf25146104a95780634854b143146104bc5780634a584432146104cf5761038e565b806324a3d622116103305780632b17af211161030a5780632b17af21146104665780633369c858146104795780633c94786f1461048c57806342cbb15c146104a15761038e565b806324a3d62214610443578063267822471461044b57806327efe3cb146104535761038e565b80631e83409a1161036c5780631e83409a146103e45780631fcb3d03146103f75780632100550e1461041b57806321af45691461042e5761038e565b8063082bc0ab146103935780631b59c0ac146103a85780631d7b33d7146103d1575b600080fd5b6103a66103a13660046140a3565b610781565b005b6103bb6103b6366004614103565b610a09565b6040516103c89190614a7f565b60405180910390f35b6103bb6103df3660046140a3565b610a2c565b6103a66103f23660046140a3565b610a3e565b61040a6104053660046140a3565b610cab565b6040516103c8959493929190614a8d565b6103a66104293660046141c9565b610d71565b610436610f8c565b6040516103c8919061487a565b610436610f9b565b610436610faa565b6103a661046136600461437d565b610fb9565b6103bb6104743660046140c9565b611050565b6103a6610487366004614103565b61106d565b610494611371565b6040516103c891906148f7565b6103bb611381565b6103a66104b736600461444f565b611386565b6103bb6104ca36600461420c565b6113b4565b6103bb6104dd3660046140a3565b61156b565b6103bb61157d565b6104fd6104f83660046140c9565b611583565b6040516103c8929190614a64565b6103a66105193660046140c9565b6115b8565b61053161052c36600461446e565b611791565b6040516103c8919061492d565b6104366117b8565b6103a66105543660046143ad565b6117c7565b6103bb6105673660046140a3565b611b04565b6104fd61057a3660046140a3565b611ca8565b6103bb61058d366004614103565b611cd2565b6104946105a03660046140a3565b611cf5565b6104946105b33660046140a3565b611d0a565b6103a66105c6366004614335565b611d1f565b6104366105d936600461446e565b611d81565b610531611d8e565b6103a66105f4366004614103565b611d9d565b610494611feb565b6104fd61060f3660046140a3565b611ffb565b6106276106223660046140a3565b612025565b6040516103c893929190614905565b6103a661204b565b6103bb612ad4565b6103bb6106543660046140a3565b612ada565b610436612aec565b610669612b04565b6040516103c89190614a56565b6103bb612b16565b610494612b1c565b61068e612b2c565b6040516103c891906148e6565b6103bb6106a93660046140c9565b612b8e565b610436612bab565b6103bb6106c4366004614298565b612bba565b6103bb6106d73660046140a3565b612d7d565b6103bb6106ea3660046140c9565b612d8f565b6103bb6106fd3660046140a3565b612dac565b6103bb610710366004614150565b612dbe565b61053161072336600461437d565b612ea2565b610436612ed7565b6103a661073e36600461437d565b612ee6565b610494613150565b6103bb613160565b6103a66107613660046140a3565b613166565b6103bb610774366004614250565b6131ca565b610436613316565b6001600160a01b0381166000908152601060209081526040808320600f90925282205490916107ae611381565b83549091506000906107ce908390600160e01b900463ffffffff16613325565b90506000811180156107e05750600083115b156109af576000856001600160a01b03166318160ddd6040518163ffffffff1660e01b815260040160206040518083038186803b15801561082057600080fd5b505afa158015610834573d6000803e3d6000fd5b505050506040513d601f19601f82011682018060405250610858919081019061448c565b905060006108668386613368565b9050610870613dc4565b6000831161088d5760405180602001604052806000815250610897565b61089782846133aa565b90506108a1613dc4565b604080516020810190915288546001600160e01b031681526108c390836133e7565b9050604051806040016040528061091083600001516040518060400160405280601a8152602001796e657720696e646578206578636565647320323234206269747360301b81525061340c565b6001600160e01b0316815260200161094b886040518060400160405280601c8152602001600080516020614c3b83398151915281525061343b565b63ffffffff9081169091526001600160a01b038b166000908152601060209081526040909120835181549490920151909216600160e01b026001600160e01b039182166001600160e01b0319909416939093171691909117905550610a0292505050565b8015610a02576109e2826040518060400160405280601c8152602001600080516020614c3b83398151915281525061343b565b845463ffffffff91909116600160e01b026001600160e01b039091161784555b5050505050565b601e60209081526000938452604080852082529284528284209052825290205481565b600f6020526000908152604090205481565b610a4661204b565b60005b600d54811015610b8e5760005b601b54811015610b8557601a6000601b8381548110610a7157fe5b60009182526020808320909101546001600160a01b031683528201929092526040018120600d80546004909201929185908110610aaa57fe5b60009182526020808320909101546001600160a01b0316835282019290925260400190205460ff16610adb57610b7d565b610b2c601b8281548110610aeb57fe5b600091825260209091200154600d80546001600160a01b039092169185908110610b1157fe5b6000918252602090912001546001600160a01b03168561106d565b610b7d601b8281548110610b3c57fe5b600091825260209091200154600d80546001600160a01b039092169185908110610b6257fe5b6000918252602090912001546001600160a01b031685611d9d565b600101610a56565b50600101610a49565b5060005b601b54811015610ca7576000601a6000601b8481548110610baf57fe5b60009182526020808320909101546001600160a01b03908116845283820194909452604092830182206001015483518085018552600d81526c031b630b4b6903a37b5b2b71d1609d1b8184015284518086018652600981526801030b6b7bab73a1d160bd1b8185015291861680855260198452858520968a168552959092529290912054929350610c439290918491613463565b6001600160a01b03808216600090815260196020908152604080832093871683529290522054610c7690829085906134b2565b6001600160a01b03918216600090815260196020908152604080832094871683529390529190912055600101610b92565b5050565b601a60209081526000918252604091829020805460018083015460028085015460038601805489516101009682161596909602600019011692909204601f810188900488028501880190985287845293966001600160a01b03928316969290941694939091830182828015610d615780601f10610d3657610100808354040283529160200191610d61565b820191906000526020600020905b815481529060010190602001808311610d4457829003601f168201915b5050505050908060060154905085565b610daf6040518060400160405280601a81526020017f7465737431323373646661666a65617769666a61657769666a690000000000008152506135df565b610db7613dc4565b5060408051602080820183528382526001600160a01b0386166000908152601190915291909120610de6613dc4565b50604080516020810190915281546001600160e01b03168152610e07613dc4565b5060408051602080820183526001600160a01b03808a16600090815260138352848120918a1680825282845294812080548552865195909152915291909155805115610f8357610e55613dc4565b610e5f8383613622565b90506000610ee8896001600160a01b03166395dd91938a6040518263ffffffff1660e01b8152600401610e92919061487a565b60206040518083038186803b158015610eaa57600080fd5b505afa158015610ebe573d6000803e3d6000fd5b505050506040513d601f19601f82011682018060405250610ee2919081019061448c565b87613647565b90506000610ef68284613665565b6001600160a01b038a1660009081526014602052604081205491925090610f1d9083613693565b6001600160a01b03808c1660008181526014602052604090819020849055895190519394509092918e16917f1fc3ecc087d8d2d15e23d0032af5a47059c3892d003d8e139fdcb6bb327c99a691610f7691879190614ae0565b60405180910390a3505050505b50505050505050565b6015546001600160a01b031681565b600a546001600160a01b031681565b6001546001600160a01b031681565b610fc16136c9565b610fe65760405162461bcd60e51b8152600401610fdd906149c6565b60405180910390fd5b6000610ff283836136f2565b905080156110125760405162461bcd60e51b8152600401610fdd906149b6565b7f98b2f82a3a07f223a0be64b3d0f47711c64dccd1feafb94aa28156b38cd9695c83836040516110439291906148a3565b60405180910390a1505050565b601960209081526000928352604080842090915290825290205481565b6110a0604051806040016040528060128152602001716d6d6d6d6d6d6d6d6d6d6d6d6d6d6d6d6d6d60701b8152506135df565b6110a8613dc4565b6040518060200160405280846001600160a01b031663aa5af0fd6040518163ffffffff1660e01b815260040160206040518083038186803b1580156110ec57600080fd5b505afa158015611100573d6000803e3d6000fd5b505050506040513d601f19601f82011682018060405250611124919081019061448c565b90526001600160a01b038086166000908152601a6020908152604080832093881683526009840190915290209192509061115c613dc4565b50604080516020810190915281546001600160e01b0316815261117d613dc4565b5060408051602080820183526001600160a01b03808a166000908152600b88018352848120918a1680825282845294812080548552865195909152915291909155805115611367576111cd613dc4565b6111d78383613622565b90506000611260896001600160a01b03166395dd91938a6040518263ffffffff1660e01b815260040161120a919061487a565b60206040518083038186803b15801561122257600080fd5b505afa158015611236573d6000803e3d6000fd5b505050506040513d601f19601f8201168201806040525061125a919081019061448c565b88613647565b9050600061126e8284613665565b60018801546001600160a01b039081166000908152601960209081526040808320938e16835292905290812054919250906112a99083613693565b905080601960008a60010160009054906101000a90046001600160a01b03166001600160a01b03166001600160a01b0316815260200190815260200160002060008c6001600160a01b03166001600160a01b0316815260200190815260200160002081905550896001600160a01b03168b6001600160a01b03167f8bbedf764ee3b65112781d1097151a92b6960dc19666a1df481bbd70d32515368e858a6000015160405161135a939291906148be565b60405180910390a3505050505b5050505050505050565b600a54600160a01b900460ff1681565b435b90565b61138e6136c9565b6113aa5760405162461bcd60e51b8152600401610fdd906149f6565b610ca78282613829565b6001600160a01b0384166000908152601a60205260408120831561145c57600281015460405163095ea7b360e01b81526001600160a01b038781169263095ea7b392611408929091169088906004016148a3565b602060405180830381600087803b15801561142257600080fd5b505af1158015611436573d6000803e3d6000fd5b505050506040513d601f19601f8201168201806040525061145a9190810190614431565b505b60028101546040516000916001600160a01b03169061147c908690614862565b6000604051808303816000865af19150503d80600081146114b9576040519150601f19603f3d011682016040523d82523d6000602084013e6114be565b606091505b5050905060008114156114d057600080fd5b841561156157600282015460405163095ea7b360e01b81526001600160a01b038881169263095ea7b39261150d9290911690600090600401614888565b602060405180830381600087803b15801561152757600080fd5b505af115801561153b573d6000803e3d6000fd5b505050506040513d601f19601f8201168201806040525061155f9190810190614431565b505b5050949350505050565b60166020526000908152604090205481565b60065481565b601c6020908152600092835260408084209091529082529020546001600160e01b03811690600160e01b900463ffffffff1682565b6001600160a01b03821660009081526010602052604090206115d8613dc4565b50604080516020810190915281546001600160e01b031681526115f9613dc4565b5060408051602080820183526001600160a01b038088166000908152601283528481209188168082528284529481208054855286519590915291529190915580511580156116475750815115155b1561165e576a0c097ce7bc90715b34b9f160241b81525b611666613dc4565b6116708383613622565b90506000866001600160a01b03166370a08231876040518263ffffffff1660e01b81526004016116a0919061487a565b60206040518083038186803b1580156116b857600080fd5b505afa1580156116cc573d6000803e3d6000fd5b505050506040513d601f19601f820116820180604052506116f0919081019061448c565b905060006116fe8284613665565b6001600160a01b038816600090815260146020526040812054919250906117259083613693565b6001600160a01b03808a1660008181526014602052604090819020849055895190519394509092918c16917f2caecd17d02f56fa897705dcc740da2d237c373f70686f4e0d9bd3bf0400ea7a9161177e91879190614ae0565b60405180910390a3505050505050505050565b600d818154811061179e57fe5b6000918252602090912001546001600160a01b0316905081565b601f546001600160a01b031681565b60005b8351811015610a025760008482815181106117e157fe5b6020908102919091018101516001600160a01b0381166000908152600990925260409091205490915060ff166118295760405162461bcd60e51b8152600401610fdd90614a16565b600184151514156119f35761183c613dc4565b6040518060200160405280836001600160a01b031663aa5af0fd6040518163ffffffff1660e01b815260040160206040518083038186803b15801561188057600080fd5b505afa158015611894573d6000803e3d6000fd5b505050506040513d601f19601f820116820180604052506118b8919081019061448c565b81525090506118cb828260000151612ee6565b6118d361204b565b60005b87518110156119f057611901838983815181106118ef57fe5b60200260200101518460000151610d71565b60005b601b5481101561195e57611956601b828154811061191e57fe5b9060005260206000200160009054906101000a90046001600160a01b0316858b858151811061194957fe5b602002602001015161106d565b600101611904565b506119b488828151811061196e57fe5b6020026020010151601460008b858151811061198657fe5b60200260200101516001600160a01b03166001600160a01b03168152602001908152602001600020546136f2565b601460008a84815181106119c457fe5b6020908102919091018101516001600160a01b03168252810191909152604001600020556001016118d6565b50505b60018315151415611afb57611a0781610781565b611a0f61204b565b60005b8651811015611af957611a3882888381518110611a2b57fe5b60200260200101516115b8565b60005b601b54811015611a9557611a8d601b8281548110611a5557fe5b9060005260206000200160009054906101000a90046001600160a01b0316848a8581518110611a8057fe5b6020026020010151611d9d565b600101611a3b565b50611abd878281518110611aa557fe5b6020026020010151601460008a858151811061198657fe5b60146000898481518110611acd57fe5b6020908102919091018101516001600160a01b0316825281019190915260400160002055600101611a12565b505b506001016117ca565b6001600160a01b0381166000908152601a6020526040812054601b5460001901811415611b5b57601b80546000198101908110611b3d57fe5b600091825260209091200180546001600160a01b0319169055611c4f565b6001600160a01b0383166000908152601a60208190526040822054601b80549193916000198101908110611b8b57fe5b60009182526020808320909101546001600160a01b03168352820192909252604001902055601b80546000198101908110611bc257fe5b60009182526020808320909101546001600160a01b038681168452601a909252604090922054601b80549290931692918110611bfa57fe5b600091825260209091200180546001600160a01b0319166001600160a01b0392909216919091179055601b80546000198101908110611c3557fe5b600091825260209091200180546001600160a01b03191690555b6001600160a01b0383166000908152601a602052604081208181556001810180546001600160a01b0319908116909155600282018054909116905590611c986003830182613dd7565b6006820160009055505050919050565b6010602052600090815260409020546001600160e01b03811690600160e01b900463ffffffff1682565b601d60209081526000938452604080852082529284528284209052825290205481565b600c6020526000908152604090205460ff1681565b600b6020526000908152604090205460ff1681565b604080516001808252818301909252606091602080830190803883390190505090508281600081518110611d4f57fe5b60200260200101906001600160a01b031690816001600160a01b031681525050611d7c81836001806117c7565b505050565b601b818154811061179e57fe5b6004546001600160a01b031681565b6001600160a01b038084166000908152601a602090815260408083209386168352600884019091529020611dcf613dc4565b50604080516020810190915281546001600160e01b03168152611df0613dc4565b5060408051602080820183526001600160a01b03808a166000908152601d83528481208a831682528352848120918916808252828452948120805485528651959091529152919091558051158015611e485750815115155b15611e5f576a0c097ce7bc90715b34b9f160241b81525b611e67613dc4565b611e718383613622565b90506000876001600160a01b03166370a08231886040518263ffffffff1660e01b8152600401611ea1919061487a565b60206040518083038186803b158015611eb957600080fd5b505afa158015611ecd573d6000803e3d6000fd5b505050506040513d601f19601f82011682018060405250611ef1919081019061448c565b90506000611eff8284613665565b60018801546001600160a01b039081166000908152601960209081526040808320938d1683529290529081205491925090611f3a9083613693565b905080601960008a60010160009054906101000a90046001600160a01b03166001600160a01b03166001600160a01b0316815260200190815260200160002060008b6001600160a01b03166001600160a01b0316815260200190815260200160002081905550886001600160a01b03168a6001600160a01b03167f4d2b2d98decf3cf30af13d0a9dd04f74bc383dcbc56267dfa9092920089023ca8d858a60000151604051610f76939291906148be565b600a54600160b01b900460ff1681565b6011602052600090815260409020546001600160e01b03811690600160e01b900463ffffffff1682565b60096020526000908152604090208054600182015460039092015460ff91821692911683565b60005b601b54811015612ad1576000601b828154811061206757fe5b60009182526020808320909101546001600160a01b03908116808452601a9092526040808420600181015491516370a0823160e01b815293955093929116906370a08231906120ba90309060040161487a565b60206040518083038186803b1580156120d257600080fd5b505afa1580156120e6573d6000803e3d6000fd5b505050506040513d601f19601f8201168201806040525061210a919081019061448c565b60028301546040519192506000916001600160a01b039091169061213290600386019061486e565b6000604051808303816000865af19150503d806000811461216f576040519150601f19603f3d011682016040523d82523d6000602084013e612174565b606091505b50509050600081141561218657600080fd5b60018301546040516370a0823160e01b81526000916001600160a01b0316906370a08231906121b990309060040161487a565b60206040518083038186803b1580156121d157600080fd5b505afa1580156121e5573d6000803e3d6000fd5b505050506040513d601f19601f82011682018060405250612209919081019061448c565b90506000612215611381565b905081841061222957505050505050612ac9565b600685015461223d57505050505050612ac9565b60408051808201909152601d81527f62616c616e63654166746572202d2062616c616e63654265666f723a20000000602082015261228a90612285848763ffffffff613af616565b613b38565b60005b600d54811015612ac157856004016000600d83815481106122aa57fe5b60009182526020808320909101546001600160a01b0316835282019290925260400190205460ff166122db57612ab9565b6122ff6040518060400160405280600381526020016261626360e81b8152506135df565b61230c8660060154613b7d565b60006123838760060154612377896007016000600d878154811061232c57fe5b60009182526020808320909101546001600160a01b0316835282019290925260400190205461236b670de0b6b3a7640000818a8d63ffffffff613af616565b9063ffffffff613bc016565b9063ffffffff613bfa16565b905060006123d56127106123778a6005016000600d88815481106123a357fe5b60009182526020808320909101546001600160a01b03168352820192909252604001902054859063ffffffff613bc016565b90506124086040518060400160405280600f81526020016e03137b93937bba130b630b731b29d1608d1b81525082613b38565b6000886009016000600d868154811061241d57fe5b60009182526020808320909101546001600160a01b0316835282019290925260400190209050811561270a57612451613dc4565b6040518060200160405280600d878154811061246957fe5b600091825260209182902001546040805163aa5af0fd60e01b815290516001600160a01b039092169263aa5af0fd92600480840193829003018186803b1580156124b257600080fd5b505afa1580156124c6573d6000803e3d6000fd5b505050506040513d601f19601f820116820180604052506124ea919081019061448c565b81525090506000612588600d878154811061250157fe5b60009182526020918290200154604080516308f7a6e360e31b815290516001600160a01b03909216926347bd371892600480840193829003018186803b15801561254a57600080fd5b505afa15801561255e573d6000803e3d6000fd5b505050506040513d601f19601f82011682018060405250612582919081019061448c565b83613647565b9050612592613dc4565b600082116125af57604051806020016040528060008152506125d0565b6125d06125ca86670de0b6b3a764000063ffffffff613bfa16565b836133aa565b90506125da613dc4565b604080516020810190915285546001600160e01b031681526125fc90836133e7565b9050604051806040016040528061264983600001516040518060400160405280601a8152602001796e657720696e646578206578636565647320323234206269747360301b81525061340c565b6001600160e01b031681526020016126848b6040518060400160405280601c8152602001600080516020614c3b83398151915281525061343b565b63ffffffff168152508d6009016000600d8b815481106126a057fe5b60009182526020808320909101546001600160a01b03168352828101939093526040909101902082518154939092015163ffffffff16600160e01b026001600160e01b039283166001600160e01b0319909416939093179091169190911790555061275792505050565b612737856040518060400160405280601c8152602001600080516020614c3b83398151915281525061343b565b815463ffffffff91909116600160e01b026001600160e01b039091161781555b60408051808201909152601381527203137b93937bba9ba30ba329034b73232bc1d1606d1b6020820152815461279691906001600160e01b0316613b38565b60006127a8848463ffffffff613af616565b90506127db6040518060400160405280600f81526020016e039bab838363ca130b630b731b29d1608d1b81525082613b38565b60008a6008016000600d88815481106127f057fe5b60009182526020808320909101546001600160a01b03168352820192909252604001902090508115612a27576000600d878154811061282b57fe5b60009182526020918290200154604080516318160ddd60e01b815290516001600160a01b03909216926318160ddd92600480840193829003018186803b15801561287457600080fd5b505afa158015612888573d6000803e3d6000fd5b505050506040513d601f19601f820116820180604052506128ac919081019061448c565b90506128b6613dc4565b600082116128d357604051806020016040528060008152506128ee565b6128ee6125ca87670de0b6b3a764000063ffffffff613bfa16565b90506128f8613dc4565b604080516020810190915284546001600160e01b0316815261291a90836133e7565b9050604051806040016040528061296783600001516040518060400160405280601a8152602001796e657720696e646578206578636565647320323234206269747360301b81525061340c565b6001600160e01b031681526020016129a28c6040518060400160405280601c8152602001600080516020614c3b83398151915281525061343b565b63ffffffff168152508e6008016000600d8c815481106129be57fe5b60009182526020808320909101546001600160a01b03168352828101939093526040909101902082518154939092015163ffffffff16600160e01b026001600160e01b039283166001600160e01b03199094169390931790911691909117905550612a74915050565b612a54876040518060400160405280601c8152602001600080516020614c3b83398151915281525061343b565b815463ffffffff91909116600160e01b026001600160e01b039091161781555b604080518082019091526013815272039bab838363ca9ba30ba329034b73232bc1d1606d1b60208201528154612ab391906001600160e01b0316613b38565b50505050505b60010161228d565b505050505050505b60010161204e565b50565b60075481565b60176020526000908152604090205481565b73e499ef4616993730ced0f31fa2703b92b50bb53690565b6a0c097ce7bc90715b34b9f160241b81565b600e5481565b600a54600160b81b900460ff1681565b6060600d805480602002602001604051908101604052809291908181526020018280548015612b8457602002820191906000526020600020905b81546001600160a01b03168152600190910190602001808311612b66575b5050505050905090565b601260209081526000928352604080842090915290825290205481565b6002546001600160a01b031681565b60008151845114612bdd5760405162461bcd60e51b8152600401610fdd906149d6565b6001600160a01b0385166000908152601a6020526040812090805b8651811015612d5557612710858281518110612c1057fe5b60200260200101511115612c365760405162461bcd60e51b8152600401610fdd90614a46565b6001836004016000898481518110612c4a57fe5b60200260200101516001600160a01b03166001600160a01b0316815260200190815260200160002060006101000a81548160ff021916908315150217905550848181518110612c9557fe5b6020026020010151836005016000898481518110612caf57fe5b60200260200101516001600160a01b03166001600160a01b0316815260200190815260200160002081905550612d01868281518110612cea57fe5b602002602001015183613c3c90919063ffffffff16565b9150858181518110612d0f57fe5b6020026020010151836007016000898481518110612d2957fe5b6020908102919091018101516001600160a01b0316825281019190915260400160002055600101612bf8565b506006820154612d6b908263ffffffff613c3c16565b82600601819055505050949350505050565b60186020526000908152604090205481565b601360209081526000928352604080842090915290825290205481565b60146020526000908152604090205481565b6001600160a01b038085166000908152601a602052604081206001810154919290911615612dfe5760405162461bcd60e51b8152600401610fdd90614a06565b6001810180546001600160a01b038088166001600160a01b031992831617909255600283018054928716929091169190911790558251612e479060038301906020860190613e1b565b50601b8054918290556001820181556000527f3ad8aa4f87544323a9d1e5dd902f40c356527a7955687113db5f9a85ad579dc10180546001600160a01b0319166001600160a01b039690961695909517909455509192915050565b60086020528160005260406000208181548110612ebb57fe5b6000918252602090912001546001600160a01b03169150829050565b6003546001600160a01b031681565b612eee613dc4565b5060408051602080820183528382526001600160a01b038516600090815260118252838120600f909252928320549192909190612f29611381565b8354909150600090612f49908390600160e01b900463ffffffff16613325565b9050600081118015612f5b5750600083115b156130f5576000612f9e886001600160a01b03166347bd37186040518163ffffffff1660e01b815260040160206040518083038186803b158015610eaa57600080fd5b90506000612fac8386613368565b9050612fb6613dc4565b60008311612fd35760405180602001604052806000815250612fdd565b612fdd82846133aa565b9050612fe7613dc4565b604080516020810190915288546001600160e01b0316815261300990836133e7565b9050604051806040016040528061305683600001516040518060400160405280601a8152602001796e657720696e646578206578636565647320323234206269747360301b81525061340c565b6001600160e01b03168152602001613091886040518060400160405280601c8152602001600080516020614c3b83398151915281525061343b565b63ffffffff9081169091526001600160a01b038d166000908152601160209081526040909120835181549490920151909216600160e01b026001600160e01b039182166001600160e01b0319909416939093171691909117905550610f8392505050565b8015610f8357613128826040518060400160405280601c8152602001600080516020614c3b83398151915281525061343b565b845463ffffffff91909116600160e01b026001600160e01b0390911617845550505050505050565b600a54600160a81b900460ff1681565b60055481565b612ad181600d8054806020026020016040519081016040528092919081815260200182805480156131c057602002820191906000526020600020905b81546001600160a01b031681526001909101906020018083116131a2575b5050505050611d1f565b6001600160a01b0382166000908152601a60205260408120815b835181101561330e578160040160008583815181106131ff57fe5b60200260200101516001600160a01b03166001600160a01b0316815260200190815260200160002060006101000a81549060ff021916905581600501600085838151811061324957fe5b60200260200101516001600160a01b03166001600160a01b03168152602001908152602001600020600090556132c682600701600086848151811061328a57fe5b60200260200101516001600160a01b03166001600160a01b03168152602001908152602001600020548360060154613af690919063ffffffff16565b82600601819055508160070160008583815181106132e057fe5b6020908102919091018101516001600160a01b031682528101919091526040016000908120556001016131e4565b505092915050565b6000546001600160a01b031681565b600061335f8383604051806040016040528060158152602001747375627472616374696f6e20756e646572666c6f7760581b815250613c61565b90505b92915050565b600061335f83836040518060400160405280601781526020017f6d756c7469706c69636174696f6e206f766572666c6f77000000000000000000815250613c8d565b6133b2613dc4565b60405180602001604052806133de6133d8866a0c097ce7bc90715b34b9f160241b613368565b85613cde565b90529392505050565b6133ef613dc4565b60405180602001604052806133de85600001518560000151613693565b600081600160e01b84106134335760405162461bcd60e51b8152600401610fdd919061493b565b509192915050565b60008164010000000084106134335760405162461bcd60e51b8152600401610fdd919061493b565b6134ac8484848460405160240161347d949392919061494c565b60408051601f198184030181529190526020810180516001600160e01b0316638f624be960e01b179052613d11565b50505050565b600080846001600160a01b03166370a08231306040518263ffffffff1660e01b81526004016134e1919061487a565b60206040518083038186803b1580156134f957600080fd5b505afa15801561350d573d6000803e3d6000fd5b505050506040513d601f19601f82011682018060405250613531919081019061448c565b90506000831180156135435750808311155b156135d35760405163a9059cbb60e01b81526001600160a01b0386169063a9059cbb9061357690879087906004016148a3565b602060405180830381600087803b15801561359057600080fd5b505af11580156135a4573d6000803e3d6000fd5b505050506040513d601f19601f820116820180604052506135c89190810190614431565b5060009150506135d8565b829150505b9392505050565b612ad1816040516024016135f3919061493b565b60408051601f198184030181529190526020810180516001600160e01b031663104c13eb60e21b179052613d11565b61362a613dc4565b60405180602001604052806133de85600001518560000151613325565b600061335f61365e84670de0b6b3a7640000613368565b8351613cde565b60006a0c097ce7bc90715b34b9f160241b613684848460000151613368565b8161368b57fe5b049392505050565b600061335f8383604051806040016040528060118152602001706164646974696f6e206f766572666c6f7760781b815250613d32565b600080546001600160a01b03163314806136ed57506002546001600160a01b031633145b905090565b6000806136fd612aec565b90506000816001600160a01b03166370a08231306040518263ffffffff1660e01b815260040161372d919061487a565b60206040518083038186803b15801561374557600080fd5b505afa158015613759573d6000803e3d6000fd5b505050506040513d601f19601f8201168201806040525061377d919081019061448c565b905060008411801561378f5750808411155b156138205760405163a9059cbb60e01b81526001600160a01b0383169063a9059cbb906137c290889088906004016148a3565b602060405180830381600087803b1580156137dc57600080fd5b505af11580156137f0573d6000803e3d6000fd5b505050506040513d601f19601f820116820180604052506138149190810190614431565b50600092505050613362565b50919392505050565b6001600160a01b0382166000908152600f6020526040902054801561385e5761385183610781565b61385961204b565b613a97565b8115613a97576001600160a01b0383166000908152600960205260409020805460ff1615156001146138a25760405162461bcd60e51b8152600401610fdd90614a36565b6001600160a01b0384166000908152601060205260409020546001600160e01b03161580156138f457506001600160a01b038416600090815260106020526040902054600160e01b900463ffffffff16155b156139b05760405180604001604052806a0c097ce7bc90715b34b9f160241b6001600160e01b0316815260200161395561392c611381565b6040518060400160405280601c8152602001600080516020614c3b83398151915281525061343b565b63ffffffff9081169091526001600160a01b0386166000908152601060209081526040909120835181549490920151909216600160e01b026001600160e01b039182166001600160e01b031990941693909317169190911790555b6001600160a01b0384166000908152601160205260409020546001600160e01b0316158015613a0257506001600160a01b038416600090815260116020526040902054600160e01b900463ffffffff16155b15613a955760405180604001604052806a0c097ce7bc90715b34b9f160241b6001600160e01b03168152602001613a3a61392c611381565b63ffffffff9081169091526001600160a01b0386166000908152601160209081526040909120835181549490920151909216600160e01b026001600160e01b039182166001600160e01b031990941693909317169190911790555b505b818114611d7c576001600160a01b0383166000818152600f602052604090819020849055517f2ab93f65628379309f36cb125e90d7c902454a545c4f8b8cb0794af75c24b80790613ae9908590614a7f565b60405180910390a2505050565b600061335f83836040518060400160405280601f81526020017f536166654d6174683a207375627472616374696f6e20756e646572666c6f7700815250613c61565b610ca78282604051602401613b4e929190614996565b60408051601f198184030181529190526020810180516001600160e01b03166309710a9d60e41b179052613d11565b612ad181604051602401613b919190614a7f565b60408051601f198184030181529190526020810180516001600160e01b031663f5b1bba960e01b179052613d11565b600082613bcf57506000613362565b82820282848281613bdc57fe5b041461335f5760405162461bcd60e51b8152600401610fdd90614a26565b600061335f83836040518060400160405280601a81526020017f536166654d6174683a206469766973696f6e206279207a65726f000000000000815250613d59565b60008282018381101561335f5760405162461bcd60e51b8152600401610fdd906149e6565b60008184841115613c855760405162461bcd60e51b8152600401610fdd919061493b565b505050900390565b6000831580613c9a575082155b15613ca7575060006135d8565b83830283858281613cb457fe5b04148390613cd55760405162461bcd60e51b8152600401610fdd919061493b565b50949350505050565b600061335f83836040518060400160405280600e81526020016d646976696465206279207a65726f60901b815250613d90565b80516a636f6e736f6c652e6c6f67602083016000808483855afa5050505050565b60008383018285821015613cd55760405162461bcd60e51b8152600401610fdd919061493b565b60008183613d7a5760405162461bcd60e51b8152600401610fdd919061493b565b506000838581613d8657fe5b0495945050505050565b60008183613db15760405162461bcd60e51b8152600401610fdd919061493b565b50828481613dbb57fe5b04949350505050565b6040518060200160405280600081525090565b50805460018160011615610100020316600290046000825580601f10613dfd5750612ad1565b601f016020900490600052602060002090810190612ad19190613e99565b828054600181600116156101000203166002900490600052602060002090601f016020900481019282601f10613e5c57805160ff1916838001178555613e89565b82800160010185558215613e89579182015b82811115613e89578251825591602001919060010190613e6e565b50613e95929150613e99565b5090565b61138391905b80821115613e955760008155600101613e9f565b803561336281614c0b565b600082601f830112613ecf57600080fd5b8135613ee2613edd82614b15565b614aee565b91508181835260208401935060208101905083856020840282011115613f0757600080fd5b60005b83811015613f335781613f1d8882613eb3565b8452506020928301929190910190600101613f0a565b5050505092915050565b600082601f830112613f4e57600080fd5b8135613f5c613edd82614b15565b91508181835260208401935060208101905083856020840282011115613f8157600080fd5b60005b83811015613f335781613f978882614082565b8452506020928301929190910190600101613f84565b600082601f830112613fbe57600080fd5b8135613fcc613edd82614b15565b91508181835260208401935060208101905083856020840282011115613ff157600080fd5b60005b83811015613f335781614007888261408d565b8452506020928301929190910190600101613ff4565b803561336281614c1f565b805161336281614c1f565b600082601f83011261404457600080fd5b8135614052613edd82614b36565b9150808252602083016020830185838301111561406e57600080fd5b614079838284614bc9565b50505092915050565b803561336281614c28565b803561336281614c31565b805161336281614c31565b6000602082840312156140b557600080fd5b60006140c18484613eb3565b949350505050565b600080604083850312156140dc57600080fd5b60006140e88585613eb3565b92505060206140f985828601613eb3565b9150509250929050565b60008060006060848603121561411857600080fd5b60006141248686613eb3565b935050602061413586828701613eb3565b925050604061414686828701613eb3565b9150509250925092565b6000806000806080858703121561416657600080fd5b60006141728787613eb3565b945050602061418387828801613eb3565b935050604061419487828801613eb3565b925050606085013567ffffffffffffffff8111156141b157600080fd5b6141bd87828801614033565b91505092959194509250565b6000806000606084860312156141de57600080fd5b60006141ea8686613eb3565b93505060206141fb86828701613eb3565b92505060406141468682870161408d565b6000806000806080858703121561422257600080fd5b600061422e8787613eb3565b945050602061423f87828801613eb3565b93505060406141948782880161408d565b6000806040838503121561426357600080fd5b600061426f8585613eb3565b925050602083013567ffffffffffffffff81111561428c57600080fd5b6140f985828601613ebe565b600080600080608085870312156142ae57600080fd5b60006142ba8787613eb3565b945050602085013567ffffffffffffffff8111156142d757600080fd5b6142e387828801613ebe565b935050604085013567ffffffffffffffff81111561430057600080fd5b61430c87828801613fad565b925050606085013567ffffffffffffffff81111561432957600080fd5b6141bd87828801613fad565b6000806040838503121561434857600080fd5b60006143548585613eb3565b925050602083013567ffffffffffffffff81111561437157600080fd5b6140f985828601613f3d565b6000806040838503121561439057600080fd5b600061439c8585613eb3565b92505060206140f98582860161408d565b600080600080608085870312156143c357600080fd5b843567ffffffffffffffff8111156143da57600080fd5b6143e687828801613ebe565b945050602085013567ffffffffffffffff81111561440357600080fd5b61440f87828801613f3d565b93505060406144208782880161401d565b92505060606141bd8782880161401d565b60006020828403121561444357600080fd5b60006140c18484614028565b6000806040838503121561446257600080fd5b600061439c8585614082565b60006020828403121561448057600080fd5b60006140c1848461408d565b60006020828403121561449e57600080fd5b60006140c18484614098565b60006144b6838361461b565b505060200190565b6144c781614b82565b82525050565b60006144d882614b70565b6144e28185614b74565b93506144ed83614b5e565b8060005b8381101561451b57815161450588826144aa565b975061451083614b5e565b9250506001016144f1565b509495945050505050565b6144c781614b8d565b600061453a82614b70565b6145448185614b7d565b9350614554818560208601614bd5565b9290920192915050565b600061456982614b70565b6145738185614b74565b9350614583818560208601614bd5565b61458c81614c01565b9093019392505050565b6000815460018116600081146145b357600181146145d65761330e565b607f60028304166145c48187614b7d565b60ff198416815295508501925061330e565b600282046145e48187614b7d565b95506145ef85614b64565b60005b8281101561460e578154888201526001909101906020016145f2565b5050909401949350505050565b6144c781614b92565b6144c781614bbe565b600061463a601b83614b74565b7f696e73756666696369656e7420636f6d7020666f72206772616e740000000000815260200192915050565b6000614673601983614b74565b7f6f6e6c792061646d696e2063616e206772616e7420636f6d7000000000000000815260200192915050565b60006146ac601683614b74565b75696c6c6567616c206e756d206f66206d61726b65747360501b815260200192915050565b60006146de601b83614b74565b7f536166654d6174683a206164646974696f6e206f766572666c6f770000000000815260200192915050565b6000614717601d83614b74565b7f6f6e6c792061646d696e2063616e2073657420636f6d70207370656564000000815260200192915050565b6000614750600d83614b74565b6c185b1c9958591e481859191959609a1b815260200192915050565b6000614779601583614b74565b741b585c9ad95d081b5d5cdd081899481b1a5cdd1959605a1b815260200192915050565b60006147aa602183614b74565b7f536166654d6174683a206d756c7469706c69636174696f6e206f766572666c6f8152607760f81b602082015260400192915050565b60006147ed601983614b74565b7f636f6d70206d61726b6574206973206e6f74206c697374656400000000000000815260200192915050565b6000614826601283614b74565b71696c6c6567616c20626f72726f775261746560701b815260200192915050565b6144c781614ba9565b6144c781611383565b6144c781614bb5565b60006135d8828461452f565b60006135d88284614596565b6020810161336282846144be565b6040810161489682856144be565b6135d86020830184614624565b604081016148b182856144be565b6135d86020830184614850565b606081016148cc82866144be565b6148d96020830185614850565b6140c16040830184614850565b6020808252810161335f81846144cd565b602081016133628284614526565b606081016149138286614526565b6149206020830185614850565b6140c16040830184614526565b60208101613362828461461b565b6020808252810161335f818461455e565b6080808252810161495d818761455e565b905061496c60208301866144be565b818103604083015261497e818561455e565b905061498d6060830184614850565b95945050505050565b604080825281016149a7818561455e565b90506135d86020830184614850565b602080825281016133628161462d565b6020808252810161336281614666565b602080825281016133628161469f565b60208082528101613362816146d1565b602080825281016133628161470a565b6020808252810161336281614743565b602080825281016133628161476c565b602080825281016133628161479d565b60208082528101613362816147e0565b6020808252810161336281614819565b602081016133628284614847565b60408101614a728285614847565b6135d86020830184614859565b602081016133628284614850565b60a08101614a9b8288614850565b614aa860208301876144be565b614ab560408301866144be565b8181036060830152614ac7818561455e565b9050614ad66080830184614850565b9695505050505050565b604081016148b18285614850565b60405181810167ffffffffffffffff81118282101715614b0d57600080fd5b604052919050565b600067ffffffffffffffff821115614b2c57600080fd5b5060209081020190565b600067ffffffffffffffff821115614b4d57600080fd5b506020601f91909101601f19160190565b60200190565b60009081526020902090565b5190565b90815260200190565b919050565b600061336282614b9d565b151590565b600061336282614b82565b6001600160a01b031690565b6001600160e01b031690565b63ffffffff1690565b600061336282611383565b82818337506000910152565b60005b83811015614bf0578181015183820152602001614bd8565b838111156134ac5750506000910152565b601f01601f191690565b614c1481614b82565b8114612ad157600080fd5b614c1481614b8d565b614c1481614b92565b614c148161138356fe626c6f636b206e756d6265722065786365656473203332206269747300000000a365627a7a72315820c4467ab24d2df9bec1618b640fb817515893f41cce6ea4147905cf2dc48f63486c6578706572696d656e74616cf564736f6c63430005100040",
  "devdoc": {
    "author": "Compound",
    "methods": {
      "_grantComp(address,uint256)": {
        "details": "Note: If there is not enough COMP, we do not perform the transfer all.",
        "params": {
          "amount": "The amount of COMP to (possibly) transfer",
          "recipient": "The address of the recipient to transfer COMP to"
        }
      },
      "_setCompSpeed(address,uint256)": {
        "params": {
          "cToken": "The market whose COMP speed to update",
          "compSpeed": "New COMP speed for market"
        }
      },
      "claimAllComp(address,address[])": {
        "params": {
          "cTokens": "The list of markets to claim COMP in",
          "holder": "The address to claim COMP for"
        }
      },
      "claimAllUserAllComp(address[],address[],bool,bool)": {
        "params": {
          "borrowers": "Whether or not to claim COMP earned by borrowing",
          "cTokens": "The list of markets to claim COMP in",
          "holders": "The addresses to claim COMP for",
          "suppliers": "Whether or not to claim COMP earned by supplying"
        }
      },
      "claimComp(address)": {
        "params": {
          "holder": "The address to claim COMP for"
        }
      },
      "distributeBorrowerComp(address,address,uint256)": {
        "details": "Borrowers will not begin to accrue until after the first interaction with the protocol.",
        "params": {
          "borrower": "The address of the borrower to distribute COMP to",
          "cToken": "The market in which the borrower is interacting"
        }
      },
      "distributeSupplierComp(address,address)": {
        "params": {
          "cToken": "The market in which the supplier is interacting",
          "supplier": "The address of the supplier to distribute COMP to"
        }
      },
      "getAllMarkets()": {
        "details": "The automatic getter may be used to access an individual market.",
        "return": "The list of market addresses"
      },
      "getCompAddress()": {
        "return": "The address of COMP"
      },
      "updateCompBorrowIndex(address,uint256)": {
        "params": {
          "cToken": "The market whose borrow index to update"
        }
      },
      "updateCompSupplyIndex(address)": {
        "params": {
          "cToken": "The market whose supply index to update"
        }
      }
    },
    "title": "Compound's Comptroller Contract"
  },
  "userdoc": {
    "methods": {
      "_grantComp(address,uint256)": {
        "notice": "Transfer COMP to the recipient"
      },
      "_setCompSpeed(address,uint256)": {
        "notice": "Set COMP speed for a single market"
      },
      "claimAllComp(address,address[])": {
        "notice": "Claim all the comp accrued by holder in the specified markets"
      },
      "claimAllUserAllComp(address[],address[],bool,bool)": {
        "notice": "Claim all comp accrued by the holders"
      },
      "claimComp(address)": {
        "notice": "Claim all the comp accrued by holder in all markets"
      },
      "distributeBorrowerComp(address,address,uint256)": {
        "notice": "Calculate COMP accrued by a borrower and possibly transfer it to them"
      },
      "distributeSupplierComp(address,address)": {
        "notice": "Calculate COMP accrued by a supplier and possibly transfer it to them"
      },
      "getAllMarkets()": {
        "notice": "Return all of the markets"
      },
      "getCompAddress()": {
        "notice": "Return the address of the COMP token"
      },
      "stake(address,address,uint256,bytes)": {
        "notice": "* Comp Distribution Admin **"
      },
      "updateCompBorrowIndex(address,uint256)": {
        "notice": "Accrue COMP to the market by updating the borrow index"
      },
      "updateCompSupplyIndex(address)": {
        "notice": "Accrue COMP to the market by updating the supply index"
      }
    }
  },
  "storageLayout": {
    "storage": [
      {
        "astId": 20462,
        "contract": "contracts/ClaimContract.sol:ClaimContract",
        "label": "admin",
        "offset": 0,
        "slot": "0",
        "type": "t_address"
      },
      {
        "astId": 20464,
        "contract": "contracts/ClaimContract.sol:ClaimContract",
        "label": "pendingAdmin",
        "offset": 0,
        "slot": "1",
        "type": "t_address"
      },
      {
        "astId": 20466,
        "contract": "contracts/ClaimContract.sol:ClaimContract",
        "label": "comptrollerImplementation",
        "offset": 0,
        "slot": "2",
        "type": "t_address"
      },
      {
        "astId": 20468,
        "contract": "contracts/ClaimContract.sol:ClaimContract",
        "label": "pendingComptrollerImplementation",
        "offset": 0,
        "slot": "3",
        "type": "t_address"
      },
      {
        "astId": 20473,
        "contract": "contracts/ClaimContract.sol:ClaimContract",
        "label": "oracle",
        "offset": 0,
        "slot": "4",
        "type": "t_contract(PriceOracle)26221"
      },
      {
        "astId": 20475,
        "contract": "contracts/ClaimContract.sol:ClaimContract",
        "label": "closeFactorMantissa",
        "offset": 0,
        "slot": "5",
        "type": "t_uint256"
      },
      {
        "astId": 20477,
        "contract": "contracts/ClaimContract.sol:ClaimContract",
        "label": "liquidationIncentiveMantissa",
        "offset": 0,
        "slot": "6",
        "type": "t_uint256"
      },
      {
        "astId": 20479,
        "contract": "contracts/ClaimContract.sol:ClaimContract",
        "label": "maxAssets",
        "offset": 0,
        "slot": "7",
        "type": "t_uint256"
      },
      {
        "astId": 20484,
        "contract": "contracts/ClaimContract.sol:ClaimContract",
        "label": "accountAssets",
        "offset": 0,
        "slot": "8",
        "type": "t_mapping(t_address,t_array(t_contract(CToken)5457)dyn_storage)"
      },
      {
        "astId": 20502,
        "contract": "contracts/ClaimContract.sol:ClaimContract",
        "label": "markets",
        "offset": 0,
        "slot": "9",
        "type": "t_mapping(t_address,t_struct(Market)20498_storage)"
      },
      {
        "astId": 20504,
        "contract": "contracts/ClaimContract.sol:ClaimContract",
        "label": "pauseGuardian",
        "offset": 0,
        "slot": "10",
        "type": "t_address"
      },
      {
        "astId": 20506,
        "contract": "contracts/ClaimContract.sol:ClaimContract",
        "label": "_mintGuardianPaused",
        "offset": 20,
        "slot": "10",
        "type": "t_bool"
      },
      {
        "astId": 20508,
        "contract": "contracts/ClaimContract.sol:ClaimContract",
        "label": "_borrowGuardianPaused",
        "offset": 21,
        "slot": "10",
        "type": "t_bool"
      },
      {
        "astId": 20510,
        "contract": "contracts/ClaimContract.sol:ClaimContract",
        "label": "transferGuardianPaused",
        "offset": 22,
        "slot": "10",
        "type": "t_bool"
      },
      {
        "astId": 20512,
        "contract": "contracts/ClaimContract.sol:ClaimContract",
        "label": "seizeGuardianPaused",
        "offset": 23,
        "slot": "10",
        "type": "t_bool"
      },
      {
        "astId": 20516,
        "contract": "contracts/ClaimContract.sol:ClaimContract",
        "label": "mintGuardianPaused",
        "offset": 0,
        "slot": "11",
        "type": "t_mapping(t_address,t_bool)"
      },
      {
        "astId": 20520,
        "contract": "contracts/ClaimContract.sol:ClaimContract",
        "label": "borrowGuardianPaused",
        "offset": 0,
        "slot": "12",
        "type": "t_mapping(t_address,t_bool)"
      },
      {
        "astId": 20531,
        "contract": "contracts/ClaimContract.sol:ClaimContract",
        "label": "allMarkets",
        "offset": 0,
        "slot": "13",
        "type": "t_array(t_contract(CToken)5457)dyn_storage"
      },
      {
        "astId": 20533,
        "contract": "contracts/ClaimContract.sol:ClaimContract",
        "label": "compRate",
        "offset": 0,
        "slot": "14",
        "type": "t_uint256"
      },
      {
        "astId": 20537,
        "contract": "contracts/ClaimContract.sol:ClaimContract",
        "label": "compSpeeds",
        "offset": 0,
        "slot": "15",
        "type": "t_mapping(t_address,t_uint256)"
      },
      {
        "astId": 20541,
        "contract": "contracts/ClaimContract.sol:ClaimContract",
        "label": "compSupplyState",
        "offset": 0,
        "slot": "16",
        "type": "t_mapping(t_address,t_struct(CompMarketState)20528_storage)"
      },
      {
        "astId": 20545,
        "contract": "contracts/ClaimContract.sol:ClaimContract",
        "label": "compBorrowState",
        "offset": 0,
        "slot": "17",
        "type": "t_mapping(t_address,t_struct(CompMarketState)20528_storage)"
      },
      {
        "astId": 20551,
        "contract": "contracts/ClaimContract.sol:ClaimContract",
        "label": "compSupplierIndex",
        "offset": 0,
        "slot": "18",
        "type": "t_mapping(t_address,t_mapping(t_address,t_uint256))"
      },
      {
        "astId": 20557,
        "contract": "contracts/ClaimContract.sol:ClaimContract",
        "label": "compBorrowerIndex",
        "offset": 0,
        "slot": "19",
        "type": "t_mapping(t_address,t_mapping(t_address,t_uint256))"
      },
      {
        "astId": 20561,
        "contract": "contracts/ClaimContract.sol:ClaimContract",
        "label": "compAccrued",
        "offset": 0,
        "slot": "20",
        "type": "t_mapping(t_address,t_uint256)"
      },
      {
        "astId": 20566,
        "contract": "contracts/ClaimContract.sol:ClaimContract",
        "label": "borrowCapGuardian",
        "offset": 0,
        "slot": "21",
        "type": "t_address"
      },
      {
        "astId": 20570,
        "contract": "contracts/ClaimContract.sol:ClaimContract",
        "label": "borrowCaps",
        "offset": 0,
        "slot": "22",
        "type": "t_mapping(t_address,t_uint256)"
      },
      {
        "astId": 20577,
        "contract": "contracts/ClaimContract.sol:ClaimContract",
        "label": "compContributorSpeeds",
        "offset": 0,
        "slot": "23",
        "type": "t_mapping(t_address,t_uint256)"
      },
      {
        "astId": 20581,
        "contract": "contracts/ClaimContract.sol:ClaimContract",
        "label": "lastContributorBlock",
        "offset": 0,
        "slot": "24",
        "type": "t_mapping(t_address,t_uint256)"
      },
      {
        "astId": 20633,
        "contract": "contracts/ClaimContract.sol:ClaimContract",
        "label": "claimAccrued",
        "offset": 0,
        "slot": "25",
        "type": "t_mapping(t_address,t_mapping(t_address,t_uint256))"
      },
      {
        "astId": 20637,
        "contract": "contracts/ClaimContract.sol:ClaimContract",
        "label": "claimInfos",
        "offset": 0,
        "slot": "26",
        "type": "t_mapping(t_address,t_struct(ClaimInfo)20627_storage)"
      },
      {
        "astId": 20640,
        "contract": "contracts/ClaimContract.sol:ClaimContract",
        "label": "claimInfoKeys",
        "offset": 0,
        "slot": "27",
        "type": "t_array(t_address)dyn_storage"
      },
      {
        "astId": 20646,
        "contract": "contracts/ClaimContract.sol:ClaimContract",
        "label": "claimCompBorrowState",
        "offset": 0,
        "slot": "28",
        "type": "t_mapping(t_address,t_mapping(t_address,t_struct(CompMarketState)20528_storage))"
      },
      {
        "astId": 20654,
        "contract": "contracts/ClaimContract.sol:ClaimContract",
        "label": "claimCompSupplierIndex",
        "offset": 0,
        "slot": "29",
        "type": "t_mapping(t_address,t_mapping(t_address,t_mapping(t_address,t_uint256)))"
      },
      {
        "astId": 20662,
        "contract": "contracts/ClaimContract.sol:ClaimContract",
        "label": "claimCompBorrowerIndex",
        "offset": 0,
        "slot": "30",
        "type": "t_mapping(t_address,t_mapping(t_address,t_mapping(t_address,t_uint256)))"
      },
      {
        "astId": 20664,
        "contract": "contracts/ClaimContract.sol:ClaimContract",
        "label": "claimContract",
        "offset": 0,
        "slot": "31",
        "type": "t_address"
      }
    ],
    "types": {
      "t_address": {
        "encoding": "inplace",
        "label": "address",
        "numberOfBytes": "20"
      },
      "t_array(t_address)dyn_storage": {
        "base": "t_address",
        "encoding": "dynamic_array",
        "label": "address[]",
        "numberOfBytes": "32"
      },
      "t_array(t_contract(CToken)5457)dyn_storage": {
        "base": "t_contract(CToken)5457",
        "encoding": "dynamic_array",
        "label": "contract CToken[]",
        "numberOfBytes": "32"
      },
      "t_bool": {
        "encoding": "inplace",
        "label": "bool",
        "numberOfBytes": "1"
      },
      "t_bytes_storage": {
        "encoding": "bytes",
        "label": "bytes",
        "numberOfBytes": "32"
      },
      "t_contract(CToken)5457": {
        "encoding": "inplace",
        "label": "contract CToken",
        "numberOfBytes": "20"
      },
      "t_contract(PriceOracle)26221": {
        "encoding": "inplace",
        "label": "contract PriceOracle",
        "numberOfBytes": "20"
      },
      "t_mapping(t_address,t_array(t_contract(CToken)5457)dyn_storage)": {
        "encoding": "mapping",
        "key": "t_address",
        "label": "mapping(address => contract CToken[])",
        "numberOfBytes": "32",
        "value": "t_array(t_contract(CToken)5457)dyn_storage"
      },
      "t_mapping(t_address,t_bool)": {
        "encoding": "mapping",
        "key": "t_address",
        "label": "mapping(address => bool)",
        "numberOfBytes": "32",
        "value": "t_bool"
      },
      "t_mapping(t_address,t_mapping(t_address,t_mapping(t_address,t_uint256)))": {
        "encoding": "mapping",
        "key": "t_address",
        "label": "mapping(address => mapping(address => mapping(address => uint256)))",
        "numberOfBytes": "32",
        "value": "t_mapping(t_address,t_mapping(t_address,t_uint256))"
      },
      "t_mapping(t_address,t_mapping(t_address,t_struct(CompMarketState)20528_storage))": {
        "encoding": "mapping",
        "key": "t_address",
        "label": "mapping(address => mapping(address => struct ComptrollerV3Storage.CompMarketState))",
        "numberOfBytes": "32",
        "value": "t_mapping(t_address,t_struct(CompMarketState)20528_storage)"
      },
      "t_mapping(t_address,t_mapping(t_address,t_uint256))": {
        "encoding": "mapping",
        "key": "t_address",
        "label": "mapping(address => mapping(address => uint256))",
        "numberOfBytes": "32",
        "value": "t_mapping(t_address,t_uint256)"
      },
      "t_mapping(t_address,t_struct(ClaimInfo)20627_storage)": {
        "encoding": "mapping",
        "key": "t_address",
        "label": "mapping(address => struct ComptrollerV6Storage.ClaimInfo)",
        "numberOfBytes": "32",
        "value": "t_struct(ClaimInfo)20627_storage"
      },
      "t_mapping(t_address,t_struct(CompMarketState)20528_storage)": {
        "encoding": "mapping",
        "key": "t_address",
        "label": "mapping(address => struct ComptrollerV3Storage.CompMarketState)",
        "numberOfBytes": "32",
        "value": "t_struct(CompMarketState)20528_storage"
      },
      "t_mapping(t_address,t_struct(Market)20498_storage)": {
        "encoding": "mapping",
        "key": "t_address",
        "label": "mapping(address => struct ComptrollerV2Storage.Market)",
        "numberOfBytes": "32",
        "value": "t_struct(Market)20498_storage"
      },
      "t_mapping(t_address,t_uint256)": {
        "encoding": "mapping",
        "key": "t_address",
        "label": "mapping(address => uint256)",
        "numberOfBytes": "32",
        "value": "t_uint256"
      },
      "t_struct(ClaimInfo)20627_storage": {
        "encoding": "inplace",
        "label": "struct ComptrollerV6Storage.ClaimInfo",
        "members": [
          {
            "astId": 20586,
            "contract": "contracts/ClaimContract.sol:ClaimContract",
            "label": "index",
            "offset": 0,
            "slot": "0",
            "type": "t_uint256"
          },
          {
            "astId": 20588,
            "contract": "contracts/ClaimContract.sol:ClaimContract",
            "label": "token",
            "offset": 0,
            "slot": "1",
            "type": "t_address"
          },
          {
            "astId": 20590,
            "contract": "contracts/ClaimContract.sol:ClaimContract",
            "label": "pool",
            "offset": 0,
            "slot": "2",
            "type": "t_address"
          },
          {
            "astId": 20592,
            "contract": "contracts/ClaimContract.sol:ClaimContract",
            "label": "method",
            "offset": 0,
            "slot": "3",
            "type": "t_bytes_storage"
          },
          {
            "astId": 20596,
            "contract": "contracts/ClaimContract.sol:ClaimContract",
            "label": "markets",
            "offset": 0,
            "slot": "4",
            "type": "t_mapping(t_address,t_bool)"
          },
          {
            "astId": 20600,
            "contract": "contracts/ClaimContract.sol:ClaimContract",
            "label": "borrowRate",
            "offset": 0,
            "slot": "5",
            "type": "t_mapping(t_address,t_uint256)"
          },
          {
            "astId": 20602,
            "contract": "contracts/ClaimContract.sol:ClaimContract",
            "label": "totalAllocPoint",
            "offset": 0,
            "slot": "6",
            "type": "t_uint256"
          },
          {
            "astId": 20606,
            "contract": "contracts/ClaimContract.sol:ClaimContract",
            "label": "marketAllocPoint",
            "offset": 0,
            "slot": "7",
            "type": "t_mapping(t_address,t_uint256)"
          },
          {
            "astId": 20610,
            "contract": "contracts/ClaimContract.sol:ClaimContract",
            "label": "supplyState",
            "offset": 0,
            "slot": "8",
            "type": "t_mapping(t_address,t_struct(CompMarketState)20528_storage)"
          },
          {
            "astId": 20614,
            "contract": "contracts/ClaimContract.sol:ClaimContract",
            "label": "borrowState",
            "offset": 0,
            "slot": "9",
            "type": "t_mapping(t_address,t_struct(CompMarketState)20528_storage)"
          },
          {
            "astId": 20620,
            "contract": "contracts/ClaimContract.sol:ClaimContract",
            "label": "supplierIndex",
            "offset": 0,
            "slot": "10",
            "type": "t_mapping(t_address,t_mapping(t_address,t_uint256))"
          },
          {
            "astId": 20626,
            "contract": "contracts/ClaimContract.sol:ClaimContract",
            "label": "borrowerIndex",
            "offset": 0,
            "slot": "11",
            "type": "t_mapping(t_address,t_mapping(t_address,t_uint256))"
          }
        ],
        "numberOfBytes": "384"
      },
      "t_struct(CompMarketState)20528_storage": {
        "encoding": "inplace",
        "label": "struct ComptrollerV3Storage.CompMarketState",
        "members": [
          {
            "astId": 20525,
            "contract": "contracts/ClaimContract.sol:ClaimContract",
            "label": "index",
            "offset": 0,
            "slot": "0",
            "type": "t_uint224"
          },
          {
            "astId": 20527,
            "contract": "contracts/ClaimContract.sol:ClaimContract",
            "label": "block",
            "offset": 28,
            "slot": "0",
            "type": "t_uint32"
          }
        ],
        "numberOfBytes": "32"
      },
      "t_struct(Market)20498_storage": {
        "encoding": "inplace",
        "label": "struct ComptrollerV2Storage.Market",
        "members": [
          {
            "astId": 20489,
            "contract": "contracts/ClaimContract.sol:ClaimContract",
            "label": "isListed",
            "offset": 0,
            "slot": "0",
            "type": "t_bool"
          },
          {
            "astId": 20491,
            "contract": "contracts/ClaimContract.sol:ClaimContract",
            "label": "collateralFactorMantissa",
            "offset": 0,
            "slot": "1",
            "type": "t_uint256"
          },
          {
            "astId": 20495,
            "contract": "contracts/ClaimContract.sol:ClaimContract",
            "label": "accountMembership",
            "offset": 0,
            "slot": "2",
            "type": "t_mapping(t_address,t_bool)"
          },
          {
            "astId": 20497,
            "contract": "contracts/ClaimContract.sol:ClaimContract",
            "label": "isComped",
            "offset": 0,
            "slot": "3",
            "type": "t_bool"
          }
        ],
        "numberOfBytes": "128"
      },
      "t_uint224": {
        "encoding": "inplace",
        "label": "uint224",
        "numberOfBytes": "28"
      },
      "t_uint256": {
        "encoding": "inplace",
        "label": "uint256",
        "numberOfBytes": "32"
      },
      "t_uint32": {
        "encoding": "inplace",
        "label": "uint32",
        "numberOfBytes": "4"
      }
    }
  }
}