{
  "address": "0x9F78342b30c624FC4c09fe80722f75C54cd45134",
  "abi": [
    {
      "inputs": [
        {
          "internalType": "contract WePiggyToken",
          "name": "_piggy",
          "type": "address"
        },
        {
          "internalType": "address",
          "name": "_devAddr",
          "type": "address"
        },
        {
          "internalType": "uint256",
          "name": "_piggyPerBlock",
          "type": "uint256"
        },
        {
          "internalType": "uint256",
          "name": "_startBlock",
          "type": "uint256"
        },
        {
          "internalType": "uint256",
          "name": "_enableClaimBlock",
          "type": "uint256"
        },
        {
          "internalType": "uint256",
          "name": "_reduceIntervalBlock",
          "type": "uint256"
        },
        {
          "internalType": "uint256",
          "name": "_reduceRate",
          "type": "uint256"
        },
        {
          "internalType": "uint256",
          "name": "_devMiningRate",
          "type": "uint256"
        }
      ],
      "stateMutability": "nonpayable",
      "type": "constructor"
    },
    {
      "anonymous": false,
      "inputs": [
        {
          "indexed": true,
          "internalType": "address",
          "name": "user",
          "type": "address"
        },
        {
          "indexed": true,
          "internalType": "uint256",
          "name": "pid",
          "type": "uint256"
        }
      ],
      "name": "Claim",
      "type": "event"
    },
    {
      "anonymous": false,
      "inputs": [
        {
          "indexed": true,
          "internalType": "address",
          "name": "user",
          "type": "address"
        },
        {
          "indexed": true,
          "internalType": "uint256",
          "name": "pid",
          "type": "uint256"
        },
        {
          "indexed": false,
          "internalType": "uint256",
          "name": "amount",
          "type": "uint256"
        }
      ],
      "name": "EmergencyWithdraw",
      "type": "event"
    },
    {
      "anonymous": false,
      "inputs": [
        {
          "indexed": true,
          "internalType": "address",
          "name": "user",
          "type": "address"
        },
        {
          "indexed": false,
          "internalType": "uint256",
          "name": "pid",
          "type": "uint256"
        },
        {
          "indexed": false,
          "internalType": "uint256",
          "name": "targetPid",
          "type": "uint256"
        },
        {
          "indexed": false,
          "internalType": "uint256",
          "name": "amount",
          "type": "uint256"
        }
      ],
      "name": "Migrate",
      "type": "event"
    },
    {
      "anonymous": false,
      "inputs": [
        {
          "indexed": true,
          "internalType": "address",
          "name": "previousOwner",
          "type": "address"
        },
        {
          "indexed": true,
          "internalType": "address",
          "name": "newOwner",
          "type": "address"
        }
      ],
      "name": "OwnershipTransferred",
      "type": "event"
    },
    {
      "anonymous": false,
      "inputs": [
        {
          "indexed": true,
          "internalType": "address",
          "name": "user",
          "type": "address"
        },
        {
          "indexed": false,
          "internalType": "uint256",
          "name": "pid",
          "type": "uint256"
        },
        {
          "indexed": false,
          "internalType": "uint256",
          "name": "amount",
          "type": "uint256"
        }
      ],
      "name": "ReplaceMigrate",
      "type": "event"
    },
    {
      "anonymous": false,
      "inputs": [
        {
          "indexed": true,
          "internalType": "address",
          "name": "user",
          "type": "address"
        },
        {
          "indexed": true,
          "internalType": "uint256",
          "name": "pid",
          "type": "uint256"
        },
        {
          "indexed": false,
          "internalType": "uint256",
          "name": "amount",
          "type": "uint256"
        }
      ],
      "name": "Stake",
      "type": "event"
    },
    {
      "anonymous": false,
      "inputs": [
        {
          "indexed": true,
          "internalType": "address",
          "name": "user",
          "type": "address"
        },
        {
          "indexed": true,
          "internalType": "uint256",
          "name": "pid",
          "type": "uint256"
        },
        {
          "indexed": false,
          "internalType": "uint256",
          "name": "amount",
          "type": "uint256"
        }
      ],
      "name": "UnStake",
      "type": "event"
    },
    {
      "inputs": [
        {
          "internalType": "uint256",
          "name": "_allocPoint",
          "type": "uint256"
        },
        {
          "internalType": "contract IERC20",
          "name": "_lpToken",
          "type": "address"
        },
        {
          "internalType": "contract IMigrator",
          "name": "_migrator",
          "type": "address"
        },
        {
          "internalType": "bool",
          "name": "_withUpdate",
          "type": "bool"
        }
      ],
      "name": "add",
      "outputs": [],
      "stateMutability": "nonpayable",
      "type": "function"
    },
    {
      "inputs": [
        {
          "internalType": "address",
          "name": "_user",
          "type": "address"
        }
      ],
      "name": "allPendingPiggy",
      "outputs": [
        {
          "internalType": "uint256",
          "name": "",
          "type": "uint256"
        }
      ],
      "stateMutability": "view",
      "type": "function"
    },
    {
      "inputs": [
        {
          "internalType": "uint256",
          "name": "_pid",
          "type": "uint256"
        }
      ],
      "name": "claim",
      "outputs": [],
      "stateMutability": "nonpayable",
      "type": "function"
    },
    {
      "inputs": [],
      "name": "devAddr",
      "outputs": [
        {
          "internalType": "address",
          "name": "",
          "type": "address"
        }
      ],
      "stateMutability": "view",
      "type": "function"
    },
    {
      "inputs": [],
      "name": "devMiningRate",
      "outputs": [
        {
          "internalType": "uint256",
          "name": "",
          "type": "uint256"
        }
      ],
      "stateMutability": "view",
      "type": "function"
    },
    {
      "inputs": [
        {
          "internalType": "uint256",
          "name": "_pid",
          "type": "uint256"
        }
      ],
      "name": "emergencyWithdraw",
      "outputs": [],
      "stateMutability": "nonpayable",
      "type": "function"
    },
    {
      "inputs": [],
      "name": "enableClaimBlock",
      "outputs": [
        {
          "internalType": "uint256",
          "name": "",
          "type": "uint256"
        }
      ],
      "stateMutability": "view",
      "type": "function"
    },
    {
      "inputs": [
        {
          "internalType": "uint256",
          "name": "_from",
          "type": "uint256"
        },
        {
          "internalType": "uint256",
          "name": "_to",
          "type": "uint256"
        }
      ],
      "name": "getMultiplier",
      "outputs": [
        {
          "internalType": "uint256",
          "name": "",
          "type": "uint256"
        }
      ],
      "stateMutability": "pure",
      "type": "function"
    },
    {
      "inputs": [
        {
          "internalType": "uint256",
          "name": "_power",
          "type": "uint256"
        }
      ],
      "name": "getPiggyPerBlock",
      "outputs": [
        {
          "internalType": "uint256",
          "name": "",
          "type": "uint256"
        }
      ],
      "stateMutability": "view",
      "type": "function"
    },
    {
      "inputs": [],
      "name": "massUpdatePools",
      "outputs": [],
      "stateMutability": "nonpayable",
      "type": "function"
    },
    {
      "inputs": [
        {
          "internalType": "uint256",
          "name": "_pid",
          "type": "uint256"
        },
        {
          "internalType": "uint256",
          "name": "_targetPid",
          "type": "uint256"
        },
        {
          "internalType": "uint256",
          "name": "begin",
          "type": "uint256"
        }
      ],
      "name": "migrate",
      "outputs": [],
      "stateMutability": "nonpayable",
      "type": "function"
    },
    {
      "inputs": [],
      "name": "owner",
      "outputs": [
        {
          "internalType": "address",
          "name": "",
          "type": "address"
        }
      ],
      "stateMutability": "view",
      "type": "function"
    },
    {
      "inputs": [
        {
          "internalType": "uint256",
          "name": "_pid",
          "type": "uint256"
        },
        {
          "internalType": "address",
          "name": "_user",
          "type": "address"
        }
      ],
      "name": "pendingPiggy",
      "outputs": [
        {
          "internalType": "uint256",
          "name": "",
          "type": "uint256"
        }
      ],
      "stateMutability": "view",
      "type": "function"
    },
    {
      "inputs": [],
      "name": "piggy",
      "outputs": [
        {
          "internalType": "contract WePiggyToken",
          "name": "",
          "type": "address"
        }
      ],
      "stateMutability": "view",
      "type": "function"
    },
    {
      "inputs": [],
      "name": "piggyPerBlock",
      "outputs": [
        {
          "internalType": "uint256",
          "name": "",
          "type": "uint256"
        }
      ],
      "stateMutability": "view",
      "type": "function"
    },
    {
      "inputs": [
        {
          "internalType": "uint256",
          "name": "",
          "type": "uint256"
        }
      ],
      "name": "poolInfo",
      "outputs": [
        {
          "internalType": "contract IERC20",
          "name": "lpToken",
          "type": "address"
        },
        {
          "internalType": "uint256",
          "name": "allocPoint",
          "type": "uint256"
        },
        {
          "internalType": "uint256",
          "name": "lastRewardBlock",
          "type": "uint256"
        },
        {
          "internalType": "uint256",
          "name": "accPiggyPerShare",
          "type": "uint256"
        },
        {
          "internalType": "uint256",
          "name": "totalDeposit",
          "type": "uint256"
        },
        {
          "internalType": "contract IMigrator",
          "name": "migrator",
          "type": "address"
        }
      ],
      "stateMutability": "view",
      "type": "function"
    },
    {
      "inputs": [],
      "name": "poolLength",
      "outputs": [
        {
          "internalType": "uint256",
          "name": "",
          "type": "uint256"
        }
      ],
      "stateMutability": "view",
      "type": "function"
    },
    {
      "inputs": [],
      "name": "reduceIntervalBlock",
      "outputs": [
        {
          "internalType": "uint256",
          "name": "",
          "type": "uint256"
        }
      ],
      "stateMutability": "view",
      "type": "function"
    },
    {
      "inputs": [],
      "name": "reduceRate",
      "outputs": [
        {
          "internalType": "uint256",
          "name": "",
          "type": "uint256"
        }
      ],
      "stateMutability": "view",
      "type": "function"
    },
    {
      "inputs": [],
      "name": "renounceOwnership",
      "outputs": [],
      "stateMutability": "nonpayable",
      "type": "function"
    },
    {
      "inputs": [
        {
          "internalType": "uint256",
          "name": "_pid",
          "type": "uint256"
        }
      ],
      "name": "replaceMigrate",
      "outputs": [],
      "stateMutability": "nonpayable",
      "type": "function"
    },
    {
      "inputs": [
        {
          "internalType": "uint256",
          "name": "_pid",
          "type": "uint256"
        },
        {
          "internalType": "uint256",
          "name": "_allocPoint",
          "type": "uint256"
        },
        {
          "internalType": "bool",
          "name": "_withUpdate",
          "type": "bool"
        }
      ],
      "name": "setAllocPoint",
      "outputs": [],
      "stateMutability": "nonpayable",
      "type": "function"
    },
    {
      "inputs": [
        {
          "internalType": "address",
          "name": "_devAddr",
          "type": "address"
        }
      ],
      "name": "setDevAddr",
      "outputs": [],
      "stateMutability": "nonpayable",
      "type": "function"
    },
    {
      "inputs": [
        {
          "internalType": "uint256",
          "name": "_devMiningRate",
          "type": "uint256"
        }
      ],
      "name": "setDevMiningRate",
      "outputs": [],
      "stateMutability": "nonpayable",
      "type": "function"
    },
    {
      "inputs": [
        {
          "internalType": "uint256",
          "name": "_enableClaimBlock",
          "type": "uint256"
        }
      ],
      "name": "setEnableClaimBlock",
      "outputs": [],
      "stateMutability": "nonpayable",
      "type": "function"
    },
    {
      "inputs": [
        {
          "internalType": "uint256",
          "name": "_pid",
          "type": "uint256"
        },
        {
          "internalType": "contract IMigrator",
          "name": "_migrator",
          "type": "address"
        }
      ],
      "name": "setMigrator",
      "outputs": [],
      "stateMutability": "nonpayable",
      "type": "function"
    },
    {
      "inputs": [
        {
          "internalType": "uint256",
          "name": "_reduceIntervalBlock",
          "type": "uint256"
        },
        {
          "internalType": "bool",
          "name": "_withUpdate",
          "type": "bool"
        }
      ],
      "name": "setReduceIntervalBlock",
      "outputs": [],
      "stateMutability": "nonpayable",
      "type": "function"
    },
    {
      "inputs": [
        {
          "internalType": "uint256",
          "name": "_reduceRate",
          "type": "uint256"
        },
        {
          "internalType": "bool",
          "name": "_withUpdate",
          "type": "bool"
        }
      ],
      "name": "setReduceRate",
      "outputs": [],
      "stateMutability": "nonpayable",
      "type": "function"
    },
    {
      "inputs": [
        {
          "internalType": "uint256",
          "name": "_pid",
          "type": "uint256"
        },
        {
          "internalType": "uint256",
          "name": "_amount",
          "type": "uint256"
        }
      ],
      "name": "stake",
      "outputs": [],
      "stateMutability": "nonpayable",
      "type": "function"
    },
    {
      "inputs": [],
      "name": "startBlock",
      "outputs": [
        {
          "internalType": "uint256",
          "name": "",
          "type": "uint256"
        }
      ],
      "stateMutability": "view",
      "type": "function"
    },
    {
      "inputs": [],
      "name": "totalAllocPoint",
      "outputs": [
        {
          "internalType": "uint256",
          "name": "",
          "type": "uint256"
        }
      ],
      "stateMutability": "view",
      "type": "function"
    },
    {
      "inputs": [
        {
          "internalType": "address",
          "name": "newOwner",
          "type": "address"
        }
      ],
      "name": "transferOwnership",
      "outputs": [],
      "stateMutability": "nonpayable",
      "type": "function"
    },
    {
      "inputs": [
        {
          "internalType": "uint256",
          "name": "_pid",
          "type": "uint256"
        },
        {
          "internalType": "uint256",
          "name": "_amount",
          "type": "uint256"
        }
      ],
      "name": "unStake",
      "outputs": [],
      "stateMutability": "nonpayable",
      "type": "function"
    },
    {
      "inputs": [
        {
          "internalType": "uint256",
          "name": "_pid",
          "type": "uint256"
        }
      ],
      "name": "updatePool",
      "outputs": [],
      "stateMutability": "nonpayable",
      "type": "function"
    },
    {
      "inputs": [
        {
          "internalType": "uint256",
          "name": "",
          "type": "uint256"
        },
        {
          "internalType": "uint256",
          "name": "",
          "type": "uint256"
        }
      ],
      "name": "userAddresses",
      "outputs": [
        {
          "internalType": "address",
          "name": "",
          "type": "address"
        }
      ],
      "stateMutability": "view",
      "type": "function"
    },
    {
      "inputs": [
        {
          "internalType": "uint256",
          "name": "",
          "type": "uint256"
        },
        {
          "internalType": "address",
          "name": "",
          "type": "address"
        }
      ],
      "name": "userInfo",
      "outputs": [
        {
          "internalType": "uint256",
          "name": "amount",
          "type": "uint256"
        },
        {
          "internalType": "uint256",
          "name": "rewardDebt",
          "type": "uint256"
        },
        {
          "internalType": "uint256",
          "name": "pendingReward",
          "type": "uint256"
        },
        {
          "internalType": "bool",
          "name": "unStakeBeforeEnableClaim",
          "type": "bool"
        }
      ],
      "stateMutability": "view",
      "type": "function"
    },
    {
      "inputs": [
        {
          "internalType": "uint256",
          "name": "_pid",
          "type": "uint256"
        }
      ],
      "name": "usersLength",
      "outputs": [
        {
          "internalType": "uint256",
          "name": "",
          "type": "uint256"
        }
      ],
      "stateMutability": "view",
      "type": "function"
    }
  ],
  "transactionHash": "0x7236ee743eaa22f3759ef410d9c1b764a44d6742499e26d8ee01bbf3d6e79e8f",
  "args": [
    "0x03313eC6073201b5E46E7F6eB938d328941803E9",
    "0x41a33c1a6b8aa7c5968303AE79d416d0889f35E1",
    "1000000000000000000",
    4899536,
    4899536,
    "1",
    "1000",
    "1"
  ],
  "solcInputHash": "a056c11c5a448bc8bd95bd9a6119c4c5",
  "bytecode": "0x60806040523480156200001157600080fd5b5060405162002cff38038062002cff83398181016040526101008110156200003857600080fd5b508051602082015160408301516060840151608085015160a086015160c087015160e0909701519596949593949293919290916000620000806001600160e01b036200011e16565b600080546001600160a01b0319166001600160a01b0383169081178255604051929350917f8be0079c531659141344cd1fd0a4f28419497f9722a3daafe3b4186f6b6457e0908290a350600180546001600160a01b03998a166001600160a01b031991821617909155600280549890991697169690961790965560049390935560059190915560079190915560089290925560035560065562000122565b3390565b612bcd80620001326000396000f3fe608060405234801561001057600080fd5b50600436106102275760003560e01c8063565e77d511610130578063a0f99203116100b8578063c71b4b431161007c578063c71b4b43146105e1578063da09c72c1461061f578063e86e282f14610627578063f2fde38b1461064d578063f4844dff1461067357610227565b8063a0f992031461055d578063ae6d858c14610588578063af8feca8146105b4578063b5e48cf9146105d1578063b5fdf28e146105d957610227565b80637b0472f0116100ff5780637b0472f01461049257806388c95018146104b55780638da5cb5b146104de5780638dbb1e3a146104e657806393f1a40b1461050957610227565b8063565e77d51461043f578063630b5ba11461045c5780636ebb64a214610464578063715018a61461048a57610227565b8063379607f5116101b357806348cd4cb11161018257806348cd4cb114610399578063512001b1146103a157806351eb05a6146103c65780635312ea8e146103e357806355513d1f1461040057610227565b8063379607f5146103325780633c5868981461034f5780633ce7f63d146103745780634404f9071461037c57610227565b8063213832d4116101fa578063213832d4146102b4578063275a91de146102d157806330cd8eda146102ff57806334056a5314610307578063372caeb81461030f57610227565b8063081e3eda1461022c5780631526fe2714610246578063167ff50b146102a457806317caf6f1146102ac575b600080fd5b610234610690565b60408051918252519081900360200190f35b6102636004803603602081101561025c57600080fd5b5035610696565b604080516001600160a01b0397881681526020810196909652858101949094526060850192909252608084015290921660a082015290519081900360c00190f35b6102346106e6565b6102346106ec565b610234600480360360208110156102ca57600080fd5b50356106f2565b6102fd600480360360408110156102e757600080fd5b50803590602001356001600160a01b031661074a565b005b6102346107e9565b6102346107ef565b6102fd6004803603604081101561032557600080fd5b50803590602001356107f5565b6102fd6004803603602081101561034857600080fd5b50356109d8565b6102fd6004803603604081101561036557600080fd5b50803590602001351515610b25565b610234610b91565b6102fd6004803603602081101561039257600080fd5b5035610b97565b610234610e97565b6102fd600480360360408110156103b757600080fd5b50803590602001351515610e9d565b6102fd600480360360208110156103dc57600080fd5b5035610f09565b6102fd600480360360208110156103f957600080fd5b5035611176565b6104236004803603604081101561041657600080fd5b5080359060200135611232565b604080516001600160a01b039092168252519081900360200190f35b6102346004803603602081101561045557600080fd5b5035611267565b6102fd611279565b6102fd6004803603602081101561047a57600080fd5b50356001600160a01b031661129c565b6102fd611316565b6102fd600480360360408110156104a857600080fd5b50803590602001356113b8565b6102fd600480360360608110156104cb57600080fd5b50803590602081013590604001356115ac565b610423611aa0565b610234600480360360408110156104fc57600080fd5b5080359060200135611aaf565b6105356004803603604081101561051f57600080fd5b50803590602001356001600160a01b0316611aca565b6040805194855260208501939093528383019190915215156060830152519081900360800190f35b6102fd6004803603606081101561057357600080fd5b50803590602081013590604001351515611aff565b6102346004803603604081101561059e57600080fd5b50803590602001356001600160a01b0316611bd6565b6102fd600480360360208110156105ca57600080fd5b5035611be2565b610234611c3f565b610423611c45565b6102fd600480360360808110156105f757600080fd5b508035906001600160a01b036020820135811691604081013590911690606001351515611c54565b610423611e9c565b6102346004803603602081101561063d57600080fd5b50356001600160a01b0316611eab565b6102fd6004803603602081101561066357600080fd5b50356001600160a01b0316611ede565b6102fd6004803603602081101561068957600080fd5b5035611fd6565b60095490565b600981815481106106a357fe5b60009182526020909120600690910201805460018201546002830154600384015460048501546005909501546001600160a01b0394851696509294919390921686565b60035481565b600d5481565b6000816107025750600454610745565b60045460005b83811015610741576107376103e861072b6008548561203390919063ffffffff16565b9063ffffffff61208c16565b9150600101610708565b5090505b919050565b6107526120ce565b6000546001600160a01b039081169116146107a2576040805162461bcd60e51b81526020600482018190526024820152600080516020612b18833981519152604482015290519081900360640190fd5b80600983815481106107b057fe5b906000526020600020906006020160050160006101000a8154816001600160a01b0302191690836001600160a01b031602179055505050565b60075481565b60045481565b60006009838154811061080457fe5b60009182526020808320868452600a825260408085203386529092529220805460069092029092019250831115610876576040805162461bcd60e51b81526020600482015260116024820152701d5b94dd185ad94e881b9bdd0819dbdbd9607a1b604482015290519081900360640190fd5b61087f84610f09565b60006108b982600101546108ad64e8d4a5100061072b8760030154876000015461203390919063ffffffff16565b9063ffffffff6120d216565b905080156109235743600654116108f9576108d43382612114565b6002820154156108f4576108ec338360020154612114565b600060028301555b610923565b600282015461090e908263ffffffff6122a516565b600283015560038201805460ff191660011790555b8315610974578254610945906001600160a01b0316338663ffffffff6122ff16565b8154610957908563ffffffff6120d216565b8255600483015461096e908563ffffffff6120d216565b60048401555b600383015482546109959164e8d4a510009161072b9163ffffffff61203316565b6001830155604080518581529051869133917f54a9763035584fc4fcad1bc4e0e7a83f93e016f50ae32bd527530a77257393ee9181900360200190a35050505050565b436006541115610a24576040805162461bcd60e51b8152602060048201526012602482015271746f6f206561726c7920746f20636c61696d60701b604482015290519081900360640190fd5b600060098281548110610a3357fe5b60009182526020808320858452600a82526040808520338652909252922060069091029091019150610a6483610f09565b805415610aad576000610a9982600101546108ad64e8d4a5100061072b8760030154876000015461203390919063ffffffff16565b90508015610aab57610aab3382612114565b505b600281015415610acd57610ac5338260020154612114565b600060028201555b60038201548154610aee9164e8d4a510009161072b9163ffffffff61203316565b6001820155604051839033907f47cee97cb7acd717b3c0aa1435d004cd5b3c8c57d70dbceb4e4458bbd60e39d490600090a3505050565b610b2d6120ce565b6000546001600160a01b03908116911614610b7d576040805162461bcd60e51b81526020600482018190526024820152600080516020612b18833981519152604482015290519081900360640190fd5b8015610b8b57610b8b611279565b50600755565b60065481565b610b9f6120ce565b6000546001600160a01b03908116911614610bef576040805162461bcd60e51b81526020600482018190526024820152600080516020612b18833981519152604482015290519081900360640190fd5b600060098281548110610bfe57fe5b6000918252602090912060069091020160058101549091506001600160a01b031680610c68576040805162461bcd60e51b815260206004820152601460248201527336b4b3b930ba329d1037379036b4b3b930ba37b960611b604482015290519081900360640190fd5b8154604080516370a0823160e01b815230600482015290516001600160a01b039092169160009183916370a0823191602480820192602092909190829003018186803b158015610cb757600080fd5b505afa158015610ccb573d6000803e3d6000fd5b505050506040513d6020811015610ce157600080fd5b50519050610cff6001600160a01b038316848363ffffffff61235116565b60408051636336cc6160e01b81526001600160a01b0384811660048301528251600093849392881692636336cc61926024808301939282900301818787803b158015610d4a57600080fd5b505af1158015610d5e573d6000803e3d6000fd5b505050506040513d6040811015610d7457600080fd5b508051602091820151604080516370a0823160e01b815230600482015290519295509093506001600160a01b038516926370a0823192602480840193829003018186803b158015610dc457600080fd5b505afa158015610dd8573d6000803e3d6000fd5b505050506040513d6020811015610dee57600080fd5b50518314610e32576040805162461bcd60e51b815260206004820152600c60248201526b1b5a59dc985d194e8818985960a21b604482015290519081900360640190fd5b85546001600160a01b0319166001600160a01b0383811691909117875560408051898152602081018690528151928816927f02ac0adb3d0746a176fe1c8557b1ee08d84b9bf5ac79cd08e2d5275c600d2d53929181900390910190a250505050505050565b60055481565b610ea56120ce565b6000546001600160a01b03908116911614610ef5576040805162461bcd60e51b81526020600482018190526024820152600080516020612b18833981519152604482015290519081900360640190fd5b8015610f0357610f03611279565b50600855565b600060098281548110610f1857fe5b9060005260206000209060060201905080600201544311610f395750611173565b8054604080516370a0823160e01b815230600482015290516000926001600160a01b0316916370a08231916024808301926020929190829003018186803b158015610f8357600080fd5b505afa158015610f97573d6000803e3d6000fd5b505050506040513d6020811015610fad57600080fd5b5051905080610fc3575043600290910155611173565b6000610fe060075461072b600554436120d290919063ffffffff16565b90506000610ff2846002015443611aaf565b90506000611029600d5461072b876001015461101d611010886106f2565b879063ffffffff61203316565b9063ffffffff61203316565b6001546002546003549293506001600160a01b03918216926340c10f19929091169061105d9060649061072b908790612033565b6040518363ffffffff1660e01b815260040180836001600160a01b03166001600160a01b0316815260200182815260200192505050600060405180830381600087803b1580156110ac57600080fd5b505af11580156110c0573d6000803e3d6000fd5b5050600154604080516340c10f1960e01b81523060048201526024810186905290516001600160a01b0390921693506340c10f19925060448082019260009290919082900301818387803b15801561111757600080fd5b505af115801561112b573d6000803e3d6000fd5b5050505061115f61114e8561072b64e8d4a510008561203390919063ffffffff16565b60038701549063ffffffff6122a516565b600386015550504360029093019290925550505b50565b60006009828154811061118557fe5b60009182526020808320858452600a8252604080852033808752935284208054858255600182019590955560069093020180549094509192916111db916001600160a01b0391909116908363ffffffff6122ff16565b60048301546111f0908263ffffffff6120d216565b6004840155604080518281529051859133917fbb757047c2b5f3974fe26b7c10f732e7bce710b0952a71082702781e62ae05959181900360200190a350505050565b600b602052816000526040600020818154811061124b57fe5b6000918252602090912001546001600160a01b03169150829050565b6000908152600b602052604090205490565b60095460005b818110156112985761129081610f09565b60010161127f565b5050565b6112a46120ce565b6000546001600160a01b039081169116146112f4576040805162461bcd60e51b81526020600482018190526024820152600080516020612b18833981519152604482015290519081900360640190fd5b600280546001600160a01b0319166001600160a01b0392909216919091179055565b61131e6120ce565b6000546001600160a01b0390811691161461136e576040805162461bcd60e51b81526020600482018190526024820152600080516020612b18833981519152604482015290519081900360640190fd5b600080546040516001600160a01b03909116907f8be0079c531659141344cd1fd0a4f28419497f9722a3daafe3b4186f6b6457e0908390a3600080546001600160a01b0319169055565b6000600983815481106113c757fe5b60009182526020808320868452600a825260408085203386529092529220600690910290910191506113f884610f09565b80541561148a57600061142d82600101546108ad64e8d4a5100061072b8760030154876000015461203390919063ffffffff16565b9050801561148857436006541161146d576114483382612114565b60028201541561146857611460338360020154612114565b600060028301555b611488565b6002820154611482908263ffffffff6122a516565b60028301555b505b82156115495781546114ad906001600160a01b031633308663ffffffff61246416565b80546114bf908463ffffffff6122a516565b815560048201546114d6908463ffffffff6122a516565b60048301556000848152600c6020908152604080832033845290915290205480611547576000858152600c6020908152604080832033808552908352818420600190819055898552600b84529184208054928301815584529190922090910180546001600160a01b03191690911790555b505b6003820154815461156a9164e8d4a510009161072b9163ffffffff61203316565b6001820155604080518481529051859133917f5af417134f72a9d41143ace85b0a26dce6f550f894f2cbc1eeee8810603d91b69181900360200190a350505050565b6115b46120ce565b6000546001600160a01b03908116911614611604576040805162461bcd60e51b81526020600482018190526024820152600080516020612b18833981519152604482015290519081900360640190fd5b6000838152600b6020526040902054811061165d576040805162461bcd60e51b815260206004820152601460248201527336b4b3b930ba329d103132b3b4b71032b93937b960611b604482015290519081900360640190fd5b60006009848154811061166c57fe5b6000918252602090912060069091020160058101549091506001600160a01b0316806116d6576040805162461bcd60e51b815260206004820152601460248201527336b4b3b930ba329d1037379036b4b3b930ba37b960611b604482015290519081900360640190fd5b8154604080516370a0823160e01b815230600482015290516001600160a01b039092169160009183916370a0823191602480820192602092909190829003018186803b15801561172557600080fd5b505afa158015611739573d6000803e3d6000fd5b505050506040513d602081101561174f57600080fd5b5051905061176d6001600160a01b038316848363ffffffff61235116565b6040805163ce5494bb60e01b81526001600160a01b038481166004830152825160009384939288169263ce5494bb926024808301939282900301818787803b1580156117b857600080fd5b505af11580156117cc573d6000803e3d6000fd5b505050506040513d60408110156117e257600080fd5b508051602090910151600980549294509092506000918a90811061180257fe5b6000918252602090912060069091020180549091506001600160a01b03848116911614611865576040805162461bcd60e51b815260206004820152600c60248201526b1b5a59dc985d194e8818985960a21b604482015290519081900360640190fd5b60006118808561072b8564e8d4a5100063ffffffff61203316565b9050885b6118958a601463ffffffff6122a516565b811015611a465760008c8152600b6020526040902054811015611a39576118bb8b610f09565b60008c8152600b602052604081208054839081106118d557fe5b9060005260206000200160009054906101000a90046001600160a01b031690506000600a60008f81526020019081526020016000206000836001600160a01b03166001600160a01b0316815260200190815260200160002090506000600a60008f81526020019081526020016000206000846001600160a01b03166001600160a01b031681526020019081526020016000209050600082600001541161197d57505050611a3e565b815460009061199d9064e8d4a510009061072b908963ffffffff61203316565b82549091506119b2908263ffffffff6122a516565b825560018301546119e9906119d89064e8d4a510009061072b908a63ffffffff61203316565b60018401549063ffffffff6122a516565b60018301556004870154611a03908263ffffffff6122a516565b6004808901919091558354908e0154611a219163ffffffff6120d216565b60048e01555050600060018201819055905550611a3e565b611a46565b600101611884565b50604080518c8152602081018c905280820187905290516001600160a01b038916917fc47a839c70aa320457c80c5abd38ce8b516c72e37be119b7962f67f1f8eb7ac2919081900360600190a25050505050505050505050565b6000546001600160a01b031690565b6000611ac1828463ffffffff6120d216565b90505b92915050565b600a60209081526000928352604080842090915290825290208054600182015460028301546003909301549192909160ff1684565b611b076120ce565b6000546001600160a01b03908116911614611b57576040805162461bcd60e51b81526020600482018190526024820152600080516020612b18833981519152604482015290519081900360640190fd5b8015611b6557611b65611279565b611ba882611b9c60098681548110611b7957fe5b906000526020600020906006020160010154600d546120d290919063ffffffff16565b9063ffffffff6122a516565b600d819055508160098481548110611bbc57fe5b906000526020600020906006020160010181905550505050565b6000611ac183836124c4565b611bea6120ce565b6000546001600160a01b03908116911614611c3a576040805162461bcd60e51b81526020600482018190526024820152600080516020612b18833981519152604482015290519081900360640190fd5b600355565b60085481565b6001546001600160a01b031681565b611c5c6120ce565b6000546001600160a01b03908116911614611cac576040805162461bcd60e51b81526020600482018190526024820152600080516020612b18833981519152604482015290519081900360640190fd5b6001600160a01b038316611d07576040805162461bcd60e51b815260206004820152601c60248201527f6c7020746f6b656e20697320746865207a65726f206164647265737300000000604482015290519081900360640190fd5b8015611d1557611d15611279565b60006005544311611d2857600554611d2a565b435b600d54909150611d40908663ffffffff6122a516565b600d556040805160c0810182526001600160a01b039586168152602081019687529081019182526000606082018181526080830182815295871660a08401908152600980546001810182559352925160069092027f6e1540171b6c0c960b71a7020d9f60077f6af931a8bbf590da0223dacf75c7af810180549389166001600160a01b031994851617905597517f6e1540171b6c0c960b71a7020d9f60077f6af931a8bbf590da0223dacf75c7b089015592517f6e1540171b6c0c960b71a7020d9f60077f6af931a8bbf590da0223dacf75c7b188015591517f6e1540171b6c0c960b71a7020d9f60077f6af931a8bbf590da0223dacf75c7b287015592517f6e1540171b6c0c960b71a7020d9f60077f6af931a8bbf590da0223dacf75c7b386015591517f6e1540171b6c0c960b71a7020d9f60077f6af931a8bbf590da0223dacf75c7b49094018054949093169390911692909217905550565b6002546001600160a01b031681565b600080805b60095481101561074157611ed4611ec782866124c4565b839063ffffffff6122a516565b9150600101611eb0565b611ee66120ce565b6000546001600160a01b03908116911614611f36576040805162461bcd60e51b81526020600482018190526024820152600080516020612b18833981519152604482015290519081900360640190fd5b6001600160a01b038116611f7b5760405162461bcd60e51b8152600401808060200182810382526026815260200180612ad16026913960400191505060405180910390fd5b600080546040516001600160a01b03808516939216917f8be0079c531659141344cd1fd0a4f28419497f9722a3daafe3b4186f6b6457e091a3600080546001600160a01b0319166001600160a01b0392909216919091179055565b611fde6120ce565b6000546001600160a01b0390811691161461202e576040805162461bcd60e51b81526020600482018190526024820152600080516020612b18833981519152604482015290519081900360640190fd5b600655565b60008261204257506000611ac4565b8282028284828161204f57fe5b0414611ac15760405162461bcd60e51b8152600401808060200182810382526021815260200180612af76021913960400191505060405180910390fd5b6000611ac183836040518060400160405280601a81526020017f536166654d6174683a206469766973696f6e206279207a65726f000000000000815250612799565b3390565b6000611ac183836040518060400160405280601e81526020017f536166654d6174683a207375627472616374696f6e206f766572666c6f77000081525061283b565b600154604080516370a0823160e01b815230600482015290516000926001600160a01b0316916370a08231916024808301926020929190829003018186803b15801561215f57600080fd5b505afa158015612173573d6000803e3d6000fd5b505050506040513d602081101561218957600080fd5b505190508082111561221d576001546040805163a9059cbb60e01b81526001600160a01b038681166004830152602482018590529151919092169163a9059cbb9160448083019260209291908290030181600087803b1580156121eb57600080fd5b505af11580156121ff573d6000803e3d6000fd5b505050506040513d602081101561221557600080fd5b506122a09050565b6001546040805163a9059cbb60e01b81526001600160a01b038681166004830152602482018690529151919092169163a9059cbb9160448083019260209291908290030181600087803b15801561227357600080fd5b505af1158015612287573d6000803e3d6000fd5b505050506040513d602081101561229d57600080fd5b50505b505050565b600082820183811015611ac1576040805162461bcd60e51b815260206004820152601b60248201527f536166654d6174683a206164646974696f6e206f766572666c6f770000000000604482015290519081900360640190fd5b604080516001600160a01b038416602482015260448082018490528251808303909101815260649091019091526020810180516001600160e01b031663a9059cbb60e01b1790526122a0908490612895565b8015806123d7575060408051636eb1769f60e11b81523060048201526001600160a01b03848116602483015291519185169163dd62ed3e91604480820192602092909190829003018186803b1580156123a957600080fd5b505afa1580156123bd573d6000803e3d6000fd5b505050506040513d60208110156123d357600080fd5b5051155b6124125760405162461bcd60e51b8152600401808060200182810382526036815260200180612b626036913960400191505060405180910390fd5b604080516001600160a01b038416602482015260448082018490528251808303909101815260649091019091526020810180516001600160e01b031663095ea7b360e01b1790526122a0908490612895565b604080516001600160a01b0380861660248301528416604482015260648082018490528251808303909101815260849091019091526020810180516001600160e01b03166323b872dd60e01b1790526124be908590612895565b50505050565b600080600984815481106124d457fe5b60009182526020808320878452600a825260408085206001600160a01b0389811687529084528186206006959095029092016003810154815483516370a0823160e01b815230600482015293519298509596909590949316926370a082319260248082019391829003018186803b15801561254e57600080fd5b505afa158015612562573d6000803e3d6000fd5b505050506040513d602081101561257857600080fd5b505160028501549091504311801561258f57508015155b1561270357600754600554600286015460009283926125b79261072b9163ffffffff6120d216565b905060006125d660075461072b600554436120d290919063ffffffff16565b9050808214156126245760006125f0886002015443611aaf565b905061261c61260f600d5461072b8b6001015461101d611010886106f2565b859063ffffffff6122a516565b9350506126e1565b815b8181116126df5760008184141561267c57612675896002015461267060016108ad61266160075461101d60018c6122a590919063ffffffff16565b6005549063ffffffff6122a516565b611aaf565b90506126aa565b828214156126a55761267561269f6126616007548661203390919063ffffffff16565b43611aaf565b506007545b6126d46126c7600d5461072b8c6001015461101d611010886106f2565b869063ffffffff6122a516565b945050600101612626565b505b6126fd6126c78561072b8664e8d4a5100063ffffffff61203316565b94505050505b600061272d84600101546108ad64e8d4a5100061072b87896000015461203390919063ffffffff16565b905043600654111561275b57600284015461274f90829063ffffffff6122a516565b95505050505050611ac4565b600084600201541180156127735750600384015460ff165b1561278e57600284015461274f90829063ffffffff6122a516565b979650505050505050565b600081836128255760405162461bcd60e51b81526004018080602001828103825283818151815260200191508051906020019080838360005b838110156127ea5781810151838201526020016127d2565b50505050905090810190601f1680156128175780820380516001836020036101000a031916815260200191505b509250505060405180910390fd5b50600083858161283157fe5b0495945050505050565b6000818484111561288d5760405162461bcd60e51b81526020600482018181528351602484015283519092839260449091019190850190808383600083156127ea5781810151838201526020016127d2565b505050900390565b60606128ea826040518060400160405280602081526020017f5361666545524332303a206c6f772d6c6576656c2063616c6c206661696c6564815250856001600160a01b03166129469092919063ffffffff16565b8051909150156122a05780806020019051602081101561290957600080fd5b50516122a05760405162461bcd60e51b815260040180806020018281038252602a815260200180612b38602a913960400191505060405180910390fd5b6060612955848460008561295d565b949350505050565b606061296885612aca565b6129b9576040805162461bcd60e51b815260206004820152601d60248201527f416464726573733a2063616c6c20746f206e6f6e2d636f6e7472616374000000604482015290519081900360640190fd5b60006060866001600160a01b031685876040518082805190602001908083835b602083106129f85780518252601f1990920191602091820191016129d9565b6001836020036101000a03801982511681845116808217855250505050505090500191505060006040518083038185875af1925050503d8060008114612a5a576040519150601f19603f3d011682016040523d82523d6000602084013e612a5f565b606091505b50915091508115612a735791506129559050565b805115612a835780518082602001fd5b60405162461bcd60e51b81526020600482018181528651602484015286518793919283926044019190850190808383600083156127ea5781810151838201526020016127d2565b3b15159056fe4f776e61626c653a206e6577206f776e657220697320746865207a65726f2061646472657373536166654d6174683a206d756c7469706c69636174696f6e206f766572666c6f774f776e61626c653a2063616c6c6572206973206e6f7420746865206f776e65725361666545524332303a204552433230206f7065726174696f6e20646964206e6f7420737563636565645361666545524332303a20617070726f76652066726f6d206e6f6e2d7a65726f20746f206e6f6e2d7a65726f20616c6c6f77616e6365a26469706673582212207a07d132b67e3874440ba611dcfadd81dd519685be6029cea66b516ba5b3e97464736f6c63430006020033",
  "devdoc": {
    "methods": {
      "owner()": {
        "details": "Returns the address of the current owner."
      },
      "renounceOwnership()": {
        "details": "Leaves the contract without owner. It will not be possible to call `onlyOwner` functions anymore. Can only be called by the current owner.     * NOTE: Renouncing ownership will leave the contract without an owner, thereby removing any functionality that is only available to the owner."
      },
      "transferOwnership(address)": {
        "details": "Transfers ownership of the contract to a new account (`newOwner`). Can only be called by the current owner."
      }
    }
  },
  "userdoc": {
    "methods": {}
  },
  "storageLayout": {
    "storage": [
      {
        "astId": 1047,
        "contract": "contracts/Breeder.sol:PiggyBreederContract",
        "label": "_owner",
        "offset": 0,
        "slot": "0",
        "type": "t_address"
      },
      {
        "astId": 2615,
        "contract": "contracts/Breeder.sol:PiggyBreederContract",
        "label": "piggy",
        "offset": 0,
        "slot": "1",
        "type": "t_contract(WePiggyToken)2564"
      },
      {
        "astId": 2617,
        "contract": "contracts/Breeder.sol:PiggyBreederContract",
        "label": "devAddr",
        "offset": 0,
        "slot": "2",
        "type": "t_address"
      },
      {
        "astId": 2619,
        "contract": "contracts/Breeder.sol:PiggyBreederContract",
        "label": "devMiningRate",
        "offset": 0,
        "slot": "3",
        "type": "t_uint256"
      },
      {
        "astId": 2621,
        "contract": "contracts/Breeder.sol:PiggyBreederContract",
        "label": "piggyPerBlock",
        "offset": 0,
        "slot": "4",
        "type": "t_uint256"
      },
      {
        "astId": 2623,
        "contract": "contracts/Breeder.sol:PiggyBreederContract",
        "label": "startBlock",
        "offset": 0,
        "slot": "5",
        "type": "t_uint256"
      },
      {
        "astId": 2625,
        "contract": "contracts/Breeder.sol:PiggyBreederContract",
        "label": "enableClaimBlock",
        "offset": 0,
        "slot": "6",
        "type": "t_uint256"
      },
      {
        "astId": 2627,
        "contract": "contracts/Breeder.sol:PiggyBreederContract",
        "label": "reduceIntervalBlock",
        "offset": 0,
        "slot": "7",
        "type": "t_uint256"
      },
      {
        "astId": 2629,
        "contract": "contracts/Breeder.sol:PiggyBreederContract",
        "label": "reduceRate",
        "offset": 0,
        "slot": "8",
        "type": "t_uint256"
      },
      {
        "astId": 2632,
        "contract": "contracts/Breeder.sol:PiggyBreederContract",
        "label": "poolInfo",
        "offset": 0,
        "slot": "9",
        "type": "t_array(t_struct(PoolInfo)2613_storage)dyn_storage"
      },
      {
        "astId": 2638,
        "contract": "contracts/Breeder.sol:PiggyBreederContract",
        "label": "userInfo",
        "offset": 0,
        "slot": "10",
        "type": "t_mapping(t_uint256,t_mapping(t_address,t_struct(UserInfo)2600_storage))"
      },
      {
        "astId": 2643,
        "contract": "contracts/Breeder.sol:PiggyBreederContract",
        "label": "userAddresses",
        "offset": 0,
        "slot": "11",
        "type": "t_mapping(t_uint256,t_array(t_address)dyn_storage)"
      },
      {
        "astId": 2649,
        "contract": "contracts/Breeder.sol:PiggyBreederContract",
        "label": "userPoolAddresses",
        "offset": 0,
        "slot": "12",
        "type": "t_mapping(t_uint256,t_mapping(t_address,t_uint256))"
      },
      {
        "astId": 2651,
        "contract": "contracts/Breeder.sol:PiggyBreederContract",
        "label": "totalAllocPoint",
        "offset": 0,
        "slot": "13",
        "type": "t_uint256"
      }
    ],
    "types": {
      "t_address": {
        "encoding": "inplace",
        "label": "address",
        "numberOfBytes": "20"
      },
      "t_array(t_address)dyn_storage": {
        "base": "t_address",
        "encoding": "dynamic_array",
        "label": "address[]",
        "numberOfBytes": "32"
      },
      "t_array(t_struct(PoolInfo)2613_storage)dyn_storage": {
        "base": "t_struct(PoolInfo)2613_storage",
        "encoding": "dynamic_array",
        "label": "struct PiggyBreederContract.PoolInfo[]",
        "numberOfBytes": "32"
      },
      "t_bool": {
        "encoding": "inplace",
        "label": "bool",
        "numberOfBytes": "1"
      },
      "t_contract(IERC20)69": {
        "encoding": "inplace",
        "label": "contract IERC20",
        "numberOfBytes": "20"
      },
      "t_contract(IMigrator)2583": {
        "encoding": "inplace",
        "label": "contract IMigrator",
        "numberOfBytes": "20"
      },
      "t_contract(WePiggyToken)2564": {
        "encoding": "inplace",
        "label": "contract WePiggyToken",
        "numberOfBytes": "20"
      },
      "t_mapping(t_address,t_struct(UserInfo)2600_storage)": {
        "encoding": "mapping",
        "key": "t_address",
        "label": "mapping(address => struct PiggyBreederContract.UserInfo)",
        "numberOfBytes": "32",
        "value": "t_struct(UserInfo)2600_storage"
      },
      "t_mapping(t_address,t_uint256)": {
        "encoding": "mapping",
        "key": "t_address",
        "label": "mapping(address => uint256)",
        "numberOfBytes": "32",
        "value": "t_uint256"
      },
      "t_mapping(t_uint256,t_array(t_address)dyn_storage)": {
        "encoding": "mapping",
        "key": "t_uint256",
        "label": "mapping(uint256 => address[])",
        "numberOfBytes": "32",
        "value": "t_array(t_address)dyn_storage"
      },
      "t_mapping(t_uint256,t_mapping(t_address,t_struct(UserInfo)2600_storage))": {
        "encoding": "mapping",
        "key": "t_uint256",
        "label": "mapping(uint256 => mapping(address => struct PiggyBreederContract.UserInfo))",
        "numberOfBytes": "32",
        "value": "t_mapping(t_address,t_struct(UserInfo)2600_storage)"
      },
      "t_mapping(t_uint256,t_mapping(t_address,t_uint256))": {
        "encoding": "mapping",
        "key": "t_uint256",
        "label": "mapping(uint256 => mapping(address => uint256))",
        "numberOfBytes": "32",
        "value": "t_mapping(t_address,t_uint256)"
      },
      "t_struct(PoolInfo)2613_storage": {
        "encoding": "inplace",
        "label": "struct PiggyBreederContract.PoolInfo",
        "members": [
          {
            "astId": 2602,
            "contract": "contracts/Breeder.sol:PiggyBreederContract",
            "label": "lpToken",
            "offset": 0,
            "slot": "0",
            "type": "t_contract(IERC20)69"
          },
          {
            "astId": 2604,
            "contract": "contracts/Breeder.sol:PiggyBreederContract",
            "label": "allocPoint",
            "offset": 0,
            "slot": "1",
            "type": "t_uint256"
          },
          {
            "astId": 2606,
            "contract": "contracts/Breeder.sol:PiggyBreederContract",
            "label": "lastRewardBlock",
            "offset": 0,
            "slot": "2",
            "type": "t_uint256"
          },
          {
            "astId": 2608,
            "contract": "contracts/Breeder.sol:PiggyBreederContract",
            "label": "accPiggyPerShare",
            "offset": 0,
            "slot": "3",
            "type": "t_uint256"
          },
          {
            "astId": 2610,
            "contract": "contracts/Breeder.sol:PiggyBreederContract",
            "label": "totalDeposit",
            "offset": 0,
            "slot": "4",
            "type": "t_uint256"
          },
          {
            "astId": 2612,
            "contract": "contracts/Breeder.sol:PiggyBreederContract",
            "label": "migrator",
            "offset": 0,
            "slot": "5",
            "type": "t_contract(IMigrator)2583"
          }
        ],
        "numberOfBytes": "192"
      },
      "t_struct(UserInfo)2600_storage": {
        "encoding": "inplace",
        "label": "struct PiggyBreederContract.UserInfo",
        "members": [
          {
            "astId": 2593,
            "contract": "contracts/Breeder.sol:PiggyBreederContract",
            "label": "amount",
            "offset": 0,
            "slot": "0",
            "type": "t_uint256"
          },
          {
            "astId": 2595,
            "contract": "contracts/Breeder.sol:PiggyBreederContract",
            "label": "rewardDebt",
            "offset": 0,
            "slot": "1",
            "type": "t_uint256"
          },
          {
            "astId": 2597,
            "contract": "contracts/Breeder.sol:PiggyBreederContract",
            "label": "pendingReward",
            "offset": 0,
            "slot": "2",
            "type": "t_uint256"
          },
          {
            "astId": 2599,
            "contract": "contracts/Breeder.sol:PiggyBreederContract",
            "label": "unStakeBeforeEnableClaim",
            "offset": 0,
            "slot": "3",
            "type": "t_bool"
          }
        ],
        "numberOfBytes": "128"
      },
      "t_uint256": {
        "encoding": "inplace",
        "label": "uint256",
        "numberOfBytes": "32"
      }
    }
  }
}